:100000000C94BC000C94D9000C94D9000C94D90029
:100010000C94D9000C94D9000C94D9000C94D900FC
:100020000C94D9000C94D9000C94D9000C94D900EC
:100030000C94D9000C94D9000C94D9000C94D900DC
:100040000C94D9000C94D9000C94D9000C94D900CC
:100050000C94D9000C94D9000C94D9000C94D900BC
:100060000C94D9000C94D9000C94D9000C94D900AC
:100070000C94D9000C94D9000C94D9000C94D9009C
:100080000C94D9000C94D9000C94D9000C94D9008C
:100090000C94D9000C94D9000C94D9000C94D9007C
:1000A0000C94D9000C94D9000C94D9000C94D9006C
:1000B0000C94D9000C94D9000C94D9000C94D9005C
:1000C0000C94D9000C94D9000C94D9000C94D9004C
:1000D0000C94D9000C94D9000C94D9000C94D9003C
:1000E0000C94D9000C94D9000C94D9000C94D9002C
:1000F0000C94D9000C94D9000C94D9000C94D9001C
:100100000C94D9000C94D9000C94D9000C94D9000B
:100110000C94D9000C94D9000C94D9000C94D900FB
:100120000C94D9000C94D9000C94D9000C94D900EB
:100130000C94D9000C94D9000C94D9000C94D900DB
:100140000C94D9000C94D9000C94D9000C94D900CB
:100150000C94D9000C94D9000C94D9000C94D900BB
:100160000C94D9000C94D9000C94D9000C94EA0694
:100170000C94D9000C94D90011241FBECFEFD7E204
:10018000DEBFCDBF11E2A0E0B0E2E8E4FDE202C0D4
:1001900005900D92AC35B107D9F713E2ACE5B1E2A9
:1001A00001C01D92A138B107E1F70E942D0A0C94FD
:1001B000A2160C9400008CE591E20895FC01DC018C
:1001C000139680E31D921D928150E1F710821182F7
:1001D00012820895BF92CF92DF92EF92FF920F9317
:1001E0001F93CF93DF938C01EB01B88080E060E038
:1001F00070E044E050E00E94C00182309105D9F1E6
:100200008330910538F4009771F08130910509F041
:100210007CC01DC08330910509F441C08430910534
:1002200009F073C050C0AA81BB8180E00DC0E82FE7
:10023000F0E0EE0FFF1FE00FF11FA383B4838F5F89
:1002400013960D90BC91A02D109789F75FC0AC81DB
:10025000BD8180E00DC0E82FF0E0EE0FFF1FE00F42
:10026000F11FA383B4838F5F15960D90BC91A02DD1
:10027000109789F74BC0AE81BF8180E00DC0E82F99
:10028000F0E0EE0FFF1FE00FF11FA383B4838F5F39
:1002900017960D90BC91A02D109789F737C0A885AF
:1002A000B98580E00DC0E82FF0E0EE0FFF1FE00FF2
:1002B000F11FA383B4838F5F19960D90BC91A02D7D
:1002C000109789F723C0780184E0D82ECC240E94AF
:1002D00077166B2D7C2D0E94CD15EA81FB8190E075
:1002E00004C00380F481E02D9F5F9817D0F3D701FD
:1002F0001396ED93FC931497DA94E4E0F0E0EE0E9D
:10030000FF1EDD2021F788E001C080E0D8018C933A
:10031000DF91CF911F910F91FF90EF90DF90CF90E1
:10032000BF9008950F931F93DF93CF9300D0CDB765
:10033000DEB74A8369830E947905FC01008111813F
:100340000E94790569814A810E947C050115110589
:1003500069F40E947905BC018CE591E20E94EA00F3
:1003600080910C088072E0E0F8E084870F900F9095
:10037000CF91DF911F910F9108958091D52108951C
:100380002F923F924F925F926F927F928F929F92A5
:10039000AF92BF92CF92DF92EF92FF920F931F9393
:1003A000DF93CF9300D0CDB7DEB76B012A01E82FE2
:1003B000F0E0EE0FFF1FE553FE4D6081718180E09C
:1003C00090E00E94381320E030E042E755E40E94BC
:1003D000A8117B018C01B2016C197D096F5F7F4F01
:1003E00080E090E00E9438139B01AC01C801B70186
:1003F0000E94AE107B018C01B60180E090E00E946B
:100400003813D62EC72EB82EA92E160189839A83AB
:100410006E2D7F2D802F912FD601F5012B2F3A2F96
:100420004F2F5E2F0E945010962E872E782E692E09
:10043000B20180E090E00E943813F62E072F182FAB
:10044000E92EA4019301652F742F832F922F2F2D56
:10045000302F412F5E2D0E945612181624F0F92CD1
:10046000082D172DE62C6F2D702F812F9E2DD60174
:10047000F5012B2F3C2D4F2F5A2D0E94B61287FDD0
:1004800004C03F2C202E1983EA82A10139812A81E0
:10049000652F722D832F922F0E94DA0ECB010F90C1
:1004A0000F90CF91DF911F910F91FF90EF90DF9010
:1004B000CF90BF90AF909F908F907F906F905F9004
:1004C0004F903F902F9008958F929F92AF92BF923E
:1004D000CF92DF92EF92FF920F931F93CF93DF9310
:1004E000FC0122E030E0CAE0D0E073E0C72ED12C5E
:1004F00068E0A62EB12C00E616E050E4E52E56E0AA
:10050000F52E40EF942E98E3892ECF01BE010E9474
:10051000B915482F309719F4223009F04AE0C90183
:10052000B6010E94CD15B50102C0660F771F8A95EE
:10053000E2F7D80116966C93D70116969C921697FF
:100540004295407F15964C93D80115968C9215973D
:100550002F5F3F4F2530310531F0CF01BE010E94A2
:10056000B915FB01D2CFDF91CF911F910F91FF9071
:10057000EF90DF90CF90BF90AF909F908F900895B5
:10058000882321F088E0E0E4F6E08683662321F00A
:1005900084E0E0E6F6E08583442321F081E0E0E6B4
:1005A000F6E08583222321F082E0E0E6F6E0858311
:1005B0000895882321F088E0E0E4F6E0858366234F
:1005C00021F084E0E0E6F6E08683442321F081E038
:1005D000E0E6F6E08683222321F082E0E0E6F6E022
:1005E000868308958091C32108958091C421089540
:1005F0008091C12108958091C22108958091BF21E9
:1006000008958091C0210895CF93DF93E0E4F0E056
:1006100061E084E0C0E5D0E05BE848E0A0E5B0E060
:1006200032EC28E198ED15C0618383835A834093AF
:1006300050007091510073FFFCCF15963C931597B5
:10064000209350007091510074FFFCCF94BF8093B1
:10065000400070914000743039F7F894A0E6B6E09D
:1006600080E815968C93159790E412969C931297B8
:1006700011968C931197E0EBF9E088E1848390E286
:10068000938333E035838FE2868317828091A200C3
:100690008768E0EAF0E082837894C0E0D6E089EFF2
:1006A0008A83E0E0F2E010920002118292831382CA
:1006B00091E0948316828091000281608093000211
:1006C00090A311A212A240E256E08CE0FA018283CC
:1006D00028E080E896E0FC012283FA01328386E07C
:1006E00089838D83E0E4F6E088EF81838FE31196C0
:1006F0008C93119788E315968C93159790EF9583BB
:1007000016968C93169787E016968C9316972583EA
:10071000DF91CF910895BF92CF92DF92EF92FF9237
:100720000F931F93DF93CF930F92CDB7DEB78091D6
:10073000880686958695869591E009F090E08091EF
:1007400028068695869580FD02C082E001C080E083
:10075000C82EC92A8091280686958695869580FDA3
:1007600002C084E001C080E0C82AC092CA21609122
:10077000C92170E0D090C821E5ECF1E280E090E082
:100780004C2D50E021E030E0B82E8A01082E02C046
:10079000159507950A94E2F7DB01082E02C0B5957E
:1007A000A7950A94E2F70A171B0721F4A081AF5F0F
:1007B000A08301C01082A081A93060F0D90102C0DD
:1007C000AA0FBB1FBA94E2F7BA2FB095DB22AC2177
:1007D000DA2A10820196319683309105A9F6D092DB
:1007E000C821C092C9218091BF21D0FE0CC08823AE
:1007F00019F01092C02103C081E08093C02181E0F4
:100800008093BF210AC0882321F082E08093C02119
:1008100002C01092C0211092BF218091C121D1FE4F
:100820000CC0882319F01092C22103C081E080938C
:10083000C22181E08093C1210AC0882321F082E097
:100840008093C22102C01092C2211092C1218091D6
:10085000C321D2FE0CC0882319F01092C42103C01A
:1008600081E08093C42181E08093C3210AC0882362
:1008700021F082E08093C42102C01092C421109222
:10088000C321198280E092E062C02091230221609E
:10089000FC0123A320912102277C21A34091210266
:1008A000298130E02D5F3F4F63E0220F331F6A95AF
:1008B000E1F7422B41A320912002206820A3209140
:1008C000230220FFFCCFE98120912402F0E0EE0F0B
:1008D000FF1FE553FE4D20831182E981F0E0209156
:1008E0002502EE0FFF1FE553FE4DF22EEE24208170
:1008F00031812E293F2920833183E981F0E0EE0FF9
:10090000FF1FE553FE4D20813181203E310548F423
:10091000E981F0E0EE0FFF1FE553FE4D10821182DA
:1009200013C0E981A981F0E0EE0FFF1FE553FE4DF2
:10093000B0E0AA0FBB1FA553BE4D2D913C9111975E
:10094000205E30402083318329812F5F29832981D4
:10095000253008F49ACF8091280641E080FD40E0E0
:1009600060912806842F90E02091D62151E0252720
:1009700030E082239323009759F0862F869580FDDF
:1009800003C05093D52106C082E08093D52102C0D8
:100990001092D5214093D6210F90CF91DF911F91D6
:1009A0000F91FF90EF90DF90CF90BF900895089542
:1009B0000F931F93CF93DF93FC01DC0180E090E065
:1009C000282F1C963C911C97332301F50BE010E077
:1009D000809FD001819FB00D909FB00D1124AE0F6C
:1009E000BF1F81E01C968C93822F90E0809FD001E6
:1009F000819FB00D909FB00D11249D01265F3F4F48
:100A00002E0F3F1F2115310549F444C001961B9656
:100A100080319105A9F620E030E03CC0AE0FBF1F49
:100A20001A966C931A97BC016F5F7F4F609FE0012D
:100A3000619FD00D709FD00D1124CE0FDF1F488312
:100A400051961D921C92529753961D921C92549748
:100A5000C281D381209739F01D96CD93DC931E97E8
:100A60002D833E8306C01D961D921C921E972483E3
:100A700035834BE050E0849FD001859FB00D949F5B
:100A8000B00D1124AE0FBF1F1F961D921C925097E0
:100A900022833383C901DF91CF911F910F91089574
:100AA0001092D7211092D8211092D9211092DA21D8
:100AB0001092DB211092DC211092DD211092DE21B8
:100AC0001092DF211092E021E1EEF1E2108211821A
:100AD0001282138214821582168217821086118662
:100AE00012863B9682E2E139F80781F787ED91E2C1
:100AF000089587ED91E20895CF92DF92EF92FF92F1
:100B00000F931F93CF93DF93EC01EA81FB81309722
:100B100021F08081681708F07AC0CE010E94D804C5
:100B2000FC01E3C08C819D81E817F90709F06CC0D6
:100B3000FE0120E030E0E22E54855523E1F40BE085
:100B400010E0209FF001219FF00D309FF00D112447
:100B5000EC0FFD1F21E02487FF24E09ED001E19EE1
:100B6000B00DF09EB00D1124FD013A96EC0FFD1F63
:100B7000309741F4FAC02F5F3F4F3B96203131054B
:100B8000D1F6F3C06D01CC0EDD1ED6011A966C9322
:100B9000B7016F5F7F4F609F9001619F300D709F25
:100BA000300D11242C0F3D1FD9014C93D6015196C5
:100BB0001D921C92529753961D921C925497009727
:100BC00051F01F968D939C935097DC011396ED93F3
:100BD000FC93149707C0D6011F961D921C92509744
:100BE000EA83FB838BE090E0E89ED001E99EB00DA4
:100BF000F89EB00D1124AC0FBD1F1D961D921C92C6
:100C00001E97EC83FD8373C00380F481E02D808107
:100C1000861708F487CF9F01681711F4418365C0D8
:100C2000FE0180E090E0582F74857723E9F40BE013
:100C300010E0809FF001819FF00D909FF00D112436
:100C4000EC0FFD1F81E08487852F90E0809FD0010D
:100C5000819FB00D909FB00D1124FD013A96EC0FCD
:100C6000FD1F309739F481C001963B968031910584
:100C7000D1F67BC07D01EC0EFD1ED7011A966C9358
:100C8000BC016F5F7F4F609FC001619F900D709F9F
:100C9000900D11248C0F9D1FDC014C93D7015196B0
:100CA0001D921C92529753961D921C9254971D961A
:100CB0002D933C931E97D90115968D919C91169773
:100CC000D7011F968D939C935097D9011596ED935C
:100CD000FC931697D7011F968D919C915097DC013C
:100CE0001396ED93FC93149702C03097F1F148816D
:100CF0005981088519850E171F0789F121853285CD
:100D00002115310549F087819085D90117968D937A
:100D10009C93189760E001C061E0878190850097FF
:100D200051F0662311F08E839F83DC0119962D9379
:100D30003C931A9760E00115110541F00187128775
:100D4000D8011796ED93FC93189704C0118612866C
:100D5000EE83FF8317821086E887F98701C060E081
:100D6000CA01860F911D88839983DF91CF911F91CE
:100D70000F91FF90EF90DF90CF900895DC011296D5
:100D8000ED91FC91139710C0338124811082118260
:100D9000128213821482158216821782108611869F
:100DA0001286C901E92FF82F309771F712961D921C
:100DB0001C92139714961D921C92159716961D92CD
:100DC0001C92179718961D921C9219971D921C92AF
:100DD000119708951F920F920FB60F9211242F931F
:100DE0003F934F935F936F937F938F939F93AF93B3
:100DF000BF93EF93FF930E94970A61E040EB59E0A5
:100E00000E94120D0E94970A0E94990EFF91EF9185
:100E1000BF91AF919F918F917F916F915F914F9112
:100E20003F912F910F900FBE0F901F9018951F9319
:100E3000CF93DF930E94040310E0C4E6D0E001C02A
:100E400010E00E948B03812F61E070E043E650E0E8
:100E50000E94C001212F30E02F5F3F4F2C9FA00147
:100E60002D9F500D3C9F500D1124840F951F0E9403
:100E700064020E94F502813021F71F5F153000F7F0
:100E8000E0CF0F931F93DF93CF9300D0CDB7DEB7A2
:100E90000E9404030E948B030E94F2028A830E9434
:100EA000F80289830E94FE02282F80E06A8149812E
:100EB00000E010E00E94D704EDCFFF920F931F9344
:100EC000CF93DF930E940403C0E0D0E00E948B0325
:100ED0000E94F202F82E0E94F802082F0E94FE02E1
:100EE000182F0E94BD01813031F483E0C73ED8073E
:100EF00051F021960DC00E94BD01823049F4209727
:100F000029F0219705C0C0E0D0E002C0C7EED3E0D1
:100F100080E06F2D402F212F8E010E94D704D6CF65
:100F2000AF92BF92DF92EF92FF920F931F93CF93F6
:100F3000DF930E940403C0E0D0E084E6A82EB12C29
:100F40000E948B030E94F202D82E0E94F802E82E23
:100F50000E94FE02F82E0E94BD01813029F4C430A7
:100F6000D10551F021960DC00E94BD01823049F497
:100F7000209729F0219705C0C0E0D0E002C0C4E06E
:100F8000D0E08C2F60E070E043E650E00E94C001AA
:100F9000CA9D8001CB9D100DDA9D100D1124080F04
:100FA000191F80E06D2D4E2D2F2D0E94D704C8CF24
:100FB000FF920F931F930E9404030E949A0A90E9E4
:100FC000F92E0DE314E60E948B030E94F50288239C
:100FD000D1F3F09291220E94970A61E041E952E236
:100FE0000E94120D0E94970A0E94990E009391226E
:100FF0000E94970A61E041E952E20E94120D0E94AC
:10100000970A0E94990E109391220E94970A61E01C
:1010100041E952E20E94120D0E94970A0E94990E25
:10102000D2CF0F931F930E9404030E948B0380E092
:1010300060E040E020E000E010E00E94D704F5CF3F
:101040000F931F93DF93CF93CDB7DEB7AE97CDBF8E
:10105000DEBFDE011F96E0E2F0E220E201900D9299
:101060002150E1F7209100082F70298321E02A8385
:101070001B821C821D821E829C0140E050E060E0C9
:1010800077E883E993E00E94E0152F83388749874A
:101090005A876F81788589859A85EA81F0E0EE0F1D
:1010A000FF1FEE0FFF1F8E010F5F1F4F11C08A81C0
:1010B0008F5F8A838A81883008F093C06F8178853A
:1010C00089859A85EA81F0E0EE0FFF1FEE0FFF1F82
:1010D000E00FF11F26853785408951890E94E01570
:1010E0002B873C874D875E878B859C85AD85BE852C
:1010F000803020E0920721E0A20720E0B207B8F696
:1011000080910008882309F461C099818A81981729
:1011100009F45AC0109200086091200870912108CB
:10112000EA81F0E0EE0FFF1FEE0FFF1F8E010F5F51
:101130001F4FE00FF11F80E090E026853785408942
:1011400051890E949A156B837C838D839E836B816A
:101150007C818D819E81E981F0E0EE0FFF1FEE0F13
:10116000FF1FE00FF11F26853785408951890E94B6
:10117000E0152B833C834D835E8310C08B819C8163
:10118000AD81BE812B853C854D855E85821B930B91
:10119000A40BB50B8B839C83AD83BE832B813C81D9
:1011A0004D815E818B859C85AD85BE8582179307B9
:1011B000A407B50718F38B819C81AD81BE81E0E067
:1011C000F8E080A391A302C0109200088B859C8553
:1011D000AD85BE85E0E0F8E080A791A78A81809385
:1011E0000008AE96CDBFDEBFCF91DF911F910F916A
:1011F00008950F931F93DF93CF93CDB7DEB7AE97CC
:10120000CDBFDEBFDE011F96E0E0F0E220E20190FC
:101210000D922150E1F7209100082F70298321E0E1
:101220002A831B821C821D821E829C0140E050E0AA
:1012300060E078EA84ED95E50E94E0152F83388719
:1012400049875A876F81788589859A85EA81F0E098
:10125000EE0FFF1FEE0FFF1F8E010F5F1F4F11C01C
:101260008A818F5F8A838A81883008F0A1C06F816C
:10127000788589859A85EA81F0E0EE0FFF1FEE0FF1
:10128000FF1FE00FF11F26853785408951890E9495
:10129000E0152B873C874D875E878B859C85AD85C8
:1012A000BE85803020E0920721E0A20720E0B2074F
:1012B000B8F680910008882309F461C099818A8179
:1012C000981709F45AC01092000860912008709194
:1012D0002108EA81F0E0EE0FFF1FEE0FFF1F8E01E5
:1012E0000F5F1F4FE00FF11F80E090E026853785EC
:1012F000408951890E949A156B837C838D839E83DC
:101300006B817C818D819E81E981F0E0EE0FFF1F72
:10131000EE0FFF1FE00FF11F2685378540895189A9
:101320000E94E0152B833C834D835E8310C08B812C
:101330009C81AD81BE812B853C854D855E85821B60
:10134000930BA40BB50B8B839C83AD83BE832B8146
:101350003C814D815E818B859C85AD85BE858217E4
:101360009307A407B50718F38B819C81AD81BE81DB
:10137000E0E0F8E080A391A302C0109200088B8502
:101380009C85AD85BE85E0E0F8E080A791A78B85C0
:101390009C85AD85BE8568E170E00E94B91566A7A1
:1013A00077A780910108806981838A8180930008F2
:1013B000AE96CDBFDEBFCF91DF911F910F91089503
:1013C000EF92FF920F931F93CF93DF930E9404033A
:1013D000C0E0D0E00AE010E00E948B030E94BD0153
:1013E000813091F40E94F202882339F0C8010197FC
:1013F000C817D907E0F421961AC083E0073E180702
:10140000B0F40F5F1F4F13C00E94BD01823079F40A
:101410000E94F202882321F0209749F0219707C00B
:10142000CE0101968017910710F40150104082E020
:10143000BE01A8010E94C0017C010E94FE02882317
:1014400011F0C70107C00E94F802882311F0CE01F5
:1014500001C0C8010E946402BFCF0E94D80780E08B
:1014600090E00895DF93CF93CDB7DEB72697CDBF39
:10147000DEBF6C834D832E83DE011196FE01349610
:1014800083E001900D928150E1F7809193228F3F8C
:1014900031F0809193228F5F8093932202C010924B
:1014A00093222696CDBFDEBFCF91DF9108950F9393
:1014B000DF93CF93CDB7DEB72697CDBFDEBF4C838A
:1014C0002D830E83DE011196FE01349683E0019098
:1014D0000D928150E1F7809192228F3F31F08091FF
:1014E00092228F5F8093922202C0109292222696BF
:1014F000CDBFDEBFCF91DF910F9108950F93809103
:10150000B10985FFFCCF4093B009623070F0809143
:10151000B10985FFFCCF2093B009633031F480918D
:10152000B10985FFFCCF0093B0090F91089584E9BC
:1015300092E20895CF93DF93C4E9D2E2CE010E94F4
:10154000E10CCE0162E37AE00E94A90CCE0167E5CE
:101550007AE00E94DD0CDF91CF910895FC01428377
:10156000638374831182108208950F931F93CF9326
:10157000DF93EC01162F0E942F0B082F298130E0FA
:10158000C90101966A8170E00E94CD15488150E042
:101590008417950729F4802F0E94320B80E013C036
:1015A000EB81FC81E20FF31F1083298130E02F5F74
:1015B0003F4F6A81C90170E00E94CD158983802F59
:1015C0000E94320B81E0DF91CF911F910F9108951E
:1015D0001F93CF93DF93EC010E942F0B29819881F9
:1015E000291710F0122F02C01A81120F191B0E9426
:1015F000320B812FDF91CF911F910895FC018081E3
:1016000090E0860F911D628170E00E94CD150380ED
:10161000F481E02DE80FF91F808108950F931F9347
:10162000DF93CF930F92CDB7DEB78C0169830E9411
:101630002F0B482FF801208130E06981260F311DE2
:101640006281C90170E00E94CD158083842F0E94C1
:10165000320B0F90CF91DF911F910F9108958FB7AB
:10166000F89408958FBF0895881F8827881F0895CC
:1016700091E0883F08F490E0892F0895282F30E00A
:10168000207F3070203B3105F1F0213B310554F4CF
:1016900020393105C1F0203A3105A9F02038310553
:1016A000E9F411C0203D3105D9F0213D310524F484
:1016B000203C310599F414C0203E310521F0203F33
:1016C000310561F402C083E00895E82FE15FEF3057
:1016D00048F4F0E0E05CFF4D8081089580E00895DB
:1016E00082E0089580E008950F93362F542F022F43
:1016F0003F70306B5F770F77DC01ED91FC9163E019
:1017000070E0432F252F09950F9108950F93362FE1
:10171000542F022F3F7030695F770F77DC01ED9116
:10172000FC9163E070E0432F252F09950F910895F8
:101730000F93362F542F022F3F7030685F770F774B
:10174000DC01ED91FC9163E070E0432F252F0995BA
:101750000F9108950F93362F542F022F3F70306A48
:101760005F770F77DC01ED91FC9163E070E0432F30
:10177000252F09950F9108950F931F938A0120E259
:10178000403052073CF4A0EE40305A0734F000508D
:10179000104E05C00FEF1FE302C000E010E0462F1F
:1017A0004F70406E202F2F77000F012F001F110B5D
:1017B00011950F77DC01ED91FC9163E070E00995E4
:1017C0001F910F9108950F93362F242F3F70306C87
:1017D0002F77DC01ED91FC9162E070E0432F00E097
:1017E00009950F9108950F93362F242F3F70306D78
:1017F0002F77DC01ED91FC9162E070E0432F00E077
:1018000009950F9108950F93DC01ED91FC9161E032
:1018100070E048EF20E000E009950F9108950F93E4
:10182000DC01ED91FC9161E070E049EF20E000E027
:1018300009950F9108950F93DC01ED91FC9161E002
:1018400070E04AEF20E000E009950F9108950F93B2
:10185000DC01ED91FC9161E070E04BEF20E000E0F5
:1018600009950F9108950F93DC01ED91FC9161E0D2
:1018700070E04CEF20E000E009950F9108950F9380
:10188000DC01ED91FC9161E070E04EEF20E000E0C2
:1018900009950F9108950F93DC01ED91FC9161E0A2
:1018A00070E04FEF20E000E009950F9108950F934D
:1018B000262F2F77DC01ED91FC9162E070E041EF83
:1018C00000E009950F9108950F931F93262F2F770E
:1018D0008B01000F012F001F110B11950F77DC01F9
:1018E000ED91FC9163E070E042EF09951F910F913B
:1018F00008950F93262F2F77DC01ED91FC9162E084
:1019000070E043EF00E009950F9108950F93DC011B
:10191000ED91FC9161E070E046EF20E000E0099578
:101920000F9108950F93462FDC01ED91FC9161E03A
:1019300070E020E000E009950F9108950F93DC011D
:10194000ED91FC9109950F910895FC0162837383D9
:101950000895FC01648375830895FC016683778391
:101960000895FC01608771870895FC016287738781
:101970000895FC01648775870895FC016687778761
:101980000895FC01608B718B0895FC01628B738B51
:101990000895FC01648B758B0895FC01668B778B31
:1019A0000895FC01608F718F0895FC01628F738F21
:1019B0000895FC01648F758F0895FC01668F778F01
:1019C0000895CF93DF93EC011DA21EA21FA2BC01BC
:1019D000685D7F4F88519F4F40EC0E94AE0A1A828B
:1019E0001B821C821D821E821F82188619861A86FF
:1019F0001B861C861D861E861F86188A198A1A8ACF
:101A00001B8A1C8A1D8A1E8A1F8A188E198E1A8E9E
:101A10001B8E1C8E1D8E1E8E1F8E18A219A2DF918A
:101A2000CF910895CF92DF92FF920F931F93DF9390
:101A3000CF930F92CDB7DEB7F62EE42FF52F6F01BF
:101A40008C0108511F4F08C0F60161916F01C80158
:101A500049830E94B50A49818C2D841B8F15A0F300
:101A60000F90CF91DF911F910F91FF90DF90CF905A
:101A70000895FC01608371830895FC0160A371A344
:101A80000895CF92DF92EF92FF920F931F93CF931F
:101A9000DF93EC016B01142FE22EF02E8DA1843028
:101AA00031F4EA8DFB8D309709F083C095C0623028
:101AB000710509F442C06330710529F06130710588
:101AC00009F073C060C0842F90E0807F9070803AEE
:101AD0009105E1F0813A91053CF48038910599F047
:101AE00080399105F9F40CC0803E910591F0803F5A
:101AF000910591F0803B9105A9F4EA81FB8114C026
:101B0000EC81FD8111C0EE81FF810EC0E885F98571
:101B10000BC0EA85FB8508C0423F09F05DC0EC853B
:101B2000FD8502C0E0E0F0E0309709F455C0CE0139
:101B3000612F4E2D2F2D099542C0842F90E0807F7C
:101B40009070803D910549F0803F910549F0803CBF
:101B5000910581F4EE85FF850FC0E889F9890CC0F5
:101B6000433F19F4EA89FB8907C0413FA9F5EC8995
:101B7000FD8902C0E0E0F0E0309771F1CE01612F05
:101B80004E2D09951CC0842F0E94380B882319F014
:101B9000EE89FF8904C0163FF9F4E88DF98D30977E
:101BA000D9F0CE01612F09950AC06430710590F417
:101BB00013C0CE01B601412F2E2D0F2D0995EE8DAC
:101BC000FF8D309771F0CE01B601412F2E2D0F2DD4
:101BD000099507C0CC24DD24EC8DFD8D309749F7A5
:101BE000EECFDF91CF911F910F91FF90EF90DF909B
:101BF000CF900895EF92FF920F931F93CF93DF93AF
:101C0000EC01162F862F0E94380B882369F0EDA077
:101C100081E08DA3CE0161E070E0412F20E000E083
:101C20000E94410DEDA27EC0812F0E94340B4DA178
:101C3000882309F442C0443029F01AA381E090E0DF
:101C40008EA39FA3812F0E943E0B813039F08130FB
:101C500078F0823059F0833061F508C08DA3CE0151
:101C600061E070E0412F20E000E01FC08DA35AC06A
:101C7000103F19F0173FE9F404C084E08DA31AA3C4
:101C80003FC02EA13FA1C90163E070E00E94B915D9
:101C90008C0F9D1FFC0112A3B9016F5F7F4F6EA3D4
:101CA0007FA3CE014AA12BA10CA10E94410D1DA230
:101CB00039C01DA21EA21FA235C0442399F12EA136
:101CC0003FA1C90163E070E00E94B9157C01FE01EB
:101CD000E80FF91F12A3B9016F5F7F4F6EA37FA3B7
:101CE0008130910591F082E0E816F104D9F4CE013B
:101CF0004AA12BA10CA10E94410D8DA1843091F02D
:101D000081E090E08EA39FA30DC0423059F4CE0134
:101D10004AA12BA100E00E94410D8DA1843011F059
:101D2000EEA2FFA2DF91CF911F910F91FF90EF9054
:101D30000895EF92FF920F931F93DF93CF9300D0FC
:101D40000F92CDB7DEB78C01DC019096ED91FC913E
:101D50009197309709F0099588EEE82EF12CE00E66
:101D6000F11EC7010E94E80A89831A821B8211C0F2
:101D7000C70160E00E94FE0A682FC8010E94FA0DA8
:101D8000C70161E00E940E0B8A819B8101968A83C4
:101D90009B832A813B81898190E02817390740F392
:101DA0002396CDBFDEBFCF91DF911F910F91FF90A2
:101DB000EF900895EF92FF920F931F937B018C0198
:101DC00020E030E040E05FE40E94861287FD11C011
:101DD000C801B70120E030E040E05FE40E947D10E0
:101DE0000E94E6129B01AC01205030404040504818
:101DF00006C0C801B7010E94E6129B01AC01B901FF
:101E0000CA011F910F91FF90EF900895A0E0B0E0FC
:101E1000ECE0FFE00C940616FC01EA0180818230C0
:101E200008F438C1DB019C91923008F430C1843051
:101E300059F4943009F02EC1918111968C9111972B
:101E4000981709F021C126C1943009F420C19230BD
:101E5000B1F4823009F01EC1CA01AF0128E0DA01F5
:101E60000D90AD01DC010D92CD012150C1F7DB01D8
:101E700011968C9111979181892389830AC18230AF
:101E800009F405C1C280D380DB0112966D907C906D
:101E9000139724813581468157811496ED90FD90EA
:101EA0000D911C911797C601861997095C0197FF40
:101EB00004C0AA24BB24A81AB90AB0E2AB16B10424
:101EC0000CF061C0181619066CF5370148010A2C90
:101ED00004C096948794779467940A94D2F781E02B
:101EE00090E0A0E0B0E00A2C04C0880F991FAA1F60
:101EF000BB1F0A94D2F70197A109B1098E219F2136
:101F0000A023B123EE24FF248701E3940097A105C9
:101F1000B10519F4EE24FF248701E628F7280829E3
:101F200019293CC00097D1F1CA0CDB1C39014A01C8
:101F30000A2C04C096948794779467940A94D2F7F5
:101F400081E090E0A0E0B0E00A2C04C0880F991F67
:101F5000AA1FBB1F0A94D2F70197A109B1098223D6
:101F60009323A423B52321E030E040E050E0009724
:101F7000A105B10519F420E030E0A901262937298F
:101F8000482959290BC06C147D0424F4EE24FF2445
:101F9000870104C0630120E030E0A9018181FB01D9
:101FA0009181891709F445C0882349F0D801C701F8
:101FB000821B930BA40BB50B9C01AD0104C02E1921
:101FC0003F09400B510B57FD04C01982CA82DB82C6
:101FD0000BC081E08983CA82DB82509540953095A1
:101FE00021953F4F4F4F5F4F2C833D834E835F833F
:101FF0000DC0880F991FAA1FBB1F8C839D83AE83C2
:10200000BF838A819B8101978A839B838C819D8179
:10201000AE81BF819C01AD01215030404040504015
:102020002F3FEFEF3E07EFEF4E07EFE35E0708F3BA
:102030000BC08983CA82DB822E0D3F1D401F511FBA
:102040002C833D834E835F8383E088832C813D8195
:102050004E815F8157FF1DC0DA01C9018170907008
:10206000A070B0705695479537952795822B932B86
:10207000A42BB52B8C839D83AE83BF838A819B81E8
:1020800001968A839B8305C0EFE4F0E203C0FB0165
:1020900001C0FE01CF01CDB7DEB7EEE00C941F16F4
:1020A000A0E2B0E0E6E5F0E10C940E1669837A83D5
:1020B0008B839C832D833E834F83588789E0E82E52
:1020C000F12CEC0EFD1ECE010196B7010E94D81432
:1020D0008E010F5E1F4FCE010596B8010E94D814E5
:1020E000C701B801AE01475E5F4F0E94060F0E9414
:1020F0000A14A096E6E00C942716A0E2B0E0E3E80C
:10210000F0E10C940E1669837A838B839C832D8374
:102110003E834F8358878E01075F1F4FCE01019684
:10212000B8010E94D81491E1E92EF12CEC0EFD1EAD
:10213000CE010596B7010E94D8148A8991E08927BB
:102140008A8BC801B701AE01475E5F4F0E94060F40
:102150000E940A14A096E6E00C942716A0E2B0E0D4
:10216000E4EBF0E10C94021669837A838B839C8301
:102170002D833E834F835887CE010196BE01675F52
:102180007F4F0E94D814CE010596BE016F5E7F4F2F
:102190000E94D8149985923078F089898230C0F0F5
:1021A000943019F4823041F4CBC0843019F4923069
:1021B00079F4C6C0923051F481E02A859A892917B2
:1021C00009F480E08A87CE010996BCC0823051F4C0
:1021D00081E02A859A89291709F480E08A8BCE014B
:1021E0004196B0C06D847E848F849888ED88FE8887
:1021F0000F89188DE0E2F0E080E090E0DC01AA2495
:10220000BB24650120E030E0A901B301617070706A
:1022100061157105D1F02E0D3F1D401F511F150195
:102220002601280E391E4A1E5B1E81E090E0A0E0C8
:10223000B0E02E153F054007510718F080E090E010
:10224000DC01820D931DA41DB51DAA0CBB1CCC1C6A
:10225000DD1C17FF09C061E0262E312C412C512CCA
:10226000A228B328C428D528319749F0EE0CFF1CCA
:10227000001F111F9694879477946794C6CF6B893B
:102280007C89EB85FC856E0F7F1F6E5F7F4F6B8FA8
:102290007C8F61E0EA857A89E71709F460E06A8F4C
:1022A0006B8D7C8D10C0FC01E170F070309729F0CF
:1022B00056954795379527955068B695A795979564
:1022C00087956F5F7F4FB7FDEECF0CC0880F991FCA
:1022D000AA1FBB1F57FD8160220F331F441F551FCC
:1022E000615070408030E0E09E07E0E0AE07E0E43F
:1022F000BE0760F36B8F7C8F6FE7E62EF12C012D0C
:10230000112DE822F9220A231B2360E4E616F104CA
:102310000105110561F487FD0AC02115310541054C
:10232000510529F0805C9F4FAF4FBF4F80788D8F54
:102330009E8FAF8FB8A383E0898FCE01499602C0EC
:102340008FE490E20E940A14A096E2E10C941B161E
:10235000A8E1B0E0EEEAF1E10C940A1669837A8311
:102360008B839C832D833E834F8358878E01075F29
:102370001F4FCE010196B8010E94D81481E1E82ECA
:10238000F12CEC0EFD1ECE010596B7010E94D8146B
:102390009985923008F483C08989823008F47BC023
:1023A0002A853A8923272A87943011F0923021F424
:1023B000981709F06CC071C0843039F41D861E86F0
:1023C0001F86188A1B861C866AC0823019F484E036
:1023D000898765C08B859C852B893C89821B930BE3
:1023E0008B879C872D853E854F855889ED88FE8893
:1023F0000F89188D2E153F054007510738F4220F1D
:10240000331F441F551F01978B879C876FE170E036
:10241000A12CB12CC12CA0E4DA2E80E090E0DC01EC
:102420002E153F054007510740F08A299B29AC290A
:10243000BD292E193F09400B510BD694C794B79470
:10244000A794220F331F441F551F6150704041F75E
:102450006FE7E62EF12C012D112DE822F9220A2337
:102460001B2360E4E616F1040105110561F487FD04
:102470000AC0211531054105510529F0805C9F4FA7
:10248000AF4FBF4F80788D879E87AF87B88B8E0107
:10249000075F1F4F04C0870102C00FE410E2C801AC
:1024A0000E940A146896EAE00C942316A8E1B0E0B2
:1024B000ECE5F2E10C940E1669837A838B839C839E
:1024C0002D833E834F8358878E01075F1F4FCE01B8
:1024D0000196B8010E94D81481E1E82EF12CEC0E8F
:1024E000FD1ECE010596B7010E94D8148985823061
:1024F00040F08989823028F0C801B7010E94411557
:1025000001C08FEF6896E6E00C942716A8E1B0E0D2
:10251000ECE8F2E10C940E1669837A838B839C833A
:102520002D833E834F8358878E01075F1F4FCE0157
:102530000196B8010E94D81481E1E82EF12CEC0E2E
:10254000FD1ECE010596B7010E94D8148985823000
:1025500040F08989823028F0C801B7010E944115F6
:1025600001C08FEF6896E6E00C942716A8E1B0E072
:10257000ECEBF2E10C940E1669837A838B839C83D7
:102580002D833E834F8358878E01075F1F4FCE01F7
:102590000196B8010E94D81481E1E82EF12CEC0ECE
:1025A000FD1ECE010596B7010E94D81489858230A0
:1025B00040F08989823028F0C801B7010E94411596
:1025C00001C081E06896E6E00C942716ACE0B0E02C
:1025D000ECEEF2E10C94121669837A838B839C8370
:1025E000CE010196BE016B5F7F4F0E94D8148D8192
:1025F000823081F1823070F1843021F48E81882321
:1026000069F10AC02F81388537FD24C06E812F31D2
:1026100031053CF0662311F120E030E040E050E865
:1026200021C08EE190E0821B930B29853A854B8572
:102630005C8504C056954795379527958A95D2F7BE
:10264000662381F050954095309521953F4F4F4F2F
:102650005F4F08C020E030E0A90104C02FEF3FEF3A
:102660004FEF5FE7B901CA012C96E2E00C942B16FC
:10267000A8E0B0E0EEE3F3E10C940C167B018C01D2
:102680001A82611571058105910519F482E089832B
:102690005FC083E089838EE1C82ED12CCB82DC829F
:1026A000ED82FE820F831887C801B7010E94B01324
:1026B000FC013197F7FF3AC0AA27BB27AE1BBF0B1F
:1026C00021E030E040E050E00A2E04C0220F331F2A
:1026D000441F551F0A94D2F72150304040405040CB
:1026E0002E213F214023512361E070E080E090E003
:1026F000211531054105510519F460E070E0CB0169
:1027000004C016950795F794E794AA95D2F7E62AA0
:10271000F72A082B192BED82FE820F8318878EE192
:1027200090E08E1B9F0B8B839C8312C0309781F0AF
:102730000E2E04C0EE0CFF1C001F111F0A94D2F7CE
:10274000ED82FE820F831887CE1ADF0ACB82DC82ED
:10275000CE0101960E940A142896E8E00C942516F2
:10276000AF92BF92CF92DF92EF92FF920F931F939F
:102770007B018C0180E0E81680E0F80681E0080724
:1027800080E0180758F4EFEFEE16F104010511058B
:1027900009F090F480E090E0DC0117C0F0E0EF1663
:1027A000F0E0FF06F0E00F07F1E01F0750F480E1D2
:1027B00090E0A0E0B0E009C088E090E0A0E0B0E0E8
:1027C00004C088E190E0A0E0B0E020E230E040E02A
:1027D00050E0281B390B4A0B5B0B5701680104C002
:1027E000D694C794B794A7948A95D2F7D601C50119
:1027F000895A9F4DFC018081281B310941095109EB
:10280000C9011F910F91FF90EF90DF90CF90BF9083
:10281000AF900895EF92FF920F931F93CF93DF93A2
:10282000FC0124813581468157816181808182301C
:1028300020F44061EFEFF0E0A3C0843009F49BC0C6
:10284000823009F492C0211531054105510509F482
:102850008FC00280F381E02D8FEFE238F8070CF093
:102860005AC0C2E8DFEFCE1BDF0BCA31D1056CF5D1
:1028700079018A010C2E04C016950795F794E79408
:102880000A94D2F781E090E0A0E0B0E00C2E04C002
:10289000880F991FAA1FBB1F0A94D2F70197A1099D
:1028A000B10982239323A423B52321E030E040E043
:1028B00050E00097A105B10519F420E030E0A9012E
:1028C0002E293F29402B512B03C020E030E0A901E5
:1028D000DA01C9018F779070A070B07080349105D3
:1028E000A105B10539F427FF09C0205C3F4F4F4FC8
:1028F0005F4F04C0215C3F4F4F4F5F4FE1E0F0E07E
:10290000203080E0380780E0480780E4580728F549
:10291000E0E0F0E022C0E038F1056CF5E158FF4F4F
:10292000DA01C9018F779070A070B0708034910582
:10293000A105B10539F427FF09C0205C3F4F4F4F77
:102940005F4F04C0215C3F4F4F4F5F4F57FF05C0A3
:102950005695479537952795319687E05695479533
:10296000379527958A95D1F70BC0E0E0F0E005C0D8
:10297000E0E0F0E005C0EFEFF0E020E030E0A9019A
:102980008E2F879588278795942F9F776795662741
:102990006795E695E22EA92FA82BFE2FF62B622F26
:1029A000732F8A2F9F2FCDB7DEB7E6E00C94271642
:1029B000DC01FB012C9111963C91119712968C91A0
:1029C0001297482F4F7750E0982F991F9927991FFA
:1029D00013966C911397862F880F892B90E0661FB2
:1029E0006627661F6183009739F52115310541057A
:1029F000510511F482E029C082E89FEF828393831E
:102A000067E0220F331F441F551F6A95D1F783E0FB
:102A1000808309C0220F331F441F551F8281938179
:102A2000019782839383203080E0380780E0480755
:102A300080E4580778F320C08F3F910579F4211581
:102A400031054105510519F484E08083089544FF60
:102A500003C081E0808310C010820EC08F57904069
:102A60008283938383E0808387E0220F331F441F98
:102A7000551F8A95D1F75064248335834683578345
:102A80000895FC01DB019081923008F449C08C91DB
:102A9000823008F445C0943051F461818430B1F53E
:102AA00011962C91119730E0261B310941C08430DA
:102AB00021F0923041F48230B1F111968C9111974E
:102AC0008823A1F12DC06181823001F111968C9192
:102AD00011976817D9F42281338112968D919C91B8
:102AE00013978217930794F028173907BCF02481B5
:102AF00035814681578114968D919D910D90BC91A1
:102B0000A02D82179307A407B50718F4662341F098
:102B10000DC0281739074A075B0728F4662331F0F0
:102B200021E030E005C020E030E002C02FEF3FEFB1
:102B3000C9010895629FD001739FF001829FE00D4B
:102B4000F11D649FE00DF11D929FF00D839FF00D2C
:102B5000749FF00D659FF00D9927729FB00DE11DD8
:102B6000F91F639FB00DE11DF91FBD01CF011124B5
:102B70000895AA1BBB1B51E107C0AA1FBB1FA617C4
:102B8000B70710F0A61BB70B881F991F5A95A9F716
:102B900080959095BC01CD01089597FB092E0726DD
:102BA0000AD077FD04D0E5DF06D000201AF4709536
:102BB00061957F4F0895F6F7909581959F4F089501
:102BC000A1E21A2EAA1BBB1BFD010DC0AA1FBB1F31
:102BD000EE1FFF1FA217B307E407F50720F0A21BA3
:102BE000B30BE40BF50B661F771F881F991F1A9410
:102BF00069F760957095809590959B01AC01BD013A
:102C0000CF0108952F923F924F925F926F927F92E1
:102C10008F929F92AF92BF92CF92DF92EF92FF92EC
:102C20000F931F93CF93DF93CDB7DEB7CA1BDB0B98
:102C3000CDBFDEBF09942A88398848885F846E84B6
:102C40007D848C849B84AA84B984C884DF80EE80D0
:102C5000FD800C811B81AA81B981CE0FD11DCDBF12
:102C6000DEBFED010895A0E0B0E0E9E3F6E10C94E9
:102C70000A16EC01688179818A819B816115710551
:102C80008105910521F464E279ED8BE597E02DE172
:102C900033EF41E050E00E94871679018A0127EA6C
:102CA00031E440E050E00E949A155B016C01C801DC
:102CB000B7012CEE34EF4FEF5FEF0E949A156A0DCB
:102CC0007B1D8C1D9D1D97FF04C06150704080408E
:102CD0009048688379838A839B837F77CB01CDB7C4
:102CE000DEB7EAE00C9423160E943316089587E5B8
:102CF00091E20E9433160895A0E0B0E0809357213E
:102D000090935821A0935921B0935A21089597FB8D
:102D1000092E05260ED057FD04D052DF0AD0001C24
:102D200038F450954095309521953F4F4F4F5F4F68
:102D30000895F6F790958095709561957F4F8F4F28
:082D40009F4F0895F894FFCFA6
:102D48000000000001000000020000000400000074
:102D5800080000004000000000010000000400001E
:102D68000000000001000000020000000400000054
:102D780008000000400000000001000000040000FE
:102D8800020302000001000101010101000101002C
:102D98000000000000000000010202030303030416
:102DA80004040404040404050505050505050505D2
:102DB80005050505050505060606060606060606B2
:102DC800060606060606060606060606060606069B
:102DD8000606060606060607070707070707070782
:102DE800070707070707070707070707070707076B
:102DF800070707070707070707070707070707075B
:102E0800070707070707070707070707070707074A
:102E18000707070707070708080808080808080831
:102E2800080808080808080808080808080808081A
:102E3800080808080808080808080808080808080A
:102E480008080808080808080808080808080808FA
:102E580008080808080808080808080808080808EA
:102E680008080808080808080808080808080808DA
:102E780008080808080808080808080808080808CA
:102E880008080808080808080808080808080808BA
:0C2E9800080808080808080100000000F5
:00000001FF
