:100000000C94BC000C94D9000C94D9000C94D90029
:100010000C94D9000C94D9000C94D9000C94D900FC
:100020000C94D9000C94D9000C94D9000C94D900EC
:100030000C94D9000C94D9000C94D9000C94D900DC
:100040000C94D9000C94D9000C94D9000C94D900CC
:100050000C94D9000C94D9000C94D9000C94D900BC
:100060000C94D9000C94D9000C94D9000C94D900AC
:100070000C94D9000C94D9000C94D9000C94D9009C
:100080000C94D9000C94D9000C94D9000C94D9008C
:100090000C94D9000C94D9000C94D9000C94D9007C
:1000A0000C94D9000C94D9000C94D9000C94D9006C
:1000B0000C94D9000C94D9000C94D9000C94D9005C
:1000C0000C94D9000C94D9000C94D9000C94D9004C
:1000D0000C94D9000C94D9000C94D9000C94D9003C
:1000E0000C94D9000C94D9000C94D9000C94D9002C
:1000F0000C94D9000C94D9000C94D9000C94D9001C
:100100000C94D9000C94D9000C94D9000C94D9000B
:100110000C94D9000C94D9000C94D9000C94D900FB
:100120000C94D9000C94D9000C94D9000C94D900EB
:100130000C94D9000C94D9000C94D9000C94D900DB
:100140000C94D9000C94D9000C94D9000C94D900CB
:100150000C94D9000C94D9000C94D9000C94D900BB
:100160000C94D9000C94D9000C94D9000C94F6038B
:100170000C94D9000C94D90011241FBECFEFD7E204
:10018000DEBFCDBF11E2A0E0B0E2E2EFF5E202C0D7
:1001900005900D92A835B107D9F712E2A8E5B1E2B2
:1001A00001C01D92AF35B107E1F70E9408070C941A
:1001B000F7120C94000080916E2108952F923F92C7
:1001C0004F925F926F927F928F929F92AF92BF9267
:1001D000CF92DF92EF92FF920F931F93DF93CF9313
:1001E00000D0CDB7DEB76B012A01E82FF0E0EE0FAB
:1001F000FF1FEC59FE4D6081718180E090E00E940C
:10020000FC0F20E030E042E755E40E946C0E7B01D9
:100210008C01B2016C197D096F5F7F4F80E090E027
:100220000E94FC0F9B01AC01C801B7010E94720D36
:100230007B018C01B60180E090E00E94FC0FD62E7D
:10024000C72EB82EA92E160189839A836E2D7F2D75
:10025000802F912FD601F5012B2F3A2F4F2F5E2F94
:100260000E94140D962E872E782E692EB20180E002
:1002700090E00E94FC0FF62E072F182FE92EA40104
:100280009301652F742F832F922F2F2D302F412F05
:100290005E2D0E941A0F181624F0F92C082D172D28
:1002A000E62C6F2D702F812F9E2DD601F5012B2F5F
:1002B0003C2D4F2F5A2D0E947A0F87FD04C03F2CF2
:1002C000202E1983EA82A10139812A81652F722D9E
:1002D000832F922F0E949E0BCB010F900F90CF91F6
:1002E000DF911F910F91FF90EF90DF90CF90BF9023
:1002F000AF909F908F907F906F905F904F903F90C6
:100300002F9008958F929F92AF92BF92CF92DF92DB
:10031000EF92FF920F931F93CF93DF93FC0122E0A4
:1003200030E0CAE0D0E073E0C72ED12C68E0A62E02
:10033000B12C00E616E050E4E52E56E0F52E40EF35
:10034000942E98E3892ECF01BE010E947D12482F82
:10035000309719F4223009F04AE0C901B6010E9431
:100360009112B50102C0660F771F8A95E2F7D80196
:1003700016966C93D70116969C9216974295407FDD
:1003800015964C93D80115968C9215972F5F3F4F79
:100390002530310531F0CF01BE010E947D12FB01F5
:1003A000D2CFDF91CF911F910F91FF90EF90DF900F
:1003B000CF90BF90AF909F908F900895882321F0A9
:1003C00088E0E0E4F6E08683662321F084E0E0E65E
:1003D000F6E08583442321F081E0E0E6F6E08583C2
:1003E000222321F082E0E0E6F6E085830895882369
:1003F00021F088E0E0E4F6E08583662321F084E0E4
:10040000E0E6F6E08683442321F081E0E0E6F6E0D2
:100410008683222321F082E0E0E6F6E086830895D9
:1004200080915C21089580915D21089580915A21E9
:10043000089580915B2108958091582108958091BD
:1004400059210895CF93DF93E0E4F0E061E084E088
:10045000C0E5D0E05BE848E0A0E5B0E032EC28E1A0
:1004600098ED15C0618383835A8340935000709147
:10047000510073FFFCCF15963C93159720935000C5
:100480007091510074FFFCCF94BF80934000709135
:100490004000743039F7F894A0E6B6E080E815968D
:1004A0008C93159790E412969C93129711968C93C7
:1004B0001197E0EBF9E088E1848390E2938333E0E5
:1004C00035838FE2868317828091A2008768E0EAF5
:1004D000F0E082837894C0E0D6E089EF8A83E0E0A0
:1004E000F2E01092000211829283138291E09483D1
:1004F00016828091000281608093000290A311A275
:1005000012A240E256E08CE0FA01828328E080E803
:1005100096E0FC012283FA01328386E089838D8391
:10052000E0E4F6E088EF81838FE311968C931197D6
:1005300088E315968C93159790EF958316968C9378
:10054000169787E016968C9316972583DF91CF91A7
:100550000895BF92CF92DF92EF92FF920F931F9375
:10056000DF93CF930F92CDB7DEB780918806869543
:100570008695869591E009F090E080912806869511
:10058000869580FD02C082E001C080E0C82EC92AA5
:100590008091280686958695869580FD02C084E028
:1005A00001C080E0C82AC09263216091622170E09E
:1005B000D0906121EEE5F1E280E090E04C2D50E03A
:1005C00021E030E0B82E8A01082E02C0159507956B
:1005D0000A94E2F7DB01082E02C0B595A7950A94AC
:1005E000E2F70A171B0721F4A081AF5FA08301C0C7
:1005F0001082A081A93060F0D90102C0AA0FBB1FF0
:10060000BA94E2F7BA2FB095DB22AC21DA2A108235
:100610000196319683309105A9F6D0926121C0925E
:10062000622180915821D0FE0CC0882319F01092CD
:10063000592103C081E08093592181E080935821A2
:100640000AC0882321F082E08093592102C01092D1
:1006500059211092582180915A21D1FE0CC0882333
:1006600019F010925B2103C081E080935B2181E04F
:1006700080935A210AC0882321F082E080935B2175
:1006800002C010925B2110925A2180915C21D2FE0F
:100690000CC0882319F010925D2103C081E0809383
:1006A0005D2181E080935C210AC0882321F082E0F3
:1006B00080935D2102C010925D2110925C2119820D
:1006C00080E092E062C0209123022160FC0123A31C
:1006D00020912102277C21A340912102298130E031
:1006E0002D5F3F4F63E0220F331F6A95E1F7422BE6
:1006F00041A320912002206820A32091230220FF03
:10070000FCCFE98120912402F0E0EE0FFF1FEC59AD
:10071000FE4D20831182E981F0E020912502EE0F49
:10072000FF1FEC59FE4DF22EEE24208131812E293F
:100730003F2920833183E981F0E0EE0FFF1FEC5960
:10074000FE4D20813181203E310548F4E981F0E001
:10075000EE0FFF1FEC59FE4D1082118213C0E9818C
:10076000A981F0E0EE0FFF1FEC59FE4DB0E0AA0F9B
:10077000BB1FAC59BE4D2D913C911197205E30406E
:100780002083318329812F5F29832981253008F433
:100790009ACF8091280641E080FD40E060912806D4
:1007A000842F90E020916F2151E0252730E08223B3
:1007B0009323009759F0862F869580FD03C05093B0
:1007C0006E2106C082E080936E2102C010926E21DD
:1007D00040936F210F90CF91DF911F910F91FF9068
:1007E000EF90DF90CF90BF90089508951F920F92E1
:1007F0000FB60F9211242F933F934F935F936F93F4
:100800007F938F939F93AF93BF93EF93FF930E9438
:100810005B074091B00961E050E00E94D6090E9458
:100820005B070E945D0BFF91EF91BF91AF919F918C
:100830008F917F916F915F914F913F912F910F9089
:100840000FBE0F901F9018951F93CF93DF930E94B8
:10085000220210E0C4E6D0E001C010E00E94A9022C
:10086000812F61E070E043E650E00E94DE00212F1E
:1008700030E02F5F3F4F2C9FA0012D9F500D3C9FDC
:10088000500D1124840F951F0E9482010E941302B3
:10089000813021F71F5F153000F7E0CF0F931F93D2
:1008A000DF93CF9300D0CDB7DEB70E9422020E9423
:1008B000A9020E9410028A830E94160289830E9464
:1008C0001C02282F80E06A81498100E010E00E942C
:1008D000F503EDCFFF920F931F93CF93DF930E9409
:1008E0002202C0E0D0E00E94A9020E941002F82E6D
:1008F0000E941602082F0E941C02182F0E94DB0083
:10090000813031F483E0C73ED80751F021960DC005
:100910000E94DB00823049F4209729F0219705C01E
:10092000C0E0D0E002C0C7EED3E080E06F2D402FE2
:10093000212F8E010E94F503D6CFAF92BF92DF9296
:10094000EF92FF920F931F93CF93DF930E942202A7
:10095000C0E0D0E084E6A82EB12C0E94A9020E943B
:100960001002D82E0E941602E82E0E941C02F82EB9
:100970000E94DB00813029F4C430D10551F021966A
:100980000DC00E94DB00823049F4209729F02197A6
:1009900005C0C0E0D0E002C0C4E0D0E08C2F60E031
:1009A00070E043E650E00E94DE00CA9D8001CB9DCE
:1009B000100DDA9D100D1124080F191F80E06D2D08
:1009C0004E2D2F2D0E94F503C8CF0E9422020E94B7
:1009D0005E070E94A902FDCF0F931F930E9422027F
:1009E0000E94A90280E060E040E020E000E010E02A
:1009F0000E94F503F5CF0F931F93DF93CF93CDB7ED
:100A0000DEB7AE97CDBFDEBFDE011F96E0E2F0E2BB
:100A100020E201900D922150E1F7209100082F7003
:100A2000298321E02A831B821C821D821E829C0155
:100A300040E050E060E077E883E993E00E94A41290
:100A40002F83388749875A876F81788589859A856A
:100A5000EA81F0E0EE0FFF1FEE0FFF1F8E010F5F28
:100A60001F4F11C08A818F5F8A838A81883008F086
:100A700093C06F81788589859A85EA81F0E0EE0FD1
:100A8000FF1FEE0FFF1FE00FF11F268537854089FE
:100A900051890E94A4122B873C874D875E878B85E6
:100AA0009C85AD85BE85803020E0920721E0A207BD
:100AB00020E0B207B8F680910008882309F461C0ED
:100AC00099818A81981709F45AC0109200086091A0
:100AD000200870912108EA81F0E0EE0FFF1FEE0F71
:100AE000FF1F8E010F5F1F4FE00FF11F80E090E0AE
:100AF00026853785408951890E945E126B837C83ED
:100B00008D839E836B817C818D819E81E981F0E064
:100B1000EE0FFF1FEE0FFF1FE00FF11F2685378539
:100B2000408951890E94A4122B833C834D835E83AC
:100B300010C08B819C81AD81BE812B853C854D850C
:100B40005E85821B930BA40BB50B8B839C83AD83BB
:100B5000BE832B813C814D815E818B859C85AD85DB
:100B6000BE8582179307A407B50718F38B819C8174
:100B7000AD81BE81E0E0F8E080A391A302C01092B5
:100B800000088B859C85AD85BE85E0E0F8E080A7F8
:100B900091A78A8180930008AE96CDBFDEBFCF912A
:100BA000DF911F910F9108950F931F93DF93CF93C0
:100BB000CDB7DEB7AE97CDBFDEBFDE011F96E0E05A
:100BC000F0E220E201900D922150E1F7209100081F
:100BD0002F70298321E02A831B821C821D821E82A2
:100BE0009C0140E050E060E078EA84ED95E50E94E9
:100BF000A4122F83388749875A876F817885898522
:100C00009A85EA81F0E0EE0FFF1FEE0FFF1F8E01C5
:100C10000F5F1F4F11C08A818F5F8A838A8188305E
:100C200008F0A1C06F81788589859A85EA81F0E016
:100C3000EE0FFF1FEE0FFF1FE00FF11F2685378518
:100C4000408951890E94A4122B873C874D875E877B
:100C50008B859C85AD85BE85803020E0920721E0A4
:100C6000A20720E0B207B8F680910008882309F4B3
:100C700061C099818A81981709F45AC010920008BE
:100C80006091200870912108EA81F0E0EE0FFF1FCB
:100C9000EE0FFF1F8E010F5F1F4FE00FF11F80E06F
:100CA00090E026853785408951890E945E126B83CA
:100CB0007C838D839E836B817C818D819E81E98184
:100CC000F0E0EE0FFF1FEE0FFF1FE00FF11F268574
:100CD0003785408951890E94A4122B833C834D8320
:100CE0005E8310C08B819C81AD81BE812B853C854C
:100CF0004D855E85821B930BA40BB50B8B839C8368
:100D0000AD83BE832B813C814D815E818B859C852B
:100D1000AD85BE8582179307A407B50718F38B81AD
:100D20009C81AD81BE81E0E0F8E080A391A302C088
:100D3000109200088B859C85AD85BE85E0E0F8E0CB
:100D400080A791A78B859C85AD85BE8568E170E005
:100D50000E947D1266A777A7809101088069818330
:100D60008A8180930008AE96CDBFDEBFCF91DF9120
:100D70001F910F910895EF92FF920F931F93CF93BE
:100D8000DF930E942202C0E0D0E00AE010E00E945F
:100D9000A9020E94DB00813091F40E941002882396
:100DA00039F0C8010197C817D907E0F421961AC095
:100DB00083E0073E1807B0F40F5F1F4F13C00E9477
:100DC000DB00823079F40E941002882321F0209702
:100DD00049F0219707C0CE0101968017910710F4C2
:100DE0000150104082E0BE01A8010E94DE007C019B
:100DF0000E941C02882311F0C70107C00E9416023E
:100E0000882311F0CE0101C0C8010E948201BFCF2A
:100E10000E94BB0680E090E00895809171218F3F91
:100E200031F0809171218F5F80937121089510922C
:100E3000712108950F93DF93CF93CDB7DEB7279736
:100E4000CDBFDEBF69834D832E830F83DE011296F3
:100E5000FE01359683E001900D928150E1F780917B
:100E600070218F3F31F0809170218F5F80937021CE
:100E700002C0109270212796CDBFDEBFCF91DF91C7
:100E80000F9108950F938091B10985FFFCCF409396
:100E9000B009623070F08091B10985FFFCCF2093DA
:100EA000B009633031F48091B10985FFFCCF009324
:100EB000B0090F91089582E791E20895CF93DF93EF
:100EC000C2E7D1E2CE010E94A509CE016DE077E034
:100ED0000E94010ACE016AE177E00E94A109DF9138
:100EE000CF910895FC014283638374831182108241
:100EF00008950F931F93CF93DF93EC01162F0E9459
:100F0000F307082F298130E0C90101966A8170E05A
:100F10000E949112488150E08417950729F4802F90
:100F20000E94F60780E013C0EB81FC81E20FF31F03
:100F30001083298130E02F5F3F4F6A81C90170E043
:100F40000E9491128983802F0E94F60781E0DF9131
:100F5000CF911F910F9108951F93CF93DF93EC01D1
:100F60000E94F30729819881291710F0122F02C0DF
:100F70001A81120F191B0E94F607812FDF91CF9162
:100F80001F910895FC01808190E0860F911D628180
:100F900070E00E9491120380F481E02DE80FF91FA8
:100FA000808108950F931F93DF93CF930F92CDB756
:100FB000DEB78C0169830E94F307482FF801208176
:100FC00030E06981260F311D6281C90170E00E9405
:100FD00091128083842F0E94F6070F90CF91DF91AA
:100FE0001F910F9108958FB7F89408958FBF0895BA
:100FF000881F8827881F089591E0883F08F490E0B3
:10100000892F0895282F30E0207F3070203B310554
:10101000F1F0213B310554F420393105C1F0203A7B
:101020003105A9F020383105E9F411C0203D310522
:10103000D9F0213D310524F4203C310599F414C048
:10104000203E310521F0203F310561F402C083E0EC
:101050000895E82FE15FEF3048F4F0E0E05CFF4DE9
:101060008081089580E0089582E0089580E00895E9
:101070000F93362F542F022F3F70306B5F770F770F
:10108000DC01ED91FC9163E070E0432F252F099581
:101090000F9108950F93362F542F022F3F70306910
:1010A0005F770F77DC01ED91FC9163E070E0432FF7
:1010B000252F09950F9108950F93362F542F022F46
:1010C0003F7030685F770F77DC01ED91FC9163E052
:1010D00070E0432F252F09950F9108950F93362F18
:1010E000542F022F3F70306A5F770F77DC01ED914C
:1010F000FC9163E070E0432F252F09950F9108952F
:101100000F931F938A0120E2403052073CF4A0EE77
:1011100040305A0734F00050104E05C00FEF1FE367
:1011200002C000E010E0462F4F70406E202F2F7756
:10113000000F012F001F110B11950F77DC01ED91AE
:10114000FC9163E070E009951F910F9108950F9352
:10115000362F242F3F70306C2F77DC01ED91FC91FE
:1011600062E070E0432F00E009950F9108950F931E
:10117000362F242F3F70306D2F77DC01ED91FC91DD
:1011800062E070E0432F00E009950F9108950F93FE
:10119000DC01ED91FC9161E070E048EF20E000E0BF
:1011A00009950F9108950F93DC01ED91FC9161E099
:1011B00070E049EF20E000E009950F9108950F934A
:1011C000DC01ED91FC9161E070E04AEF20E000E08D
:1011D00009950F9108950F93DC01ED91FC9161E069
:1011E00070E04BEF20E000E009950F9108950F9318
:1011F000DC01ED91FC9161E070E04CEF20E000E05B
:1012000009950F9108950F93DC01ED91FC9161E038
:1012100070E04EEF20E000E009950F9108950F93E4
:10122000DC01ED91FC9161E070E04FEF20E000E027
:1012300009950F9108950F93262F2F77DC01ED91DB
:10124000FC9162E070E041EF00E009950F91089594
:101250000F931F93262F2F778B01000F012F001F55
:10126000110B11950F77DC01ED91FC9163E070E0BB
:1012700042EF09951F910F9108950F93262F2F7715
:10128000DC01ED91FC9162E070E043EF00E0099534
:101290000F9108950F93DC01ED91FC9161E070E0F6
:1012A00046EF20E000E009950F9108950F93462F37
:1012B000DC01ED91FC9161E070E020E000E0099537
:1012C0000F9108950F93DC01ED91FC9109950F9119
:1012D0000895FC01628373830895FC016483758320
:1012E0000895FC01668377830895FC016087718708
:1012F0000895FC01628773870895FC0164877587F0
:101300000895FC01668777870895FC01608B718BD7
:101310000895FC01628B738B0895FC01648B758BBF
:101320000895FC01668B778B0895FC01608F718FA7
:101330000895FC01628F738F0895FC01648F758F8F
:101340000895FC01668F778F0895CF93DF93EC01AA
:101350001DA21EA21FA2BC01685D7F4F88519F4F36
:1013600040EC0E9472071A821B821C821D821E8220
:101370001F82188619861A861B861C861D861E8665
:101380001F86188A198A1A8A1B8A1C8A1D8A1E8A35
:101390001F8A188E198E1A8E1B8E1C8E1D8E1E8E05
:1013A0001F8E18A219A2DF91CF910895CF92DF92DC
:1013B000FF920F931F93DF93CF930F92CDB7DEB7BA
:1013C000F62EE42FF52F6F018C0108511F4F08C036
:1013D000F60161916F01C80149830E947907498133
:1013E0008C2D841B8F15A0F30F90CF91DF911F914F
:1013F0000F91FF90DF90CF900895FC01608371837F
:101400000895FC0160A371A30895CF92DF92EF923B
:10141000FF920F931F93CF93DF93EC016B01142F77
:10142000E22EF02E8DA1843031F4EA8DFB8D3097C1
:1014300009F083C095C06230710509F442C0633081
:10144000710529F06130710509F073C060C0842F07
:1014500090E0807F9070803A9105E1F0813A9105AB
:101460003CF48038910599F080399105F9F40CC06D
:10147000803E910591F0803F910591F0803B910570
:10148000A9F4EA81FB8114C0EC81FD8111C0EE81D9
:10149000FF810EC0E885F9850BC0EA85FB8508C091
:1014A000423F09F05DC0EC85FD8502C0E0E0F0E060
:1014B000309709F455C0CE01612F4E2D2F2D09957F
:1014C00042C0842F90E0807F9070803D910549F06C
:1014D000803F910549F0803C910581F4EE85FF85C0
:1014E0000FC0E889F9890CC0433F19F4EA89FB89E8
:1014F00007C0413FA9F5EC89FD8902C0E0E0F0E0BA
:10150000309771F1CE01612F4E2D09951CC0842FAB
:101510000E94FC07882319F0EE89FF8904C0163F5A
:10152000F9F4E88DF98D3097D9F0CE01612F099546
:101530000AC06430710590F413C0CE01B601412F8A
:101540002E2D0F2D0995EE8DFF8D309771F0CE0168
:10155000B601412F2E2D0F2D099507C0CC24DD2477
:10156000EC8DFD8D309749F7EECFDF91CF911F9134
:101570000F91FF90EF90DF90CF900895EF92FF9240
:101580000F931F93CF93DF93EC01162F862F0E94AA
:10159000FC07882369F0EDA081E08DA3CE0161E016
:1015A00070E0412F20E000E00E94050AEDA27EC01D
:1015B000812F0E94F8074DA1882309F442C04430CE
:1015C00029F01AA381E090E08EA39FA3812F0E94AF
:1015D0000208813039F0813078F0823059F0833060
:1015E00061F508C08DA3CE0161E070E0412F20E0DD
:1015F00000E01FC08DA35AC0103F19F0173FE9F457
:1016000004C084E08DA31AA33FC02EA13FA1C9014D
:1016100063E070E00E947D128C0F9D1FFC0112A3FD
:10162000B9016F5F7F4F6EA37FA3CE014AA12BA1AB
:101630000CA10E94050A1DA239C01DA21EA21FA254
:1016400035C0442399F12EA13FA1C90163E070E0A8
:101650000E947D127C01FE01E80FF91F12A3B9015F
:101660006F5F7F4F6EA37FA38130910591F082E081
:10167000E816F104D9F4CE014AA12BA10CA10E94D5
:10168000050A8DA1843091F081E090E08EA39FA3A4
:101690000DC0423059F4CE014AA12BA100E00E94B6
:1016A000050A8DA1843011F0EEA2FFA2DF91CF9147
:1016B0001F910F91FF90EF900895EF92FF920F937B
:1016C0001F93DF93CF9300D00F92CDB7DEB78C017D
:1016D000DC019096ED91FC919197309709F0099576
:1016E00088EEE82EF12CE00EF11EC7010E94AC0737
:1016F00089831A821B8211C0C70160E00E94C20761
:10170000682FC8010E94BE0AC70161E00E94D2078B
:101710008A819B8101968A839B832A813B8189816F
:1017200090E02817390740F32396CDBFDEBFCF9155
:10173000DF911F910F91FF90EF900895EF92FF922C
:101740000F931F937B018C0120E030E040E05FE4C9
:101750000E944A0F87FD11C0C801B70120E030E0A8
:1017600040E05FE40E94410D0E94AA0F9B01AC0182
:10177000205030404040504806C0C801B7010E9488
:10178000AA0F9B01AC01B901CA011F910F91FF90F3
:10179000EF900895A0E0B0E0E0EDFBE00C94CA12F9
:1017A000FC01EA018081823008F438C1DB019C91A0
:1017B000923008F430C1843059F4943009F02EC1CD
:1017C000918111968C911197981709F021C126C12A
:1017D000943009F420C19230B1F4823009F01EC176
:1017E000CA01AF0128E0DA010D90AD01DC010D92D4
:1017F000CD012150C1F7DB0111968C911197918198
:10180000892389830AC1823009F405C1C280D3804B
:10181000DB0112966D907C9013972481358146816F
:1018200057811496ED90FD900D911C911797C6016C
:10183000861997095C0197FF04C0AA24BB24A81A43
:10184000B90AB0E2AB16B1040CF061C01816190663
:101850006CF5370148010A2C04C09694879477945C
:1018600067940A94D2F781E090E0A0E0B0E00A2CFF
:1018700004C0880F991FAA1FBB1F0A94D2F70197B3
:10188000A109B1098E219F21A023B123EE24FF24B9
:101890008701E3940097A105B10519F4EE24FF2414
:1018A0008701E628F728082919293CC00097D1F1BB
:1018B000CA0CDB1C39014A010A2C04C09694879497
:1018C000779467940A94D2F781E090E0A0E0B0E0CA
:1018D0000A2C04C0880F991FAA1FBB1F0A94D2F7B5
:1018E0000197A109B10982239323A423B52321E001
:1018F00030E040E050E00097A105B10519F420E088
:1019000030E0A90126293729482959290BC06C1430
:101910007D0424F4EE24FF24870104C0630120E049
:1019200030E0A9018181FB019181891709F445C04B
:10193000882349F0D801C701821B930BA40BB50B78
:101940009C01AD0104C02E193F09400B510B57FDFE
:1019500004C01982CA82DB820BC081E08983CA82FB
:10196000DB8250954095309521953F4F4F4F5F4F0B
:101970002C833D834E835F830DC0880F991FAA1F60
:10198000BB1F8C839D83AE83BF838A819B8101971C
:101990008A839B838C819D81AE81BF819C01AD0137
:1019A00021503040404050402F3FEFEF3E07EFEFD7
:1019B0004E07EFE35E0708F30BC08983CA82DB8220
:1019C0002E0D3F1D401F511F2C833D834E835F838F
:1019D00083E088832C813D814E815F8157FF1DC04C
:1019E000DA01C90181709070A070B070569547956A
:1019F00037952795822B932BA42BB52B8C839D8316
:101A0000AE83BF838A819B8101968A839B8305C0B5
:101A1000EFE4F0E203C0FB0101C0FE01CF01CDB74E
:101A2000DEB7EEE00C94E312A0E2B0E0EAE1FDE004
:101A30000C94D21269837A838B839C832D833E839B
:101A40004F83588789E0E82EF12CEC0EFD1ECE0165
:101A50000196B7010E949C118E010F5E1F4FCE01AF
:101A60000596B8010E949C11C701B801AE01475EFE
:101A70005F4F0E94CA0B0E94CE10A096E6E00C9425
:101A8000EB12A0E2B0E0E7E4FDE00C94D21269832F
:101A90007A838B839C832D833E834F8358878E016B
:101AA000075F1F4FCE010196B8010E949C1191E182
:101AB000E92EF12CEC0EFD1ECE010596B7010E9419
:101AC0009C118A8991E089278A8BC801B701AE01F0
:101AD000475E5F4F0E94CA0B0E94CE10A096E6E0C0
:101AE0000C94EB12A0E2B0E0E8E7FDE00C94C61223
:101AF00069837A838B839C832D833E834F835887AE
:101B0000CE010196BE01675F7F4F0E949C11CE01FE
:101B10000596BE016F5E7F4F0E949C1199859230A1
:101B200078F089898230C0F0943019F4823041F421
:101B3000CBC0843019F4923079F4C6C0923051F49D
:101B400081E02A859A89291709F480E08A87CE01E5
:101B50000996BCC0823051F481E02A859A89291700
:101B600009F480E08A8BCE014196B0C06D847E84FA
:101B70008F849888ED88FE880F89188DE0E2F0E068
:101B800080E090E0DC01AA24BB24650120E030E085
:101B9000A901B3016170707061157105D1F02E0D4E
:101BA0003F1D401F511F15012601280E391E4A1ED8
:101BB0005B1E81E090E0A0E0B0E02E153F054007FD
:101BC000510718F080E090E0DC01820D931DA41D08
:101BD000B51DAA0CBB1CCC1CDD1C17FF09C061E0A5
:101BE000262E312C412C512CA228B328C428D528CC
:101BF000319749F0EE0CFF1C001F111F969487943B
:101C000077946794C6CF6B897C89EB85FC856E0FD2
:101C10007F1F6E5F7F4F6B8F7C8F61E0EA857A89D3
:101C2000E71709F460E06A8F6B8D7C8D10C0FC01B2
:101C3000E170F070309729F05695479537952795C4
:101C40005068B695A795979587956F5F7F4FB7FDBD
:101C5000EECF0CC0880F991FAA1FBB1F57FD8160D4
:101C6000220F331F441F551F615070408030E0E049
:101C70009E07E0E0AE07E0E4BE0760F36B8F7C8F69
:101C80006FE7E62EF12C012D112DE822F9220A230F
:101C90001B2360E4E616F1040105110561F487FDDC
:101CA0000AC0211531054105510529F0805C9F4F7F
:101CB000AF4FBF4F80788D8F9E8FAF8FB8A383E0DB
:101CC000898FCE01499602C08FE490E20E94CE1027
:101CD000A096E2E10C94DF12A8E1B0E0E2E7FEE0BA
:101CE0000C94CE1269837A838B839C832D833E83ED
:101CF0004F8358878E01075F1F4FCE010196B801B1
:101D00000E949C1181E1E82EF12CEC0EFD1ECE010B
:101D10000596B7010E949C119985923008F483C002
:101D20008989823008F47BC02A853A8923272A874B
:101D3000943011F0923021F4981709F06CC071C002
:101D4000843039F41D861E861F86188A1B861C86E1
:101D50006AC0823019F484E0898765C08B859C85D0
:101D60002B893C89821B930B8B879C872D853E8515
:101D70004F855889ED88FE880F89188D2E153F05EF
:101D80004007510738F4220F331F441F551F019796
:101D90008B879C876FE170E0A12CB12CC12CA0E453
:101DA000DA2E80E090E0DC012E153F054007510758
:101DB00040F08A299B29AC29BD292E193F09400BE7
:101DC000510BD694C794B794A794220F331F441F86
:101DD000551F6150704041F76FE7E62EF12C012D41
:101DE000112DE822F9220A231B2360E4E616F104F0
:101DF0000105110561F487FD0AC021153105410572
:101E0000510529F0805C9F4FAF4FBF4F80788D8781
:101E10009E87AF87B88B8E01075F1F4F04C0870175
:101E200002C00FE410E2C8010E94CE106896EAE0FA
:101E30000C94E712A8E1B0E0E0E2FFE00C94D212CB
:101E400069837A838B839C832D833E834F8358875A
:101E50008E01075F1F4FCE010196B8010E949C11B1
:101E600081E1E82EF12CEC0EFD1ECE010596B701A6
:101E70000E949C118985823040F08989823028F047
:101E8000C801B7010E94051201C08FEF6896E6E015
:101E90000C94EB12A8E1B0E0E0E5FFE00C94D21264
:101EA00069837A838B839C832D833E834F835887FA
:101EB0008E01075F1F4FCE010196B8010E949C1151
:101EC00081E1E82EF12CEC0EFD1ECE010596B70146
:101ED0000E949C118985823040F08989823028F0E7
:101EE000C801B7010E94051201C08FEF6896E6E0B5
:101EF0000C94EB12A8E1B0E0E0E8FFE00C94D21201
:101F000069837A838B839C832D833E834F83588799
:101F10008E01075F1F4FCE010196B8010E949C11F0
:101F200081E1E82EF12CEC0EFD1ECE010596B701E5
:101F30000E949C118985823040F08989823028F086
:101F4000C801B7010E94051201C081E06896E6E071
:101F50000C94EB12ACE0B0E0E0EBFFE00C94D61296
:101F600069837A838B839C83CE010196BE016B5F6C
:101F70007F4F0E949C118D81823081F1823070F1FF
:101F8000843021F48E81882369F10AC02F8138853D
:101F900037FD24C06E812F3131053CF0662311F1ED
:101FA00020E030E040E050E821C08EE190E0821B6C
:101FB000930B29853A854B855C8504C056954795DA
:101FC000379527958A95D2F7662381F050954095ED
:101FD000309521953F4F4F4F5F4F08C020E030E0D4
:101FE000A90104C02FEF3FEF4FEF5FE7B901CA012E
:101FF0002C96E2E00C94EF12A8E0B0E0E2E0F0E111
:102000000C94D0127B018C011A8261157105810537
:10201000910519F482E089835FC083E089838EE1B2
:10202000C82ED12CCB82DC82ED82FE820F831887F2
:10203000C801B7010E947410FC013197F7FF3AC044
:10204000AA27BB27AE1BBF0B21E030E040E050E0E9
:102050000A2E04C0220F331F441F551F0A94D2F7C3
:1020600021503040404050402E213F2140235123F9
:1020700061E070E080E090E02115310541055105F7
:1020800019F460E070E0CB0104C016950795F79451
:10209000E794AA95D2F7E62AF72A082B192BED82A6
:1020A000FE820F8318878EE190E08E1B9F0B8B833F
:1020B0009C8312C0309781F00E2E04C0EE0CFF1CE2
:1020C000001F111F0A94D2F7ED82FE820F8318873A
:1020D000CE1ADF0ACB82DC82CE0101960E94CE109E
:1020E0002896E8E00C94E912AF92BF92CF92DF926B
:1020F000EF92FF920F931F937B018C0180E0E81613
:1021000080E0F80681E0080780E0180758F4EFEF58
:10211000EE16F1040105110509F090F480E090E05D
:10212000DC0117C0F0E0EF16F0E0FF06F0E00F076B
:10213000F1E01F0750F480E190E0A0E0B0E009C0BA
:1021400088E090E0A0E0B0E004C088E190E0A0E08A
:10215000B0E020E230E040E050E0281B390B4A0BB1
:102160005B0B5701680104C0D694C794B794A79439
:102170008A95D2F7D601C501895A9F4DFC0180810D
:10218000281B310941095109C9011F910F91FF9085
:10219000EF90DF90CF90BF90AF900895EF92FF92B5
:1021A0000F931F93CF93DF93FC01248135814681E8
:1021B000578161818081823020F44061EFEFF0E04F
:1021C000A3C0843009F49BC0823009F492C0211569
:1021D00031054105510509F48FC00280F381E02DDE
:1021E0008FEFE238F8070CF05AC0C2E8DFEFCE1BE1
:1021F000DF0BCA31D1056CF579018A010C2E04C0C0
:1022000016950795F794E7940A94D2F781E090E049
:10221000A0E0B0E00C2E04C0880F991FAA1FBB1FBE
:102220000A94D2F70197A109B10982239323A42329
:10223000B52321E030E040E050E00097A105B10572
:1022400019F420E030E0A9012E293F29402B512B21
:1022500003C020E030E0A901DA01C9018F77907056
:10226000A070B07080349105A105B10539F427FF45
:1022700009C0205C3F4F4F4F5F4F04C0215C3F4F70
:102280004F4F5F4FE1E0F0E0203080E0380780E022
:10229000480780E4580728F5E0E0F0E022C0E03885
:1022A000F1056CF5E158FF4FDA01C9018F779070A5
:1022B000A070B07080349105A105B10539F427FFF5
:1022C00009C0205C3F4F4F4F5F4F04C0215C3F4F20
:1022D0004F4F5F4F57FF05C0569547953795279548
:1022E000319687E056954795379527958A95D1F78A
:1022F0000BC0E0E0F0E005C0E0E0F0E005C0EFEF8B
:10230000F0E020E030E0A9018E2F8795882787959F
:10231000942F9F77679566276795E695E22EA92FFC
:10232000A82BFE2FF62B622F732F8A2F9F2FCDB74E
:10233000DEB7E6E00C94EB12DC01FB012C91119668
:102340003C91119712968C911297482F4F7750E03D
:10235000982F991F9927991F13966C911397862F81
:10236000880F892B90E0661F6627661F61830097A0
:1023700039F5211531054105510511F482E029C0D7
:1023800082E89FEF8283938367E0220F331F441F0D
:10239000551F6A95D1F783E0808309C0220F331F50
:1023A000441F551F8281938101978283938320303C
:1023B00080E0380780E0480780E4580778F320C0C1
:1023C0008F3F910579F4211531054105510519F427
:1023D00084E08083089544FF03C081E0808310C0BF
:1023E00010820EC08F5790408283938383E0808356
:1023F00087E0220F331F441F551F8A95D1F7506481
:1024000024833583468357830895FC01DB01908143
:10241000923008F449C08C91823008F445C0943061
:1024200051F461818430B1F511962C91119730E00F
:10243000261B310941C0843021F0923041F48230B2
:10244000B1F111968C9111978823A1F12DC0618172
:10245000823001F111968C9111976817D9F422817D
:10246000338112968D919C9113978217930794F064
:1024700028173907BCF0248135814681578114968D
:102480008D919D910D90BC91A02D82179307A4076B
:10249000B50718F4662341F00DC0281739074A071D
:1024A0005B0728F4662331F021E030E005C020E02E
:1024B00030E002C02FEF3FEFC9010895629FD001C5
:1024C000739FF001829FE00DF11D649FE00DF11DEF
:1024D000929FF00D839FF00D749FF00D659FF00D9E
:1024E0009927729FB00DE11DF91F639FB00DE11D8B
:1024F000F91FBD01CF0111240895AA1BBB1B51E197
:1025000007C0AA1FBB1FA617B70710F0A61BB70B63
:10251000881F991F5A95A9F780959095BC01CD0108
:10252000089597FB092E07260AD077FD04D0E5DF32
:1025300006D000201AF4709561957F4F0895F6F744
:10254000909581959F4F0895A1E21A2EAA1BBB1B5F
:10255000FD010DC0AA1FBB1FEE1FFF1FA217B3076F
:10256000E407F50720F0A21BB30BE40BF50B661F85
:10257000771F881F991F1A9469F760957095809549
:1025800090959B01AC01BD01CF0108952F923F9220
:102590004F925F926F927F928F929F92AF92BF9273
:1025A000CF92DF92EF92FF920F931F93CF93DF931F
:1025B000CDB7DEB7CA1BDB0BCDBFDEBF09942A88BF
:1025C000398848885F846E847D848C849B84AA8447
:1025D000B984C884DF80EE80FD800C811B81AA81D4
:1025E000B981CE0FD11DCDBFDEBFED010895F894A6
:0225F000FFCF1B
:1025F20000000000010000000200000004000000D2
:10260200080000004000000000010000000400007B
:1026120000000000010000000200000004000000B1
:10262200080000004000000000010000000400005B
:102632000203020000010001010101010001010089
:102642000000000000000000010202030303030473
:10265200040404040404040505050505050505052F
:10266200050505050505050606060606060606060F
:1026720006060606060606060606060606060606F8
:1026820006060606060606070707070707070707DF
:1026920007070707070707070707070707070707C8
:1026A20007070707070707070707070707070707B8
:1026B20007070707070707070707070707070707A8
:1026C200070707070707070808080808080808088F
:1026D2000808080808080808080808080808080878
:1026E2000808080808080808080808080808080868
:1026F2000808080808080808080808080808080858
:102702000808080808080808080808080808080847
:102712000808080808080808080808080808080837
:102722000808080808080808080808080808080827
:102732000808080808080808080808080808080817
:08274200080808080808080057
:00000001FF
