:100000000C94BC000C94D9000C94D9000C94D90029
:100010000C94D9000C94D9000C94D9000C94D900FC
:100020000C94D9000C94D9000C94D9000C94D900EC
:100030000C94D9000C94D9000C94D9000C94D900DC
:100040000C94D9000C94D9000C94D9000C94D900CC
:100050000C94D9000C94D9000C94D9000C94D900BC
:100060000C94D9000C94D9000C94D9000C94D900AC
:100070000C94D9000C94D9000C94D9000C94D9009C
:100080000C94D9000C94D9000C94D9000C94D9008C
:100090000C94D9000C94D9000C94D9000C94D9007C
:1000A0000C94D9000C94D9000C94D9000C94D9006C
:1000B0000C94D9000C94D9000C94D9000C94D9005C
:1000C0000C94D9000C94D9000C94D9000C94D9004C
:1000D0000C94D9000C94D9000C94D9000C94D9003C
:1000E0000C94D9000C94D9000C94D9000C94D9002C
:1000F0000C94D9000C94D9000C94D9000C94D9001C
:100100000C94D9000C94D9000C94D9000C94D9000B
:100110000C94D9000C94D9000C94D9000C94D900FB
:100120000C94D9000C94D9000C94D9000C94D900EB
:100130000C94D9000C94D9000C94D9000C94D900DB
:100140000C94D9000C94D9000C94D9000C94D900CB
:100150000C94D9000C94D9000C94D9000C94D900BB
:100160000C94D9000C94D9000C94D9000C94DB00A9
:100170000C94D9000C94D90011241FBECFEFD7E204
:10018000DEBFCDBF11E2A8E0B1E201C01D92AB32EB
:10019000B107E1F711E2A0E0B0E2E2EFF7E102C05F
:1001A00005900D92A830B107D9F70E943A050C943A
:1001B000F70B0C9400001F920F920FB60F921124B0
:1001C0008F938091B00980932A218F910F900FBE59
:1001D0000F901F901895CF93DF93E0E4F0E061E07B
:1001E00084E0C0E5D0E05BE848E0A0E5B0E032ECB8
:1001F00028E198ED15C0618383835A8340935000B2
:100200007091510073FFFCCF15963C931597209386
:1002100050007091510074FFFCCF94BF8093400058
:1002200070914000743039F7DF91CF910895F894C0
:10023000E0E6F6E080E4828380E881838583E0EB7A
:10024000F9E080E2838383E085838FE286831782EF
:1002500088E18483E0EAF0E082818260828378949E
:100260000895F894E0E6F6E090E4928390E89183B4
:100270009583E0EBF9E090E2938393E095838683A6
:10028000178288E18483E0EAF0E0828182608283E1
:100290007894089583E0E0E2F6E082830895809107
:1002A000280641E080FD40E060912806842F90E020
:1002B0002091272151E0252730E0822393230097C6
:1002C00081F0862F869580FD03C05093282102C0BF
:1002D000109228218091282191E08927809329215B
:1002E00004C01092282110922921409327210895BB
:1002F00089EFE0E0F6E08283E0E0F2E01082118234
:1003000080E28283138214821682808181608083DE
:1003100081E080A311A212A20895EDE1F1E223E0B1
:1003200030E0A0E0B2E080912302816093968C934C
:10033000939780912102877C91968C9391976091FD
:100340002102C90143E0880F991F4A95E1F7682B04
:1003500091966C93919780912002806890968C93EF
:1003600090978091230280FFFCCF8091240290918E
:100370002502592F40E090E0842B952B80839183B8
:10038000803C910518F41082118204C0805C90407A
:10039000808391832F5F3F4F32962830310519F6C5
:1003A0000895CF92DF92EF92FF920F931F93CF9316
:1003B000DF93EB016A01E82FF0E0EE0FFF1FE35E31
:1003C000FE4D6081718180E090E00E943D0920E057
:1003D00030EF43E755E40E940D087B018C01CC1AF5
:1003E000DD0AB60180E090E00E943D099B01AC016E
:1003F000C801B7010E9413078B01C82EE92EBE0168
:1004000080E090E00E943D099B01AC01602F712FBC
:100410008C2D9E2D0E94B5060E943F05CB01DF91D9
:10042000CF911F910F91FF90EF90DF90CF900895A3
:10043000E0E0F6E086E081838583A0E4B6E088EF23
:1004400011968C931197E0E6F6E08FE3818388E3C1
:10045000858390EF15969C931597868387E0868316
:1004600088E015968C93159708952F923F924F929E
:100470005F926F927F928F929F92AF92BF92CF9234
:10048000DF92EF92FF920F931F93DF93CF9300D0F1
:100490000F92CDB7DEB79091122180911321209158
:1004A000112129839A838B83E0911B21F0911C21D8
:1004B0006E010894C11CD11C22E030E05AE0E52E08
:1004C000F12C43E0442E512C98E0292E312C00E6EB
:1004D00016E080E4A82E86E0B82EB0EF8B2EA1E0C7
:1004E0006A2E712CCF01B7010E949F0B982E309776
:1004F00021F4223011F07AE0972EC901B2010E9456
:10050000B30BA101082E02C0440F551F0A94E2F755
:10051000D80116964C93D50116968C921697929404
:1005200060EF962215969C9248E3D80115964C935D
:10053000D6019D916D01992359F0A30102C0440F8A
:10054000551F8A95E2F7D80115964C9315970AC066
:10055000A30102C0440F551F8A95E2F7D8011696F1
:100560004C9316972F5F3F4F2530310531F0CF0167
:10057000B7010E949F0BFB01B5CF80911421882306
:1005800029F088E0E0E4F6E0868304C088E0E0E457
:10059000F6E085832396CDBFDEBFCF91DF911F911B
:1005A0000F91FF90EF90DF90CF90BF90AF909F9012
:1005B0008F907F906F905F904F903F902F90089515
:1005C0008CE0E0E2F6E0828388E0E0E8F6E0828317
:1005D0000895EF92FF920F931F93CF93DF93809133
:1005E000880686958695869591E009F090E0809141
:1005F00028068695869580FD02C082E001C080E0D5
:10060000E82EE92A8091280686958695869580FDB4
:1006100002C084E001C080E0E82AE09216216091E7
:10062000152170E0F0901721E8E1F1E280E090E020
:100630004E2D50E021E030E0A82F8A01082E02C0A4
:10064000159507950A94E2F7EB01082E02C0D5959F
:10065000C7950A94E2F70C171D0721F4B081BF5F1C
:10066000B08301C01082B081B93068F0E90102C0E6
:10067000CC0FDD1FAA95E2F7DE01BC2FB095FB225F
:10068000AE21FA2A10820196319683309105A1F6A7
:10069000F0921721E092152180910E21F0FE0EC0FC
:1006A00010921021882319F010920F2103C081E0CD
:1006B00080930F2181E080930E210CC010920F21B6
:1006C000882321F081E08093102102C01092102134
:1006D00010920E2180910821F1FE0EC010920A2185
:1006E000882319F01092092103C081E08093092129
:1006F00081E0809308210CC010920921882321F009
:1007000081E080930A2102C010920A2110920821F0
:1007100080910B21F2FE0EC010920D21882319F05A
:1007200010920C2103C081E080930C2181E0809322
:100730000B210CC010920C21882321F081E08093C2
:100740000D2102C010920D2110920B21DF91CF914B
:100750001F910F91FF90EF900895CF93DF930E9428
:1007600018020E94E00284EF91E080931B21909395
:100770001C21C7EED3E00E94E90280910B218093F7
:100780001121809108218093122180910E21809364
:1007900013218823B9F080910921882349F08091A1
:1007A0001B2190911C210A9680931B2190931C2160
:1007B00080910C21882301F180911B2190911C21B3
:1007C000019616C080910A21882349F080911B214F
:1007D00090911C210A9780931B2190931C2180915A
:1007E0000D21882349F080911B2190911C210197B4
:1007F00080931B2190931C2180911B2190911C219F
:1008000023E0883E920720F010921B2110921C21B9
:1008100080911B2190911C21009721F4C0931B21F2
:10082000D0931C210E943502A6CF1F930E9418026C
:100830000E94E0020E94780110E00E94E9020E94FA
:100840008D01812F61E070E04EED53E00E94D101F7
:1008500080931B2190931C2180910C21882321F0EF
:100860001F5F153008F010E00E943502E6CF0E94AD
:1008700018020E94E0020E94780183E0E0E2F6E0C4
:10088000828384E690E080931B2190931C210E9438
:10089000E9020E948D010E944F0180912821882346
:1008A00031F080911B2190911C21019609C080910B
:1008B0002921882349F080911B2190911C210197C7
:1008C00080931B2190931C2180910B2180931421F4
:1008D0000E943502DCCFEF92FF920F931F93CF93CC
:1008E000DF930E94EB000E9418020E9417010E94F1
:1008F00078010E94E00283E0E0E2F6E08283EE24E9
:10090000C0E0D1E060EBF62E07E318EF0E94E902A9
:100910000E948D010E944F0180910B218093132131
:1009200010921221109211211092142180912921EC
:10093000882349F08E2D90E00197BE010E94B30BF1
:10094000E82E81E001C080E090912821992311F0E8
:10095000E39402C0882321F08E2D0E94310181E0B2
:1009600090910C21992361F4813029F58091B1098E
:1009700085FFFCCF81E0809312211093B0091BC04A
:100980008091B10985FFFCCF81E080931221F09224
:10099000B0098091B10985FFFCCF81E080931121DE
:1009A0008093B0098091B10985FFFCCF81E08093ED
:1009B00014210093B009E0921B2110921C210E9487
:1009C0003502A4CF0E94EB0083E0E0E2F6E08283F0
:1009D0000E9418020E94E0020E9478010E94170102
:1009E0000E948D010E944F010E94E90280E068EFA1
:1009F00070E04DEF50E00E94D101909109219923C0
:100A000031F09091B10995FFFCCF8093B00990919E
:100A100008219093142180931B2110921C210E9485
:100A20003502DECF0E94EB0083E0E0E2F6E0828355
:100A30000E9418020E94E0020E9478010E941701A1
:100A40000E948D010E944F010E94E90280912A219B
:100A500080931B2110921C210E943502F1CF0E942D
:100A6000EB0088EFE0E4F6E0818381E0E0EBF0E08A
:100A70008483FFCF0E94E20480E090E00895EF922B
:100A8000FF920F931F937B018C0120E030E040E048
:100A90005FE40E94BB0887FD11C0C801B70120E0D8
:100AA00030E040E05FE40E94E2060E94EB089B0118
:100AB000AC01205030404040504806C0C801B7014A
:100AC0000E94EB089B01AC01B901CA011F910F9173
:100AD000FF90EF900895A0E0B0E0E1E7F5E00C941E
:100AE000CA0BFC01EA018081823008F438C1DB01C5
:100AF0009C91923008F430C1843059F4943009F05C
:100B00002EC1918111968C911197981709F021C1EE
:100B100026C1943009F420C19230B1F4823009F03A
:100B20001EC1CA01AF0128E0DA010D90AD01DC0160
:100B30000D92CD012150C1F7DB0111968C911197D7
:100B40009181892389830AC1823009F405C1C28059
:100B5000D380DB0112966D907C90139724813581B0
:100B6000468157811496ED90FD900D911C91179739
:100B7000C601861997095C0197FF04C0AA24BB240B
:100B8000A81AB90AB0E2AB16B1040CF061C018168D
:100B900019066CF5370148010A2C04C09694879415
:100BA000779467940A94D2F781E090E0A0E0B0E0F7
:100BB0000A2C04C0880F991FAA1FBB1F0A94D2F7E2
:100BC0000197A109B1098E219F21A023B123EE2411
:100BD000FF248701E3940097A105B10519F4EE24E1
:100BE000FF248701E628F728082919293CC0009727
:100BF000D1F1CA0CDB1C39014A010A2C04C09694BD
:100C00008794779467940A94D2F781E090E0A0E00B
:100C1000B0E00A2C04C0880F991FAA1FBB1F0A94BA
:100C2000D2F70197A109B10982239323A423B52305
:100C300021E030E040E050E00097A105B10519F453
:100C400020E030E0A90126293729482959290BC07D
:100C50006C147D0424F4EE24FF24870104C0630196
:100C600020E030E0A9018181FB019181891709F41D
:100C700045C0882349F0D801C701821B930BA40B00
:100C8000B50B9C01AD0104C02E193F09400B510B5F
:100C900057FD04C01982CA82DB820BC081E08983C0
:100CA000CA82DB8250954095309521953F4F4F4F3A
:100CB0005F4F2C833D834E835F830DC0880F991F48
:100CC000AA1FBB1F8C839D83AE83BF838A819B81B8
:100CD00001978A839B838C819D81AE81BF819C011A
:100CE000AD0121503040404050402F3FEFEF3E07D4
:100CF000EFEF4E07EFE35E0708F30BC08983CA826C
:100D0000DB822E0D3F1D401F511F2C833D834E83E0
:100D10005F8383E088832C813D814E815F8157FF13
:100D20001DC0DA01C90181709070A070B070569535
:100D3000479537952795822B932BA42BB52B8C8326
:100D40009D83AE83BF838A819B8101968A839B8327
:100D500005C0E0E0F0E203C0FB0101C0FE01CF01ED
:100D6000CDB7DEB7EEE00C94E30BA0E2B0E0EBEB26
:100D7000F6E00C94D20B69837A838B839C832D835A
:100D80003E834F83588789E0E82EF12CEC0EFD1E40
:100D9000CE010196B7010E94DD0A8E010F5E1F4F42
:100DA000CE010596B8010E94DD0AC701B801AE0167
:100DB000475E5F4F0E946B050E940F0AA096E6E017
:100DC0000C94EB0BA0E2B0E0E8EEF6E00C94D20B52
:100DD00069837A838B839C832D833E834F835887DB
:100DE0008E01075F1F4FCE010196B8010E94DD0AF8
:100DF00091E1E92EF12CEC0EFD1ECE010596B70116
:100E00000E94DD0A8A8991E089278A8BC801B7018F
:100E1000AE01475E5F4F0E946B050E940F0AA096CD
:100E2000E6E00C94EB0BA0E2B0E0E9E1F7E00C9413
:100E3000C60B69837A838B839C832D833E834F8388
:100E40005887CE010196BE01675F7F4F0E94DD0A81
:100E5000CE010596BE016F5E7F4F0E94DD0A998527
:100E6000923078F089898230C0F0943019F4823061
:100E700041F4CBC0843019F4923079F4C6C092307A
:100E800051F481E02A859A89291709F480E08A873C
:100E9000CE010996BCC0823051F481E02A859A893E
:100EA000291709F480E08A8BCE014196B0C06D8489
:100EB0007E848F849888ED88FE880F89188DE0E203
:100EC000F0E080E090E0DC01AA24BB24650120E092
:100ED00030E0A901B3016170707061157105D1F046
:100EE0002E0D3F1D401F511F15012601280E391ED2
:100EF0004A1E5B1E81E090E0A0E0B0E02E153F05A9
:100F00004007510718F080E090E0DC01820D931D4E
:100F1000A41DB51DAA0CBB1CCC1CDD1C17FF09C0F1
:100F200061E0262E312C412C512CA228B328C42854
:100F3000D528319749F0EE0CFF1C001F111F969425
:100F4000879477946794C6CF6B897C89EB85FC8501
:100F50006E0F7F1F6E5F7F4F6B8F7C8F61E0EA8526
:100F60007A89E71709F460E06A8F6B8D7C8D10C079
:100F7000FC01E170F070309729F056954795379550
:100F800027955068B695A795979587956F5F7F4F82
:100F9000B7FDEECF0CC0880F991FAA1FBB1F57FDCE
:100FA0008160220F331F441F551F615070408030F5
:100FB000E0E09E07E0E0AE07E0E4BE0760F36B8F81
:100FC0007C8F6FE7E62EF12C012D112DE822F922FE
:100FD0000A231B2360E4E616F1040105110561F400
:100FE00087FD0AC0211531054105510529F0805CB6
:100FF0009F4FAF4FBF4F80788D8F9E8FAF8FB8A31D
:1010000083E0898FCE01499602C080E090E20E9481
:101010000F0AA096E2E10C94DF0BA8E1B0E0E3E157
:10102000F8E00C94CE0B69837A838B839C832D83A9
:101030003E834F8358878E01075F1F4FCE01019675
:10104000B8010E94DD0A81E1E82EF12CEC0EFD1EB4
:10105000CE010596B7010E94DD0A9985923008F409
:1010600083C08989823008F47BC02A853A89232786
:101070002A87943011F0923021F4981709F06CC04F
:1010800071C0843039F41D861E861F86188A1B861F
:101090001C866AC0823019F484E0898765C08B851C
:1010A0009C852B893C89821B930B8B879C872D8584
:1010B0003E854F855889ED88FE880F89188D2E153D
:1010C0003F054007510738F4220F331F441F551FB7
:1010D00001978B879C876FE170E0A12CB12CC12C0C
:1010E000A0E4DA2E80E090E0DC012E153F054007F9
:1010F000510740F08A299B29AC29BD292E193F09A7
:10110000400B510BD694C794B794A794220F331F6A
:10111000441F551F6150704041F76FE7E62EF12CD8
:10112000012D112DE822F9220A231B2360E4E61683
:10113000F1040105110561F487FD0AC0211531058F
:101140004105510529F0805C9F4FAF4FBF4F80781C
:101150008D879E87AF87B88B8E01075F1F4F04C0B6
:10116000870102C000E010E2C8010E940F0A6896E1
:10117000EAE00C94E70BA8E1B0E0E1ECF8E00C94B5
:10118000D20B69837A838B839C832D833E834F8329
:1011900058878E01075F1F4FCE010196B8010E944C
:1011A000DD0A81E1E82EF12CEC0EFD1ECE01059644
:1011B000B7010E94DD0A8985823040F0898982303A
:1011C00028F0C801B7010E94460B01C08FEF689656
:1011D000E6E00C94EB0BACE0B0E0E1EFF8E00C944F
:1011E000D60B69837A838B839C83CE010196BE01E3
:1011F0006B5F7F4F0E94DD0A8D81823081F18230EA
:1012000070F1843021F48E81882369F10AC02F8126
:10121000388537FD24C06E812F3131053CF06623BF
:1012200011F120E030E040E050E821C08EE190E094
:10123000821B930B29853A854B855C8504C05695A6
:101240004795379527958A95D2F7662381F0509573
:101250004095309521953F4F4F4F5F4F08C020E09C
:1012600030E0A90104C02FEF3FEF4FEF5FE7B90176
:10127000CA012C96E2E00C94EF0BA8E0B0E0E3E4A6
:10128000F9E00C94D00B7B018C011A826115710579
:101290008105910519F482E089835FC083E0898329
:1012A0008EE1C82ED12CCB82DC82ED82FE820F83B0
:1012B0001887C801B7010E94B509FC013197F7FFF3
:1012C0003AC0AA27BB27AE1BBF0B21E030E040E0AD
:1012D00050E00A2E04C0220F331F441F551F0A94EA
:1012E000D2F721503040404050402E213F21402332
:1012F000512361E070E080E090E021153105410567
:10130000510519F460E070E0CB0104C01695079513
:10131000F794E794AA95D2F7E62AF72A082B192B17
:10132000ED82FE820F8318878EE190E08E1B9F0B6B
:101330008B839C8312C0309781F00E2E04C0EE0C7C
:10134000FF1C001F111F0A94D2F7ED82FE820F834B
:101350001887CE1ADF0ACB82DC82CE0101960E946A
:101360000F0A2896E8E00C94E90BAF92BF92CF9257
:10137000DF92EF92FF920F931F937B018C0180E02D
:10138000E81680E0F80681E0080780E0180758F4C6
:10139000EFEFEE16F1040105110509F090F480E07D
:1013A00090E0DC0117C0F0E0EF16F0E0FF06F0E09F
:1013B0000F07F1E01F0750F480E190E0A0E0B0E0FB
:1013C00009C088E090E0A0E0B0E004C088E190E0CF
:1013D000A0E0B0E020E230E040E050E0281B390B14
:1013E0004A0B5B0B5701680104C0D694C794B794AD
:1013F000A7948A95D2F7D601C501885F9F4DFC015D
:101400008081281B310941095109C9011F910F91A0
:10141000FF90EF90DF90CF90BF90AF900895EF9244
:10142000FF920F931F93CF93DF93FC0124813581AB
:101430004681578161818081823020F44061EFEFE5
:10144000F0E0A3C0843009F49BC0823009F492C05C
:10145000211531054105510509F48FC00280F38142
:10146000E02D8FEFE238F8070CF05AC0C2E8DFEF4A
:10147000CE1BDF0BCA31D1056CF579018A010C2E28
:1014800004C016950795F794E7940A94D2F781E083
:1014900090E0A0E0B0E00C2E04C0880F991FAA1FB6
:1014A000BB1F0A94D2F70197A109B10982239323A4
:1014B000A423B52321E030E040E050E00097A105EF
:1014C000B10519F420E030E0A9012E293F29402B75
:1014D000512B03C020E030E0A901DA01C9018F7768
:1014E0009070A070B07080349105A105B10539F4F9
:1014F00027FF09C0205C3F4F4F4F5F4F04C0215C66
:101500003F4F4F4F5F4FE1E0F0E0203080E0380781
:1015100080E0480780E4580728F5E0E0F0E022C0CA
:10152000E038F1056CF5E158FF4FDA01C9018F771A
:101530009070A070B07080349105A105B10539F4A8
:1015400027FF09C0205C3F4F4F4F5F4F04C0215C15
:101550003F4F4F4F5F4F57FF05C056954795379503
:101560002795319687E056954795379527958A9523
:10157000D1F70BC0E0E0F0E005C0E0E0F0E005C02E
:10158000EFEFF0E020E030E0A9018E2F879588276B
:101590008795942F9F77679566276795E695E22E46
:1015A000A92FA82BFE2FF62B622F732F8A2F9F2F88
:1015B000CDB7DEB7E6E00C94EB0BDC01FB012C9120
:1015C00011963C91119712968C911297482F4F7754
:1015D00050E0982F991F9927991F13966C91139794
:1015E000862F880F892B90E0661F6627661F618310
:1015F000009739F5211531054105510511F482E0B7
:1016000029C082E89FEF8283938367E0220F331F14
:10161000441F551F6A95D1F783E0808309C0220FCC
:10162000331F441F551F82819381019782839383C7
:10163000203080E0380780E0480780E4580778F3DE
:1016400020C08F3F910579F42115310541055105E1
:1016500019F484E08083089544FF03C081E080830F
:1016600010C010820EC08F5790408283938383E016
:10167000808387E0220F331F441F551F8A95D1F7BF
:10168000506424833583468357830895FC01DB012E
:101690009081923008F449C08C91823008F445C0A2
:1016A000943051F461818430B1F511962C911197E9
:1016B00030E0261B310941C0843021F0923041F4E2
:1016C0008230B1F111968C9111978823A1F12DC030
:1016D0006181823001F111968C9111976817D9F4CC
:1016E0002281338112968D919C91139782179307D3
:1016F00094F028173907BCF0248135814681578141
:1017000014968D919D910D90BC91A02D82179307F9
:10171000A407B50718F4662341F00DC02817390750
:101720004A075B0728F4662331F021E030E005C06A
:1017300020E030E002C02FEF3FEFC9010895AA1B5F
:10174000BB1B51E107C0AA1FBB1FA617B70710F0AC
:10175000A61BB70B881F991F5A95A9F780959095DE
:10176000BC01CD01089597FB092E07260AD077FD0D
:1017700004D0E5DF06D000201AF4709561957F4F04
:101780000895F6F7909581959F4F08952F923F9277
:101790004F925F926F927F928F929F92AF92BF9281
:1017A000CF92DF92EF92FF920F931F93CF93DF932D
:1017B000CDB7DEB7CA1BDB0BCDBFDEBF09942A88CD
:1017C000398848885F846E847D848C849B84AA8455
:1017D000B984C884DF80EE80FD800C811B81AA81E2
:1017E000B981CE0FD11DCDBFDEBFED010895F894B4
:0217F000FFCF29
:1017F20000000000000000000001020203030303D6
:10180200040404040404040405050505050505058E
:10181200050505050505050506060606060606066E
:101822000606060606060606060606060606060656
:10183200060606060606060607070707070707073E
:101842000707070707070707070707070707070726
:101852000707070707070707070707070707070716
:101862000707070707070707070707070707070706
:1018720007070707070707070808080808080808EE
:1018820008080808080808080808080808080808D6
:1018920008080808080808080808080808080808C6
:1018A20008080808080808080808080808080808B6
:1018B20008080808080808080808080808080808A6
:1018C2000808080808080808080808080808080896
:1018D2000808080808080808080808080808080886
:1018E2000808080808080808080808080808080876
:0818F2000808080808080808AE
:00000001FF
