:100000000C94BC000C94D9000C94D9000C94D90029
:100010000C94D9000C94D9000C94D9000C94D900FC
:100020000C94D9000C94D9000C94D9000C94D900EC
:100030000C94D9000C94D9000C94D9000C94D900DC
:100040000C94D9000C94D9000C94D9000C94D900CC
:100050000C94D9000C94D9000C94D9000C94D900BC
:100060000C94D9000C94D9000C94D9000C94D900AC
:100070000C94D9000C94D9000C94D9000C94D9009C
:100080000C94D9000C94D9000C94D9000C94D9008C
:100090000C94D9000C94D9000C94D9000C94D9007C
:1000A0000C94D9000C94D9000C94D9000C94D9006C
:1000B0000C94D9000C94D9000C94D9000C94D9005C
:1000C0000C94D9000C94D9000C94D9000C94D9004C
:1000D0000C94D9000C94D9000C94D9000C94D9003C
:1000E0000C94D9000C94D9000C94D9000C94D9002C
:1000F0000C94D9000C94D9000C94D9000C94D9001C
:100100000C94D9000C94D9000C94D9000C94D9000B
:100110000C94D9000C94D9000C94D9000C94D900FB
:100120000C94D9000C94D9000C94D9000C94D900EB
:100130000C94D9000C94D9000C94D9000C94D900DB
:100140000C94D9000C94D9000C94D9000C94D900CB
:100150000C94D9000C94D9000C94D9000C94D900BB
:100160000C94D9000C94D9000C94D9000C94DB00A9
:100170000C94D9000C94D90011241FBECFEFD7E204
:10018000DEBFCDBF11E2A8E0B1E201C01D92AB32EB
:10019000B107E1F711E2A0E0B0E2EAE0FAE102C063
:1001A00005900D92A830B107D9F70E9440060C9433
:1001B000030D0C9400001F920F920FB60F921124A2
:1001C0008F93DF93CF93CDB7DEB781E080932A2161
:1001D000CF91DF918F910F900FBE0F901F901895C8
:1001E000DF93CF9300D0CDB7DEB7198282E08A8348
:1001F00080E490E021E0FC01218380E490E024E0B1
:10020000FC01238380E590E02BE8FC01228380E55C
:1002100090E028E0FC012083198209C080E590E08D
:10022000FC01818186958695869581708983898177
:100230008823A1F380E590E02A812054FC012583E6
:1002400080E590E028E1FC0120831982198208C032
:1002500080E590E0FC01818182958F7081708983B7
:1002600089818823A9F384E390E028EDFC012083B1
:1002700080E490E024E0FC0120830F900F90CF9168
:10028000DF910895DF93CF93CDB7DEB7F89480EB7D
:1002900099E027E2FC01238380EB99E028E1FC014F
:1002A000248380EB99E023E0FC01258380EB99E037
:1002B0002FE2FC01268380EB99E0FC01178280EAA3
:1002C00090E020EA30E0F90122812760FC012283DE
:1002D0007894CF91DF910895DF93CF93CDB7DEB7B8
:1002E00080E296E023E0FC012283CF91DF91089524
:1002F000DF93CF9300D0CDB7DEB780E296E0FC016C
:100300008085882F90E08170907021E0009709F03F
:1003100020E0298380E296E0FC0180858695882F85
:1003200090E08170907021E0009709F020E02A832E
:100330009091272181E08927282F30E08981882F1B
:1003400090E082239323009791F08A81882321F003
:1003500081E08093282102C01092282190912921C8
:1003600081E08927882F90E08093292104C0109292
:100370002821109229218981809327210F900F90A5
:10038000CF91DF910895DF93CF93CDB7DEB780E0B3
:1003900096E029EFFC01228380E092E0FC011082CC
:1003A00080E092E0FC01118280E092E020E2FC011A
:1003B000228380E092E0FC01138280E092E0FC0165
:1003C000148280E092E0FC01168280E092E020E05E
:1003D00032E0F90120812160FC01208380E092E07D
:1003E00021E0FC0120A380E092E0FC0111A280E06A
:1003F00092E0FC0112A2CF91DF910895DF93CF9399
:100400000F92CDB7DEB719829AC080E092E020E06B
:1004100032E0F90123A12160FC0123A380E092E0F6
:1004200020E032E0F90121A1277CFC0121A380E03A
:1004300092E020E032E0F90121A1422F2981222F10
:1004400030E02D5F3F4F220F331F220F331F220F4B
:10045000331F242BFC0121A380E092E020E032E056
:10046000F90120A12068FC0120A3000080E092E0B7
:10047000FC0183A1882F90E0817090700097B1F308
:100480008981882F90E020E032E0F90124A1222F19
:1004900030E0880F991F835E9E4DFC0120833183DD
:1004A0008981882F90E02981222F30E0220F331F8D
:1004B000235E3E4DF9014081518120E032E0F90197
:1004C00025A1222F30E0322F2227242B352B880F15
:1004D000991F835E9E4DFC01208331838981882F83
:1004E00090E0880F991F835E9E4DFC018081918171
:1004F000803C910558F48981882F90E0880F991FDE
:10050000835E9E4DFC011082118216C08981882F66
:1005100090E02981222F30E0220F331F235E3E4DD1
:10052000F90120813181205C3040880F991F835E62
:100530009E4DFC012083318389818F5F898389816E
:10054000853008F462CF0F90CF91DF910895EF923C
:10055000FF920F931F93DF93CF93CDB7DEB7299709
:10056000CDBFDEBF8D836E837F83488759878D81A2
:10057000882F90E0880F991F835E9E4DFC0180813B
:100580009181CC01A0E0B0E0BC01CD010E94490AFC
:10059000DC01CB01BC01CD0120E030EF43E755E4A5
:1005A0000E941909DC01CB0189839A83AB83BC8348
:1005B000288539858E819F81A901481B590BCA0165
:1005C000CC01A0E0B0E0BC01CD010E94490ADC01F1
:1005D000CB01BC01CD0129813A814B815C810E9414
:1005E0001F08DC01CB017C018D018E819F81CC0134
:1005F000A0E0B0E0BC01CD010E94490A9B01AC0122
:10060000C801B7010E94C107DC01CB0189839A832D
:10061000AB83BC8369817A818B819C810E944B066C
:10062000DC01CB012996CDBFDEBFCF91DF911F91B9
:100630000F91FF90EF900895DF93CF93CDB7DEB782
:1006400080E096E026E0FC01218380E096E026E051
:10065000FC01258380E496E028EFFC01218380E6FD
:1006600096E02FE3FC01218380E696E028E3FC017D
:10067000258380E496E020EFFC01258380E696E068
:1006800028E3FC01268380E696E027E0FC01268330
:1006900080E496E028E0FC012583CF91DF91089566
:1006A000DF93CF93CDB7DEB72797CDBFDEBF2091C5
:1006B000112190911221809113212D839E838F838C
:1006C00080911B2190911C218B839C8319827EC079
:1006D0008B819C812AE030E0B9010E94AB0C8A83B7
:1006E0008B819C81009729F48981882311F08AE00D
:1006F0008A8320E636E08981882F90E0029643E0E5
:1007000050E0BA010E94BF0CAC0188E090E0042EDA
:1007100002C0880F991F0A94E2F7F901868380E4EA
:1007200096E020EFFC01268380E496E02A81229562
:10073000207FFC01258380E696E028E3FC012583E9
:100740008B819C812AE030E0B9010E94AB0C9B01B7
:100750002B833C838981882F90E09E012B5F3F4F44
:10076000820F931FFC0180818823B9F020E636E0D8
:100770008981882F90E0029643E050E0BA010E9400
:10078000BF0CAC0181E090E0042E02C0880F991FDD
:100790000A94E2F7F901858316C020E636E08981E4
:1007A000882F90E0029643E050E0BA010E94BF0C0F
:1007B000AC0181E090E0042E02C0880F991F0A94DA
:1007C000E2F7F901868389818F5F8983898183308C
:1007D00008F47ECF80911421882331F080E496E0E4
:1007E00028E0FC01268305C080E496E028E0FC01B7
:1007F00025832796CDBFDEBFCF91DF910895DF938C
:10080000CF93CDB7DEB780E296E02CE0FC012283E7
:1008100080E896E028E0FC012283CF91DF910895E3
:10082000DF93CF930F92CDB7DEB71092162180E8F9
:1008300096E0FC018085982F96959695969581E097
:10084000992309F080E090911621892B809316213D
:1008500080E296E0FC01808586958695882F90E061
:1008600081709070009711F482E001C080E0909157
:100870001621892B8093162180E296E0FC01808569
:10088000869586958695882F90E081709070009768
:1008900011F484E001C080E090911621892B8093AF
:1008A000162119826BC080911621882F90E0298132
:1008B000222F30E0AC0102C0559547952A95E2F70A
:1008C0009A0180911521882F90E04981442F50E0B2
:1008D000042E02C0959587950A94E2F728173907E8
:1008E00071F48981882F90E09C01285E3E4DF901CA
:1008F00020812F5F885E9E4DFC01208307C0898187
:10090000882F90E0885E9E4DFC0110828981882F9F
:1009100090E0885E9E4DFC018081893060F1898184
:10092000282F30E081E090E002C0880F991F2A95BF
:10093000E2F7982F909580911721892380931721B2
:100940008981282F30E081E090E0022E02C0880FDC
:10095000991F0A94E2F7982F80911621982380918D
:100960001721892B809317218981882F90E0885E39
:100970009E4DFC01108289818F5F8983898183303C
:1009800008F491CF80911621809315218091172131
:10099000882F90E081709070882381F01092102150
:1009A00080910E21882319F010920F2103C081E05D
:1009B00080930F2181E080930E210EC010920F21B1
:1009C00080910E21882321F081E08093102102C0C4
:1009D0001092102110920E2180911721882F90E003
:1009E00082709070009781F010920A218091082106
:1009F000882319F01092092103C081E08093092116
:100A000081E0809308210EC0109209218091082175
:100A1000882321F081E080930A2102C010920A21EC
:100A20001092082180911721882F90E08470907097
:100A3000009781F010920D2180910B21882319F0ED
:100A400010920C2103C081E080930C2181E08093FF
:100A50000B210EC010920C2180910B21882321F0D4
:100A600081E080930D2102C010920D2110920B2184
:100A70000F90CF91DF910895DF93CF93CDB7DEB77D
:100A80000E941C030E94FF0384EF91E080931B21CE
:100A900090931C210E94100480910B2180931121BE
:100AA000809108218093122180910E21809313213F
:100AB00080910E218823D9F080910921882349F063
:100AC00080911B2190911C210A9680931B21909369
:100AD0001C2180910C21882321F180911B21909170
:100AE0001C21019680931B2190931C211AC0809198
:100AF0000A21882349F080911B2190911C210A979B
:100B000080931B2190931C2180910D21882349F013
:100B100080911B2190911C21019780931B21909320
:100B20001C2180911B2190911C2123E0883E92077B
:100B300020F010921B2110921C2180911B2190917A
:100B40001C21009731F487EE93E080931B21909352
:100B50001C210E9450039ECF0F931F93DF93CF93CE
:100B60000F92CDB7DEB70E941C030E94FF030E94C4
:100B7000C30119820E9410040E94FE018981882FFE
:100B800090E0AC014F5F5F4F24E630E0429FC00130
:100B9000439F900D529F900D11248C01898160E03C
:100BA00070E047E050E00E94A702800F911F809301
:100BB0001B2190931C2180910C21882339F089817D
:100BC0008F5F89838981853008F019820E945003E4
:100BD000D1CFDF93CF93CDB7DEB70E941C030E9425
:100BE000FF030E94C3010E946C0184E690E08093A1
:100BF0001B2190931C210E9410040E94FE010E9460
:100C0000780180912821882351F080911B219091B7
:100C10001C21019680931B2190931C210DC0809173
:100C20002921882349F080911B2190911C21019753
:100C300080931B2190931C2180910B218093142180
:100C40000E945003D8CFDF93CF93CDB7DEB70E9479
:100C5000F0000E941C030E94420110922A21809100
:100C60002A21882321F081E08093142102C0109270
:100C7000142180910E21809311210E945003EFCF07
:100C8000DF93CF93CDB7DEB70E94230680E090E0DC
:100C9000CF91DF910895EF92FF920F931F937B0105
:100CA0008C0120E030E040E05FE40E94C70987FD4E
:100CB00011C0C801B70120E030E040E05FE40E94CD
:100CC000EE070E94F7099B01AC01205030404040E4
:100CD000504806C0C801B7010E94F7099B01AC014A
:100CE000B901CA011F910F91FF90EF900895A0E004
:100CF000B0E0EDE7F6E00C94D60CFC01EA0180814F
:100D0000823008F438C1DB019C91923008F430C184
:100D1000843059F4943009F02EC1918111968C9150
:100D20001197981709F021C126C1943009F420C108
:100D30009230B1F4823009F01EC1CA01AF0128E03F
:100D4000DA010D90AD01DC010D92CD012150C1F70A
:100D5000DB0111968C9111979181892389830AC1B6
:100D6000823009F405C1C280D380DB0112966D90F8
:100D70007C90139724813581468157811496ED909C
:100D8000FD900D911C911797C601861997095C017A
:100D900097FF04C0AA24BB24A81AB90AB0E2AB1674
:100DA000B1040CF061C0181619066CF53701480142
:100DB0000A2C04C096948794779467940A94D2F787
:100DC00081E090E0A0E0B0E00A2C04C0880F991FF9
:100DD000AA1FBB1F0A94D2F70197A109B1098E215E
:100DE0009F21A023B123EE24FF248701E3940097E1
:100DF000A105B10519F4EE24FF248701E628F728A0
:100E0000082919293CC00097D1F1CA0CDB1C390113
:100E10004A010A2C04C096948794779467940A94A4
:100E2000D2F781E090E0A0E0B0E00A2C04C0880F87
:100E3000991FAA1FBB1F0A94D2F70197A109B109F4
:100E400082239323A423B52321E030E040E050E047
:100E50000097A105B10519F420E030E0A901262989
:100E60003729482959290BC06C147D0424F4EE2439
:100E7000FF24870104C0630120E030E0A9018181E3
:100E8000FB019181891709F445C0882349F0D801F5
:100E9000C701821B930BA40BB50B9C01AD0104C0D1
:100EA0002E193F09400B510B57FD04C01982CA820D
:100EB000DB820BC081E08983CA82DB82509540953A
:100EC000309521953F4F4F4F5F4F2C833D834E838D
:100ED0005F830DC0880F991FAA1FBB1F8C839D8342
:100EE000AE83BF838A819B8101978A839B838C8198
:100EF0009D81AE81BF819C01AD01215030404040B9
:100F000050402F3FEFEF3E07EFEF4E07EFE35E0756
:100F100008F30BC08983CA82DB822E0D3F1D401F60
:100F2000511F2C833D834E835F8383E088832C8114
:100F30003D814E815F8157FF1DC0DA01C90181707B
:100F40009070A070B0705695479537952795822B75
:100F5000932BA42BB52B8C839D83AE83BF838A8177
:100F60009B8101968A839B8305C0E0E0F0E203C089
:100F7000FB0101C0FE01CF01CDB7DEB7EEE00C945E
:100F8000EF0CA0E2B0E0E7ECF7E00C94DE0C698334
:100F90007A838B839C832D833E834F83588789E09C
:100FA000E82EF12CEC0EFD1ECE010196B7010E9439
:100FB000E90B8E010F5E1F4FCE010596B8010E940E
:100FC000E90BC701B801AE01475E5F4F0E9477068B
:100FD0000E941B0BA096E6E00C94F70CA0E2B0E098
:100FE000E4EFF7E00C94DE0C69837A838B839C83B7
:100FF0002D833E834F8358878E01075F1F4FCE019D
:101000000196B8010E94E90B91E1E92EF12CEC0E5A
:10101000FD1ECE010596B7010E94E90B8A8991E079
:1010200089278A8BC801B701AE01475E5F4F0E94D6
:1010300077060E941B0BA096E6E00C94F70CA0E24A
:10104000B0E0E5E2F8E00C94D20C69837A838B83FC
:101050009C832D833E834F835887CE010196BE012A
:10106000675F7F4F0E94E90BCE010596BE016F5E60
:101070007F4F0E94E90B9985923078F08989823000
:10108000C0F0943019F4823041F4CBC0843019F4AC
:10109000923079F4C6C0923051F481E02A859A8961
:1010A000291709F480E08A87CE010996BCC08230F6
:1010B00051F481E02A859A89291709F480E08A8B06
:1010C000CE014196B0C06D847E848F849888ED886F
:1010D000FE880F89188DE0E2F0E080E090E0DC010E
:1010E000AA24BB24650120E030E0A901B3016170AE
:1010F000707061157105D1F02E0D3F1D401F511FFD
:1011000015012601280E391E4A1E5B1E81E090E063
:10111000A0E0B0E02E153F054007510718F080E031
:1011200090E0DC01820D931DA41DB51DAA0CBB1C13
:10113000CC1CDD1C17FF09C061E0262E312C412C90
:10114000512CA228B328C428D528319749F0EE0C99
:10115000FF1C001F111F9694879477946794C6CF45
:101160006B897C89EB85FC856E0F7F1F6E5F7F4FDF
:101170006B8F7C8F61E0EA857A89E71709F460E07C
:101180006A8F6B8D7C8D10C0FC01E170F070309720
:1011900029F056954795379527955068B695A795A8
:1011A000979587956F5F7F4FB7FDEECF0CC0880F87
:1011B000991FAA1FBB1F57FD8160220F331F441FB9
:1011C000551F615070408030E0E09E07E0E0AE07C0
:1011D000E0E4BE0760F36B8F7C8F6FE7E62EF12CA7
:1011E000012D112DE822F9220A231B2360E4E616C3
:1011F000F1040105110561F487FD0AC021153105CF
:101200004105510529F0805C9F4FAF4FBF4F80785B
:101210008D8F9E8FAF8FB8A383E0898FCE014996C3
:1012200002C080E090E20E941B0BA096E2E10C94C9
:10123000EB0CA8E1B0E0EFE1F9E00C94DA0C698383
:101240007A838B839C832D833E834F8358878E01C3
:10125000075F1F4FCE010196B8010E94E90B81E1A3
:10126000E82EF12CEC0EFD1ECE010596B7010E9472
:10127000E90B9985923008F483C08989823008F49B
:101280007BC02A853A8923272A87943011F092302F
:1012900021F4981709F06CC071C0843039F41D86B0
:1012A0001E861F86188A1B861C866AC0823019F427
:1012B00084E0898765C08B859C852B893C89821B4E
:1012C000930B8B879C872D853E854F855889ED88AC
:1012D000FE880F89188D2E153F054007510738F4F9
:1012E000220F331F441F551F01978B879C876FE187
:1012F00070E0A12CB12CC12CA0E4DA2E80E090E0AB
:10130000DC012E153F054007510740F08A299B2933
:10131000AC29BD292E193F09400B510BD694C79417
:10132000B794A794220F331F441F551F615070407C
:1013300041F76FE7E62EF12C012D112DE822F9225D
:101340000A231B2360E4E616F1040105110561F48C
:1013500087FD0AC0211531054105510529F0805C42
:101360009F4FAF4FBF4F80788D879E87AF87B88BD9
:101370008E01075F1F4F04C0870102C000E010E22A
:10138000C8010E941B0B6896EAE00C94F30CA8E1DC
:10139000B0E0EDECF9E00C94DE0C69837A838B838A
:1013A0009C832D833E834F8358878E01075F1F4F99
:1013B000CE010196B8010E94E90B81E1E82EF12CE3
:1013C000EC0EFD1ECE010596B7010E94E90B898542
:1013D000823040F08989823028F0C801B7010E942C
:1013E000520C01C08FEF6896E6E00C94F70CACE06D
:1013F000B0E0EDEFF9E00C94E20C69837A838B8323
:101400009C83CE010196BE016B5F7F4F0E94E90B6A
:101410008D81823081F1823070F1843021F48E81AF
:10142000882369F10AC02F81388537FD24C06E8179
:101430002F3131053CF0662311F120E030E040E02F
:1014400050E821C08EE190E0821B930B29853A85FC
:101450004B855C8504C056954795379527958A95A9
:10146000D2F7662381F050954095309521953F4FF6
:101470004F4F5F4F08C020E030E0A90104C02FEFBC
:101480003FEF4FEF5FE7B901CA012C96E2E00C9401
:10149000FB0CA8E0B0E0EFE4FAE00C94DC0C7B017C
:1014A0008C011A82611571058105910519F482E09C
:1014B00089835FC083E089838EE1C82ED12CCB82E3
:1014C000DC82ED82FE820F831887C801B7010E947B
:1014D000C10AFC013197F7FF3AC0AA27BB27AE1B10
:1014E000BF0B21E030E040E050E00A2E04C0220FA4
:1014F000331F441F551F0A94D2F7215030404040FB
:1015000050402E213F214023512361E070E080E0D4
:1015100090E0211531054105510519F460E070E0B6
:10152000CB0104C016950795F794E794AA95D2F7D6
:10153000E62AF72A082B192BED82FE820F831887E3
:101540008EE190E08E1B9F0B8B839C8312C03097A3
:1015500081F00E2E04C0EE0CFF1C001F111F0A9418
:10156000D2F7ED82FE820F831887CE1ADF0ACB8274
:10157000DC82CE0101960E941B0B2896E8E00C94B9
:10158000F50CAF92BF92CF92DF92EF92FF920F9342
:101590001F937B018C0180E0E81680E0F80681E073
:1015A000080780E0180758F4EFEFEE16F104010584
:1015B000110509F090F480E090E0DC0117C0F0E044
:1015C000EF16F0E0FF06F0E00F07F1E01F0750F420
:1015D00080E190E0A0E0B0E009C088E090E0A0E009
:1015E000B0E004C088E190E0A0E0B0E020E230E0AC
:1015F00040E050E0281B390B4A0B5B0B5701680198
:1016000004C0D694C794B794A7948A95D2F7D6010C
:10161000C501885F9F4DFC018081281B310941096C
:101620005109C9011F910F91FF90EF90DF90CF906A
:10163000BF90AF900895EF92FF920F931F93CF93B7
:10164000DF93FC012481358146815781618180814E
:10165000823020F44061EFEFF0E0A3C0843009F461
:101660009BC0823009F492C0211531054105510516
:1016700009F48FC00280F381E02D8FEFE238F80784
:101680000CF05AC0C2E8DFEFCE1BDF0BCA31D10528
:101690006CF579018A010C2E04C016950795F79414
:1016A000E7940A94D2F781E090E0A0E0B0E00C2E3D
:1016B00004C0880F991FAA1FBB1F0A94D2F7019775
:1016C000A109B10982239323A423B52321E030E0AB
:1016D00040E050E00097A105B10519F420E030E0AA
:1016E000A9012E293F29402B512B03C020E030E0D7
:1016F000A901DA01C9018F779070A070B0708034B1
:101700009105A105B10539F427FF09C0205C3F4FC1
:101710004F4F5F4F04C0215C3F4F4F4F5F4FE1E0A1
:10172000F0E0203080E0380780E0480780E4580788
:1017300028F5E0E0F0E022C0E038F1056CF5E15872
:10174000FF4FDA01C9018F779070A070B0708034BC
:101750009105A105B10539F427FF09C0205C3F4F71
:101760004F4F5F4F04C0215C3F4F4F4F5F4F57FFBC
:1017700005C05695479537952795319687E056953C
:101780004795379527958A95D1F70BC0E0E0F0E0B3
:1017900005C0E0E0F0E005C0EFEFF0E020E030E071
:1017A000A9018E2F879588278795942F9F77679516
:1017B00066276795E695E22EA92FA82BFE2FF62B1C
:1017C000622F732F8A2F9F2FCDB7DEB7E6E00C94E0
:1017D000F70CDC01FB012C9111963C9111971296AC
:1017E0008C911297482F4F7750E0982F991F992787
:1017F000991F13966C911397862F880F892B90E071
:10180000661F6627661F6183009739F5211531052C
:101810004105510511F482E029C082E89FEF8283DF
:10182000938367E0220F331F441F551F6A95D1F73A
:1018300083E0808309C0220F331F441F551F82811C
:101840009381019782839383203080E0380780E082
:10185000480780E4580778F320C08F3F910579F45A
:10186000211531054105510519F484E0808308955F
:1018700044FF03C081E0808310C010820EC08F57E8
:1018800090408283938383E0808387E0220F331F1D
:10189000441F551F8A95D1F75064248335834683AE
:1018A00057830895FC01DB019081923008F449C010
:1018B0008C91823008F445C0943051F461818430B9
:1018C000B1F511962C91119730E0261B310941C0DA
:1018D000843021F0923041F48230B1F111968C9134
:1018E00011978823A1F12DC06181823001F11196F9
:1018F0008C9111976817D9F42281338112968D91BA
:101900009C9113978217930794F028173907BCF01E
:10191000248135814681578114968D919D910D903A
:10192000BC91A02D82179307A407B50718F466236E
:1019300041F00DC0281739074A075B0728F46623D2
:1019400031F021E030E005C020E030E002C02FEFB0
:101950003FEFC9010895AA1BBB1B51E107C0AA1F95
:10196000BB1FA617B70710F0A61BB70B881F991F40
:101970005A95A9F780959095BC01CD01089597FBE4
:10198000092E07260AD077FD04D0E5DF06D0002017
:101990001AF4709561957F4F0895F6F790958195AB
:1019A0009F4F08952F923F924F925F926F927F9236
:1019B0008F929F92AF92BF92CF92DF92EF92FF925F
:1019C0000F931F93CF93DF93CDB7DEB7CA1BDB0B0B
:1019D000CDBFDEBF09942A88398848885F846E8429
:1019E0007D848C849B84AA84B984C884DF80EE8043
:1019F000FD800C811B81AA81B981CE0FD11DCDBF85
:0A1A0000DEBFED010895F894FFCF5A
:101A0A0000000000000000000001020203030303BB
:101A1A000404040404040404050505050505050574
:101A2A000505050505050505060606060606060654
:101A3A00060606060606060606060606060606063C
:101A4A000606060606060606070707070707070724
:101A5A00070707070707070707070707070707070C
:101A6A0007070707070707070707070707070707FC
:101A7A0007070707070707070707070707070707EC
:101A8A0007070707070707070808080808080808D4
:101A9A0008080808080808080808080808080808BC
:101AAA0008080808080808080808080808080808AC
:101ABA00080808080808080808080808080808089C
:101ACA00080808080808080808080808080808088C
:101ADA00080808080808080808080808080808087C
:101AEA00080808080808080808080808080808086C
:101AFA00080808080808080808080808080808085C
:081B0A00080808080808080893
:00000001FF
