:100000000C94BC000C94D9000C94D9000C94D90029
:100010000C94D9000C94D9000C94D9000C94D900FC
:100020000C94D9000C94D9000C94D9000C94D900EC
:100030000C94D9000C94D9000C94D9000C94D900DC
:100040000C9480070C94CD070C949F070C94920796
:100050000C94D9000C94D9000C94D9000C94D900BC
:100060000C94D9000C94D9000C94D9000C94D900AC
:100070000C94D9000C94D9000C94D9000C94D9009C
:100080000C94D9000C94D9000C94D9000C94D9008C
:100090000C94D9000C94D9000C94D9000C94D9007C
:1000A0000C94D9000C94D9000C94D9000C94D9006C
:1000B0000C94D9000C94D9000C94D9000C94D9005C
:1000C0000C94D9000C94D9000C94D9000C94D9004C
:1000D0000C94D9000C94D9000C94D9000C94D9003C
:1000E0000C94D9000C94D9000C94D9000C94D9002C
:1000F0000C94D9000C94D9000C94D9000C94D9001C
:100100000C94D9000C94D9000C94D9000C94D9000B
:100110000C94D9000C94D9000C94D9000C94D900FB
:100120000C94D9000C94D9000C94D9000C94D900EB
:100130000C94D9000C94D9000C94D9000C94D900DB
:100140000C94D9000C94D9000C94D9000C94D900CB
:100150000C94D9000C94D9000C94D9000C94D900BB
:100160000C94D9000C94D9000C94D9000C942A0456
:100170000C94D9000C94D90011241FBECFEFD7E204
:10018000DEBFCDBF11E2A0E0B0E2E4E2F9E202C0DE
:1001900005900D92A039B107D9F712E2A0E9B1E2BA
:1001A00001C01D92AB39B107E1F70E943F070C94E3
:1001B00090140C9400008091A62108952F923F92F4
:1001C0004F925F926F927F928F929F92AF92BF9267
:1001D000CF92DF92EF92FF920F931F93DF93CF9313
:1001E0000F92CDB7DEB7182F3B014A01BA0166194D
:1001F000770980E090E00E9495116B017C01E12F6E
:10020000F0E0EE0FFF1FE456FE4D6081718180E04B
:1002100090E00E94951120E030E44FE455E40E9404
:1002200035109B01AC01C701B6010E943B0FD62ED1
:10023000C72EB82EA92EB30180E090E00E94951140
:10024000F62E072F182FE92E462E372E282E9983AB
:100250006D2D7C2D8B2D9A2D2F2D302F412F5E2D26
:100260000E94DD0EA62E772E682E592EB40180E056
:1002700090E00E949511D62EC72EB82E992E2A2DC9
:10028000372D462D552D0E941311882324F0DA2C8A
:10029000C72CB62C952C6D2D7C2D8B2D992D2F2DAB
:1002A000302F412F5E2D0E941311882324F04D2CF6
:1002B0003C2C2B2C99822981642D732D822D922F19
:1002C0000E94670D862F972F0F90CF91DF911F917E
:1002D0000F91FF90EF90DF90CF90BF90AF909F90E5
:1002E0008F907F906F905F904F903F902F900895E8
:1002F0006F927F928F929F92AF92BF92CF92DF9236
:10030000EF92FF920F931F93CF93DF939C01DD2415
:10031000D394EE24FF24EAE0F0E00F2EF3E0AF2EBA
:10032000BB24F02D88249924689483F8C0E6D6E095
:1003300000E416E00F2EF0EF7F2EF02D0F2EF8E3E5
:100340006F2EF02D04C00894E11CF11CD3944E2DA7
:10035000C901BF010E941614C82E2115310531F4C0
:10036000EE2029F10F2EFAE0CF2EF02D842F90E011
:100370000296B5010E942A14A40102C0440F551F21
:100380008A95E2F74E83D80116967C921697CC0C8C
:10039000CC0CCC0CCC0C1596CC926D82BD2DB33010
:1003A00000F5C901BF010E9416149B01CCCF8E2D10
:1003B00090E00296B5010E942A14A40102C0440FE5
:1003C000551F8A95E2F74E83D80116967C921697B0
:1003D000CC0CCC0CCC0CCC0C1596CC9215976D8219
:1003E000B2CFDF91CF911F910F91FF90EF90DF90EF
:1003F000CF90BF90AF909F908F907F906F90089517
:10040000882321F088E0E0E4F6E08683662321F08B
:1004100084E0E0E6F6E08583442321F081E0E0E635
:10042000F6E08583222321F082E0E0E6F6E0858392
:100430000895882321F088E0E0E4F6E085836623D0
:1004400021F084E0E0E6F6E08683442321F081E0B9
:10045000E0E6F6E08683222321F082E0E0E6F6E0A3
:10046000868308958091942108958091952108951F
:1004700080919221089580919321089580919021F7
:100480000895809191210895CF93DF93809140004A
:10049000843001F1A0E4B0E071E094E0E0E5F0E048
:1004A0006BE858E042EC38E128ED11967C93119707
:1004B00013969C93139762835083818183FFFDCFB2
:1004C00045833083818184FFFDCF24BF9C938C9131
:1004D000843059F7F894A0E6B6E080E815968C933E
:1004E000159790E412969C93129711968C931197FE
:1004F000E0EBF9E088E1848380E2838333E03583B5
:100500009FE296831782E0EAF0E0928197689283F7
:100510007894C0E0D6E099EF9A83E0E0F2E01082B0
:10052000118282831382148216828081816080838B
:1005300081E080A311A212A240E256E08CE0FA0111
:10054000828328E080E896E0FC012283FA0132836E
:1005500086E089838D83E0E4F6E088EF81838FE392
:1005600011968C93119788E315968C93159790EFBD
:10057000958316968C93169787E016968C9316970C
:100580002583DF91CF910895BF92CF92DF92EF92B2
:10059000FF920F931F93DF93CF930F92CDB7DEB7E8
:1005A000E0E8F6E0308536953695369521E009F09D
:1005B00020E0E0E2F6E030853695369530FD02C069
:1005C00032E001C030E0232BE0E2F6E030853695E2
:1005D0003695369530FD04C0BB246894B2F801C04E
:1005E000BB24B22AB0929B2100919A2110E0C090C6
:1005F0009921E6E9F1E220E030E0AB2DB0E0EE2415
:10060000FF24E394BD01022E02C0759567950A94FC
:10061000E2F7A801022E02C0559547950A94E2F729
:100620006417750731F440814F5F4083493018F4F7
:100630000FC010820DC0A701022E02C0440F551F2B
:100640000A94E2F7542F5095C5224B21C42A1082F8
:100650002F5F3F4F319623303105A1F6C09299218B
:10066000B0929A21C0FE0EC020919021222319F051
:100670001092912103C021E02093912121E0209349
:1006800090210CC020919021222321F022E0209380
:10069000912102C0109291211092902120919921D4
:1006A00021FF0EC020919221222319F01092932154
:1006B00003C021E02093932121E0209392210CC0DC
:1006C00020919221222321F022E02093932102C045
:1006D00010929321109292212091992122FF0EC015
:1006E00020919421222319F01092952103C021E03A
:1006F0002093952121E0209394210CC020919421F6
:10070000222321F022E02093952102C0109295210E
:100710001092942119822981253008F06CC0E0E004
:10072000F2E02CE931E243A1416043A341A1477CBF
:1007300041A3A1A1698170E06D5F7F4FAB01440FC0
:10074000551F440F551F440F551F4A2B41A340A16D
:10075000406840A343A140FFFDCFA98144A1B0E080
:10076000AA0FBB1FA20FB31F4C9311961C92A98115
:10077000B0E045A1AA0FBB1FA20FB31F942F80E0CA
:100780004D915C911197482B592B4D935C93A98106
:10079000B0E0AA0FBB1FA20FB31F4D915C91119740
:1007A00061E0453F560750F4A981B0E0AA0FBB1F96
:1007B000A20FB31F1D921C92119716C0A9814981E7
:1007C000B0E0AA0FBB1FBD01620F731F50E0440FC2
:1007D000551F420F531FDA014D915C91455F514007
:1007E000DB014D935C93119749814F5F49834981A8
:1007F000453008F498CFE0E2F6E0808541E080FDE6
:1008000040E0E0E2F6E05085242F30E09091A7210F
:1008100081E0892790E082239323009759F0569531
:1008200050FD04C081E08093A62106C082E0809341
:10083000A62102C01092A6214093A7210F90CF912C
:10084000DF911F910F91FF90EF90DF90CF90BF90BD
:10085000089508951F920F920FB60F9211242F93AF
:100860003F934F935F936F937F938F939F93AF9338
:10087000BF93EF93FF930E949C074091B00961E002
:1008800050E00E94950BFF91EF91BF91AF919F9126
:100890008F917F916F915F914F913F912F910F9029
:1008A0000FBE0F901F901895FF920F931F93CF9339
:1008B000DF930E944402FF24C4E6D0E00E94C402F9
:1008C0008F2D61E070E043E650E00E94DE002F2DA6
:1008D00030E02F5F3F4F2C9F80012D9F100D3C9FDC
:1008E000100D1124080F191F0E943502813029F4C0
:1008F000F3948F2D853008F0FF2480E060E040E025
:1009000020E00E942904DACF0F931F930E94440233
:100910000E94C4020E943202082F0E943802182F3F
:100920000E943E02282F80E0602F412F00E010E05F
:100930000E942904EDCFCF92DF92FF920F931F9375
:10094000CF93DF930E944402C0E0D0E00F2EF7EE79
:10095000CF2EF3E0DF2EF02D0E94C4020E9432025F
:10096000082F0E943802182F0E943E02F82E0E9483
:10097000DB00813031F483E0C73ED80751F0219687
:100980000CC00E94DB00823041F4209729F02197AF
:1009900004C0C0E0D0E001C0E60180E0602F412F3C
:1009A0002F2D8E010E942904D7CFCF92DF92EF9294
:1009B000FF920F931F93CF93DF930E944402C0E0F6
:1009C000D0E00F2EF4E6CF2EDD24F02D0E94C402DD
:1009D0000E943202F82E0E943802182F0E943E0216
:1009E000E82E0E94DB00813029F4C430D10551F09B
:1009F00021960DC00E94DB00823049F4209729F037
:100A0000219705C0C0E0D0E002C0C4E0D0E08C2F48
:100A100060E070E043E650E00E94DE00CC9DF00113
:100A2000CD9DF00DDC9DF00D1124E80FF91F80E045
:100A30006F2D412F2E2D8F010E942904C7CF0F93B8
:100A40001F930E9444020E94C40280E060E040E0E4
:100A500020E000E010E00E942904F5CF0F931F93DF
:100A6000DF93CF93CDB7DEB7AE97CDBFDEBFDE014C
:100A70001196E7E2F0E220E201900D922150E1F7B9
:100A8000209100082F7029A321E02AA31BA21CA2F9
:100A90001DA21EA29C0140E050E060E077E883E9DF
:100AA00093E00E943D142FA338A749A75AA76FA12E
:100AB00078A589A59AA5EAA1F0E0EE0FFF1FEE0F39
:100AC000FF1FEC0FFD1F21813281438154810E9461
:100AD0003D142BA73CA74DA75EA78BA59CA5ADA554
:100AE000BEA5803020E0920721E0A20720E0B207F7
:100AF00098F18AA18F5F8AA38AA1883040F0A8C0AC
:100B00008AA18F5F8AA38AA1883020F0A1C08E01BC
:100B10000F5F1F4F6FA178A589A59AA5EAA1F0E004
:100B2000EE0FFF1FEE0FFF1FE00FF11F208131813D
:100B3000428153810E943D142BA73CA74DA75EA77D
:100B40008BA59CA5ADA5BEA58030E0E09E07E1E0A9
:100B5000AE07E0E0BE07A0F680910008882309F404
:100B60006DC099A18AA1981709F466C0E0E0F8E089
:100B7000108260A171A1EAA1F0E0EE0FFF1FEE0F5D
:100B8000FF1F8E010F5F1F4FE00FF11F80E090E00D
:100B900020813181428153810E94F7136BA37CA392
:100BA0008DA39EA36BA17CA18DA19EA129A130E064
:100BB000220F331F220F331F020F131FF801208152
:100BC0003181428153810E943D142BA33CA34DA34C
:100BD0005EA32BA13CA14DA15EA18BA59CA5ADA5BB
:100BE000BEA582179307A407B507E8F48BA19CA1C3
:100BF000ADA1BEA12BA53CA54DA55EA5821B930B67
:100C0000A40BB50B8BA39CA3ADA3BEA32BA13CA1AE
:100C10004DA15EA18BA59CA5ADA5BEA5821793078E
:100C2000A407B50718F38BA19CA1ADA1BEA1E0E07C
:100C3000F8E080A391A302C0109200088BA59CA5A8
:100C4000ADA5BEA5E0E0F8E080A791A78AA18083CA
:100C5000AE96CDBFDEBFCF91DF911F910F9108956A
:100C60000F931F93DF93CF93CDB7DEB7AE97CDBF72
:100C7000DEBFDE011196E7E0F0E220E201900D9286
:100C80002150E1F7209100082F7029A321E02AA329
:100C90001BA21CA21DA21EA29C0140E050E060E02D
:100CA00078EA84ED95E50E943D142FA338A749A763
:100CB0005AA76FA178A589A59AA5EAA1F0E0EE0F41
:100CC000FF1FEE0FFF1FEC0FFD1F218132814381BB
:100CD00054810E943D142BA73CA74DA75EA78BA56E
:100CE0009CA5ADA5BEA5803020E0920721E0A2071B
:100CF00020E0B20798F18AA18F5F8AA38AA1883089
:100D000040F0B5C08AA18F5F8AA38AA1883020F005
:100D1000AEC08E010F5F1F4F6FA178A589A59AA560
:100D2000EAA1F0E0EE0FFF1FEE0FFF1FE00FF11F33
:100D300020813181428153810E943D142BA73CA721
:100D40004DA75EA78BA59CA5ADA5BEA58030E0E014
:100D50009E07E1E0AE07E0E0BE07A0F68091000844
:100D6000882309F46DC099A18AA1981709F466C077
:100D7000E0E0F8E0108260A171A1EAA1F0E0EE0FDE
:100D8000FF1FEE0FFF1F8E010F5F1F4FE00FF11FC0
:100D900080E090E020813181428153810E94F713ED
:100DA0006BA37CA38DA39EA36BA17CA18DA19EA10F
:100DB00029A130E0220F331F220F331F020F131F10
:100DC000F80120813181428153810E943D142BA37F
:100DD0003CA34DA35EA32BA13CA14DA15EA18BA57D
:100DE0009CA5ADA5BEA582179307A407B507E8F497
:100DF0008BA19CA1ADA1BEA12BA53CA54DA55EA537
:100E0000821B930BA40BB50B8BA39CA3ADA3BEA31A
:100E10002BA13CA14DA15EA18BA59CA5ADA5BEA516
:100E200082179307A407B50718F38BA19CA1ADA166
:100E3000BEA1E0E0F8E080A391A302C010920008F8
:100E40008BA59CA5ADA5BEA5E0E0F8E080A791A785
:100E50008BA59CA5ADA5BEA568E170E00E94161407
:100E600066A777A78181806981838AA18083AE96F6
:100E7000CDBFDEBFCF91DF911F910F9108950E94EA
:100E800044020E940D090E949C070E94300DFBCF76
:100E90000F93E0EBF9E0818185FFFDCF4093B0092E
:100EA000623038F0E0EBF9E0818185FFFDCF2093DF
:100EB000B009633039F4E0EBF9E0818185FFFDCFC3
:100EC0000093B0090F9108950F93DF93CF93CDB79F
:100ED000DEB72797CDBFDEBF6C8349832A830B83A0
:100EE000DE011596FE01319683E001900D9281504E
:100EF000E1F72796CDBFDEBFCF91DF910F91089527
:100F00001F920F920FB60F921124EF93FF93E0E020
:100F1000F8E010A211A2FF91EF910F900FBE0F9079
:100F20001F9018951F920F920FB60F9211240F90D9
:100F30000FBE0F901F9018958AEA91E208951F92B4
:100F40000F920FB60F9211242F933F934F935F93FD
:100F50006F937F938F939F93AF93BF93EF93FF9381
:100F60000E949C0760E040E020E00E941F0AE0E051
:100F7000F8E081818F7B8183FF91EF91BF91AF91E9
:100F80009F918F917F916F915F914F913F912F91A1
:100F90000F900FBE0F901F9018951F920F920FB6D3
:100FA0000F921124EF92FF920F931F932F933F9371
:100FB0004F935F936F937F938F939F93AF93BF9361
:100FC000EF93FF93DF93CF93CDB7DEB7CA54D040F2
:100FD000CDBFDEBFE0E0F8E081818F7D818381813C
:100FE0008F7B81830E949C0760E040E020E00E94AC
:100FF0000E0A81E090E060E070E047E050E00E947F
:10100000DE00E82E80E090E06AE070E04FEF5FEFF6
:101010000E94DE008C01DE011B96E7E6F0E280E232
:1010200001900D928150E1F7DE019B96E7E4F0E23A
:1010300080E201900D928150E1F7E0E0F8E080A1BC
:1010400091A189839A8360A571A58E2D90E0880F68
:10105000991F880F991F7E010894E11CF11CE80E6E
:10106000F91E80E090E0F70122853385448555859F
:101070000E94F7136B837C838D839E836B817C81BD
:101080008D819E81F70122A533A544A555A50E9417
:101090003D142B833C834D835E832B813C814D81AA
:1010A0005E81B80180E090E00E94F7136F8378873B
:1010B00089879A876F81788589859A852FEF3FEF99
:1010C00040E050E00E943D142F83388749875A87BB
:1010D0002F81388549855A858B819C81AD81BE8160
:1010E00082179307A407B50758F48B819C81AD81C3
:1010F000BE810A97A109B1098F839887A987BA870A
:1011000089819A812F81388549855A85A0E0B0E090
:10111000820F931FA41FB51F8F839887A987BA8753
:10112000E0E0F8E020A531A58F819885A985BA85F2
:1011300040E050E0281739074A075B0780F48F81A9
:101140009885A985BA8520A531A540E050E0821B8D
:10115000930BA40BB50B8F839887A987BA878981D6
:101160009A812B813C814D815E81A0E0B0E0820FAD
:10117000931FA41FB51F8B839C83AD83BE83E0E0C8
:10118000F8E020A531A58B819C81AD81BE8140E036
:1011900050E0281739074A075B0780F48B819C8150
:1011A000AD81BE8120A531A540E050E0821B930BAC
:1011B000A40BB50B8B839C83AD83BE838B819C81F9
:1011C000AD81BE81E0E0F8E082A793A78F8198858A
:1011D000A985BA8584A795A7818180628183818151
:1011E00080648183C65BDF4FCDBFDEBFCF91DF91CF
:1011F000FF91EF91BF91AF919F918F917F916F91EF
:101200005F914F913F912F911F910F91FF90EF9020
:101210000F900FBE0F901F901895CF93DF93CAEADF
:10122000D1E2CE010E94640BCE0168E477E00E9417
:10123000BA0BCE0164E677E00E94600BE0E0F8E0D4
:101240001082118212821382148616828BE58783A4
:1012500010A211A20E949C07DF91CF910895FC017A
:101260004283638374831182108208951F93CF9306
:10127000DF93EC01162F0E94A609E82FF9812F2F8A
:1012800030E02F5F3F4F6A81C90170E00E942A144D
:10129000288130E08217930729F48E2F0E94A90934
:1012A00080E011C0AB81BC81AF0FB11D1C9389815F
:1012B00090E001966A8170E00E942A1489838E2F43
:1012C0000E94A90981E0DF91CF911F9108951F939A
:1012D000CF93DF93EC010E94A60919819881191719
:1012E00010F0191B03C02A81120F191B0E94A909B3
:1012F000812FDF91CF911F910895FC01808190E0B3
:10130000860F911D628170E00E942A140380F4818F
:10131000E02DE80FF91F808108951F93CF93DF938D
:10132000EC01162F0E94A609482F288130E0210FDA
:10133000311D6A81C90170E00E942A148883842FBC
:101340000E94A909DF91CF911F9108958FB7F8945A
:1013500008958FBF0895881F8827881F089591E0FA
:10136000883F08F490E0892F0895282F30E0207FEF
:101370003070203C3105E9F1213C31058CF42039F5
:101380003105E1F02139310524F42038310579F5B2
:1013900015C0203A310591F0203B310541F50EC0D2
:1013A000203E310559F0213E310524F4203D310520
:1013B000F1F41FC0203F3105D1F402C083E008954D
:1013C000863F79F0873F38F4823FA9F0833F59F098
:1013D000813F59F408C0883F40F08D3F10F08E3FA8
:1013E00020F081E0089582E0089580E0089580E093
:1013F000089582E0089583E008950F93342F022F1B
:10140000462F4F70406B232F2F770F77DC01ED9124
:10141000FC9163E070E009950F9108950F93342FCC
:10142000022F462F4F704069232F2F770F77DC0153
:10143000ED91FC9163E070E009950F9108950F9391
:10144000342F022F462F4F704068232F2F770F77AE
:10145000DC01ED91FC9163E070E009950F91089536
:101460000F93342F022F462F4F70406A232F2F7770
:101470000F77DC01ED91FC9163E070E009950F912D
:1014800008950F931F9320E24030520744F4A0EEDA
:1014900040305A073CF08A010050104E05C00FEF53
:1014A0001FE302C000E010E0462F4F70406E202F77
:1014B0002F77000F012F001F110B11950F77DC0103
:1014C000ED91FC9163E070E009951F910F910895F3
:1014D0000F93242F462F4F70406C2F77DC01ED9136
:1014E000FC9162E070E000E009950F9108950F9380
:1014F000242F462F4F70406D2F77DC01ED91FC912A
:1015000062E070E000E009950F9108950F93DC010F
:10151000ED91FC9161E070E048EF20E000E009957A
:101520000F9108950F93DC01ED91FC9161E070E063
:1015300049EF20E000E009950F9108950F93DC0139
:10154000ED91FC9161E070E04AEF20E000E0099548
:101550000F9108950F93DC01ED91FC9161E070E033
:101560004BEF20E000E009950F9108950F93DC0107
:10157000ED91FC9161E070E04CEF20E000E0099516
:101580000F9108950F93DC01ED91FC9161E070E003
:101590004EEF20E000E009950F9108950F93DC01D4
:1015A000ED91FC9161E070E04FEF20E000E00995E3
:1015B0000F9108950F93262F2F77DC01ED91FC9169
:1015C00062E070E041EF00E009950F9108950F93FC
:1015D0001F93262F2F778B01000F012F001F110B58
:1015E00011950F77DC01ED91FC9163E070E042EF23
:1015F00009951F910F9108950F93262F2F77DC01E6
:10160000ED91FC9162E070E043EF00E009950F91ED
:1016100008950F93DC01ED91FC9161E070E046EFDD
:1016200020E000E009950F9108950F93462FDC010B
:10163000ED91FC9161E070E020E000E009950F91F0
:1016400008950F93DC01ED91FC9109950F91089598
:10165000FC01628373830895FC016483758308959C
:10166000FC01668377830895FC0160877187089584
:10167000FC01628773870895FC016487758708956C
:10168000FC01668777870895FC01608B718B089554
:10169000FC01628B738B0895FC01648B758B08953C
:1016A000FC01668B778B0895FC01608F718F089524
:1016B000FC01628F738F0895FC01648F758F08950C
:1016C000FC01668F778F0895CF93DF93EC011DA205
:1016D0001EA21FA2BC01685D7F4F88519F4F40EC46
:1016E0000E942F091A821B821C821D821E821F8269
:1016F000188619861A861B861C861D861E861F86DE
:10170000188A198A1A8A1B8A1C8A1D8A1E8A1F8AAD
:10171000188E198E1A8E1B8E1C8E1D8E1E8E1F8E7D
:1017200018A219A2DF91CF910895EF92FF920F9323
:101730001F93CF93DF93162F6623A9F0042FE42E77
:10174000E7017E01F52EE7010F2EF8EEEF2EFF24C4
:10175000F02DE80EF91E6991C7010E943609AE010D
:10176000401B4117C0F3DF91CF911F910F91FF9064
:10177000EF900895FC01608371830895FC0160A3DC
:1017800071A30895CF92DF92EF92FF920F931F9370
:10179000CF93DF93EC016B01F42EE22E102F8DA17D
:1017A000843041F4EA8DFB8D309709F499C0CE0165
:1017B000099589C06230710509F442C06330710532
:1017C00029F06130710509F074C060C0842F90E089
:1017D000807F9070803A9105E1F0813A91053CF468
:1017E0008038910599F080399105F9F40CC0803E5C
:1017F000910591F0803F910591F0803B9105A9F40E
:10180000EA81FB8114C0EC81FD8111C0EE81FF8172
:101810000EC0E885F9850BC0EA85FB8508C0423F0C
:1018200009F05EC0EC85FD8502C0E0E0F0E0309795
:1018300009F456C0CE016F2D4E2D212F099543C0BE
:10184000842F90E0807F9070803D910549F0803F2B
:10185000910549F0803C910581F4EE85FF850FC02C
:10186000E889F9890CC0433F19F4EA89FB8907C06C
:10187000413FB1F5EC89FD8902C0E0E0F0E030972E
:1018800079F1CE016F2D4E2D09951DC0842F0E9438
:10189000AF09882319F0EE89FF8905C08F2D863F97
:1018A000F9F4E88DF98D3097D9F0CE016F2D0995B7
:1018B0000AC06430710590F413C0CE01B6014F2DFB
:1018C0002E2D012F0995EE8DFF8D309771F0CE01F1
:1018D000B6014F2D2E2D012F099507C0CC24DD24F4
:1018E000EC8DFD8D309749F7EECFDF91CF911F91B1
:1018F0000F91FF90EF90DF90CF9008950F931F937B
:10190000CF93DF93EC01062F862F0E94AF09882327
:1019100069F01DA181E08DA3CE0161E070E0402F50
:1019200020E000E00E94C20B1DA395C0802F0E9402
:10193000AB09882309F455C08DA1843029F00AA38E
:1019400081E090E08EA39FA3802F0E94B509813093
:1019500039F08130B8F0823079F08330F1F50FC082
:1019600081E08DA3CE0161E070E0402F20E000E037
:101970000E94C20B1DA26FC082E08DA36CC083E0E9
:101980008DA369C0003F19F0073F19F509C084E035
:101990008DA380EF8AA381E090E08EA39FA35BC01C
:1019A0002EA13FA1C90163E070E00E941614FE0160
:1019B000E80FF91F87EF82A3B9016F5F7F4F6EA316
:1019C0007FA3CE014AA12BA10CA10E94C20B1DA294
:1019D00042C01DA21EA21FA23EC01DA21EA21FA287
:1019E0003AC0EDA1EE23B9F12EA13FA1C90163E0F8
:1019F00070E00E941614AC018C0F9D1FDC019296C2
:101A00000C9392972F5F3F4F2EA33FA34130510578
:101A100091F042305105F9F4CE01B9014AA12BA150
:101A20000CA10E94C20B8DA18430A9F081E090E04E
:101A30008EA39FA310C0E23071F4CE01B9014AA178
:101A40002BA100E00E94C20B8DA1843021F081E027
:101A500090E08EA39FA3DF91CF911F910F910895E6
:101A6000CF92DF92EF92FF920F931F93CF93DF936A
:101A70007C01DC019096ED91FC919197309709F0F3
:101A80000995870108511F4FC8010E946709C82E98
:101A9000DD24C114D10491F0C0E0D0E0C80160E0C1
:101AA0000E947D09682FC7010E947E0CC80161E079
:101AB0000E948D092196CC15DD0580F3DF91CF9131
:101AC0001F910F91FF90EF90DF90CF900895EF92CC
:101AD000FF920F931F937B018C0120E030E040E0E8
:101AE0005FE40E94E31087FD11C0C801B70120E048
:101AF00030E040E05FE40E940A0F0E9443119B0126
:101B0000AC01205030404040504806C0C801B701E9
:101B10000E9443119B01AC01B901CA011F910F91B1
:101B2000FF90EF900895A0E0B0E0E9E9FDE00C94AB
:101B30006314FC01EA018081823008F438C1DB01C2
:101B40009C91923008F430C1843059F4943009F0FB
:101B50002EC1918111968C911197981709F021C18E
:101B600026C1943009F420C19230B1F4823009F0DA
:101B70001EC1CA01AF0128E0DA010D90AD01DC0100
:101B80000D92CD012150C1F7DB0111968C91119777
:101B90009181892389830AC1823009F405C1C280F9
:101BA000D380DB0112966D907C9013972481358150
:101BB000468157811496ED90FD900D911C911797D9
:101BC000C601861997095C0197FF04C0AA24BB24AB
:101BD000A81AB90AB0E2AB16B1040CF061C018162D
:101BE00019066CF5370148010A2C04C096948794B5
:101BF000779467940A94D2F781E090E0A0E0B0E097
:101C00000A2C04C0880F991FAA1FBB1F0A94D2F781
:101C10000197A109B1098E219F21A023B123EE24B0
:101C2000FF248701E3940097A105B10519F4EE2480
:101C3000FF248701E628F728082919293CC00097C6
:101C4000D1F1CA0CDB1C39014A010A2C04C096945C
:101C50008794779467940A94D2F781E090E0A0E0AB
:101C6000B0E00A2C04C0880F991FAA1FBB1F0A945A
:101C7000D2F70197A109B10982239323A423B523A5
:101C800021E030E040E050E00097A105B10519F4F3
:101C900020E030E0A90126293729482959290BC01D
:101CA0006C147D0424F4EE24FF24870104C0630136
:101CB00020E030E0A9018181FB019181891709F4BD
:101CC00045C0882349F0D801C701821B930BA40BA0
:101CD000B50B9C01AD0104C02E193F09400B510BFF
:101CE00057FD04C01982CA82DB820BC081E0898360
:101CF000CA82DB8250954095309521953F4F4F4FDA
:101D00005F4F2C833D834E835F830DC0880F991FE7
:101D1000AA1FBB1F8C839D83AE83BF838A819B8157
:101D200001978A839B838C819D81AE81BF819C01B9
:101D3000AD0121503040404050402F3FEFEF3E0773
:101D4000EFEF4E07EFE35E0708F30BC08983CA820B
:101D5000DB822E0D3F1D401F511F2C833D834E8380
:101D60005F8383E088832C813D814E815F8157FFB3
:101D70001DC0DA01C90181709070A070B0705695D5
:101D8000479537952795822B932BA42BB52B8C83C6
:101D90009D83AE83BF838A819B8101968A839B83C7
:101DA00005C0E7E8F0E203C0FB0101C0FE01CF017E
:101DB000CDB7DEB7EEE00C947C14A0E2B0E0E3EE29
:101DC000FEE00C946B1469837A838B839C832D8350
:101DD0003E834F83588789E0E82EF12CEC0EFD1EE0
:101DE000CE010196B7010E9435138E010F5E1F4F81
:101DF000CE010596B8010E943513C701B801AE01A6
:101E0000475E5F4F0E94930D0E946712A096E6E026
:101E10000C948414A0E2B0E0E0E1FFE00C946B14B9
:101E200069837A838B839C832D833E834F8358877A
:101E30008E01075F1F4FCE010196B8010E94351336
:101E400091E1E92EF12CEC0EFD1ECE010596B701B5
:101E50000E9435138A8991E089278A8BC801B701CE
:101E6000AE01475E5F4F0E94930D0E946712A096DD
:101E7000E6E00C948414A0E2B0E0E1E4FFE00C940E
:101E80005F1469837A838B839C832D833E834F8386
:101E90005887CE010196BE01675F7F4F0E943513C0
:101EA000CE010596BE016F5E7F4F0E943513998566
:101EB000923078F089898230C0F0943019F4823001
:101EC00041F4CBC0843019F4923079F4C6C092301A
:101ED00051F481E02A859A89291709F480E08A87DC
:101EE000CE010996BCC0823051F481E02A859A89DE
:101EF000291709F480E08A8BCE014196B0C06D8429
:101F00007E848F849888ED88FE880F89188DE0E2A2
:101F1000F0E080E090E0DC01AA24BB24650120E031
:101F200030E0A901B3016170707061157105D1F0E5
:101F30002E0D3F1D401F511F15012601280E391E71
:101F40004A1E5B1E81E090E0A0E0B0E02E153F0548
:101F50004007510718F080E090E0DC01820D931DEE
:101F6000A41DB51DAA0CBB1CCC1CDD1C17FF09C091
:101F700061E0262E312C412C512CA228B328C428F4
:101F8000D528319749F0EE0CFF1C001F111F9694C5
:101F9000879477946794C6CF6B897C89EB85FC85A1
:101FA0006E0F7F1F6E5F7F4F6B8F7C8F61E0EA85C6
:101FB0007A89E71709F460E06A8F6B8D7C8D10C019
:101FC000FC01E170F070309729F0569547953795F0
:101FD00027955068B695A795979587956F5F7F4F22
:101FE000B7FDEECF0CC0880F991FAA1FBB1F57FD6E
:101FF0008160220F331F441F551F61507040803095
:10200000E0E09E07E0E0AE07E0E4BE0760F36B8F20
:102010007C8F6FE7E62EF12C012D112DE822F9229D
:102020000A231B2360E4E616F1040105110561F49F
:1020300087FD0AC0211531054105510529F0805C55
:102040009F4FAF4FBF4F80788D8F9E8FAF8FB8A3BC
:1020500083E0898FCE01499602C087E890E20E9412
:102060006712A096E2E10C947814A8E1B0E0EBE3EB
:10207000F0E10C94671469837A838B839C832D83AE
:102080003E834F8358878E01075F1F4FCE01019615
:10209000B8010E94351381E1E82EF12CEC0EFD1EF3
:1020A000CE010596B7010E9435139985923008F448
:1020B00083C08989823008F47BC02A853A89232726
:1020C0002A87943011F0923021F4981709F06CC0EF
:1020D00071C0843039F41D861E861F86188A1B86BF
:1020E0001C866AC0823019F484E0898765C08B85BC
:1020F0009C852B893C89821B930B8B879C872D8524
:102100003E854F855889ED88FE880F89188D2E15DC
:102110003F054007510738F4220F331F441F551F56
:1021200001978B879C876FE170E0A12CB12CC12CAB
:10213000A0E4DA2E80E090E0DC012E153F05400798
:10214000510740F08A299B29AC29BD292E193F0946
:10215000400B510BD694C794B794A794220F331F0A
:10216000441F551F6150704041F76FE7E62EF12C78
:10217000012D112DE822F9220A231B2360E4E61623
:10218000F1040105110561F487FD0AC0211531052F
:102190004105510529F0805C9F4FAF4FBF4F8078BC
:1021A0008D879E87AF87B88B8E01075F1F4F04C056
:1021B000870102C007E810E2C8010E946712689612
:1021C000EAE00C948014A8E1B0E0E9EEF0E10C94B0
:1021D0006B1469837A838B839C832D833E834F8327
:1021E00058878E01075F1F4FCE010196B8010E94EC
:1021F000351381E1E82EF12CEC0EFD1ECE01059683
:10220000B7010E9435138985823040F08989823078
:1022100028F0C801B7010E949E1301C08FEF689695
:10222000E6E00C948414A8E1B0E0E9E1F1E10C945B
:102230006B1469837A838B839C832D833E834F83C6
:1022400058878E01075F1F4FCE010196B8010E948B
:10225000351381E1E82EF12CEC0EFD1ECE01059622
:10226000B7010E9435138985823040F08989823018
:1022700028F0C801B7010E949E1301C081E0689652
:10228000E6E00C948414ACE0B0E0E9E4F1E10C94F5
:102290006F1469837A838B839C83CE010196BE0180
:1022A0006B5F7F4F0E9435138D81823081F18230C8
:1022B00070F1843021F48E81882369F10AC02F8166
:1022C000388537FD24C06E812F3131053CF06623FF
:1022D00011F120E030E040E050E821C08EE190E0D4
:1022E000821B930B29853A854B855C8504C05695E6
:1022F0004795379527958A95D2F7662381F05095B3
:102300004095309521953F4F4F4F5F4F08C020E0DB
:1023100030E0A90104C02FEF3FEF4FEF5FE7B901B5
:10232000CA012C96E2E00C948814A8E0B0E0EBE936
:10233000F1E10C9469147B018C011A82611571051D
:102340008105910519F482E089835FC083E0898368
:102350008EE1C82ED12CCB82DC82ED82FE820F83EF
:102360001887C801B7010E940D12FC013197F7FFD1
:102370003AC0AA27BB27AE1BBF0B21E030E040E0EC
:1023800050E00A2E04C0220F331F441F551F0A9429
:10239000D2F721503040404050402E213F21402371
:1023A000512361E070E080E090E0211531054105A6
:1023B000510519F460E070E0CB0104C01695079553
:1023C000F794E794AA95D2F7E62AF72A082B192B57
:1023D000ED82FE820F8318878EE190E08E1B9F0BAB
:1023E0008B839C8312C0309781F00E2E04C0EE0CBC
:1023F000FF1C001F111F0A94D2F7ED82FE820F838B
:102400001887CE1ADF0ACB82DC82CE0101960E94A9
:1024100067122896E8E00C948214AF92BF92CF9294
:10242000DF92EF92FF920F931F937B018C0180E06C
:10243000E81680E0F80681E0080780E0180758F405
:10244000EFEFEE16F1040105110509F090F480E0BC
:1024500090E0DC0117C0F0E0EF16F0E0FF06F0E0DE
:102460000F07F1E01F0750F480E190E0A0E0B0E03A
:1024700009C088E090E0A0E0B0E004C088E190E00E
:10248000A0E0B0E020E230E040E050E0281B390B53
:102490004A0B5B0B5701680104C0D694C794B794EC
:1024A000A7948A95D2F7D601C50181579F4DFC01AB
:1024B0008081281B310941095109C9011F910F91E0
:1024C000FF90EF90DF90CF90BF90AF900895EF9284
:1024D000FF920F931F93CF93DF93FC0124813581EB
:1024E0004681578161818081823020F44061EFEF25
:1024F000F0E0A3C0843009F49BC0823009F492C09C
:10250000211531054105510509F48FC00280F38181
:10251000E02D8FEFE238F8070CF05AC0C2E8DFEF89
:10252000CE1BDF0BCA31D1056CF579018A010C2E67
:1025300004C016950795F794E7940A94D2F781E0C2
:1025400090E0A0E0B0E00C2E04C0880F991FAA1FF5
:10255000BB1F0A94D2F70197A109B10982239323E3
:10256000A423B52321E030E040E050E00097A1052E
:10257000B10519F420E030E0A9012E293F29402BB4
:10258000512B03C020E030E0A901DA01C9018F77A7
:102590009070A070B07080349105A105B10539F438
:1025A00027FF09C0205C3F4F4F4F5F4F04C0215CA5
:1025B0003F4F4F4F5F4FE1E0F0E0203080E03807C1
:1025C00080E0480780E4580728F5E0E0F0E022C00A
:1025D000E038F1056CF5E158FF4FDA01C9018F775A
:1025E0009070A070B07080349105A105B10539F4E8
:1025F00027FF09C0205C3F4F4F4F5F4F04C0215C55
:102600003F4F4F4F5F4F57FF05C056954795379542
:102610002795319687E056954795379527958A9562
:10262000D1F70BC0E0E0F0E005C0E0E0F0E005C06D
:10263000EFEFF0E020E030E0A9018E2F87958827AA
:102640008795942F9F77679566276795E695E22E85
:10265000A92FA82BFE2FF62B622F732F8A2F9F2FC7
:10266000CDB7DEB7E6E00C948414DC01FB012C91BD
:1026700011963C91119712968C911297482F4F7793
:1026800050E0982F991F9927991F13966C911397D3
:10269000862F880F892B90E0661F6627661F61834F
:1026A000009739F5211531054105510511F482E0F6
:1026B00029C082E89FEF8283938367E0220F331F54
:1026C000441F551F6A95D1F783E0808309C0220F0C
:1026D000331F441F551F8281938101978283938307
:1026E000203080E0380780E0480780E4580778F31E
:1026F00020C08F3F910579F4211531054105510521
:1027000019F484E08083089544FF03C081E080834E
:1027100010C010820EC08F5790408283938383E055
:10272000808387E0220F331F441F551F8A95D1F7FE
:10273000506424833583468357830895FC01DB016D
:102740009081923008F449C08C91823008F445C0E1
:10275000943051F461818430B1F511962C91119728
:1027600030E0261B310941C0843021F0923041F421
:102770008230B1F111968C9111978823A1F12DC06F
:102780006181823001F111968C9111976817D9F40B
:102790002281338112968D919C9113978217930712
:1027A00094F028173907BCF0248135814681578180
:1027B00014968D919D910D90BC91A02D8217930739
:1027C000A407B50718F4662341F00DC02817390790
:1027D0004A075B0728F4662331F021E030E005C0AA
:1027E00020E030E002C02FEF3FEFC9010895629F63
:1027F000D001739FF001829FE00DF11D649FE00DF9
:10280000F11D929FF00D839FF00D749FF00D659F59
:10281000F00D9927729FB00DE11DF91F639FB00D58
:10282000E11DF91FBD01CF0111240895AA1BBB1B97
:1028300051E107C0AA1FBB1FA617B70710F0A61BC0
:10284000B70B881F991F5A95A9F780959095BC01E1
:10285000CD01089597FB092E07260AD077FD04D0F5
:10286000E5DF06D000201AF4709561957F4F08953A
:10287000F6F7909581959F4F0895A1E21A2EAA1B15
:10288000BB1BFD010DC0AA1FBB1FEE1FFF1FA21720
:10289000B307E407F50720F0A21BB30BE40BF50B1D
:1028A000661F771F881F991F1A9469F760957095A6
:1028B000809590959B01AC01BD01CF0108952F92A9
:1028C0003F924F925F926F927F928F929F92AF92C0
:1028D000BF92CF92DF92EF92FF920F931F93CF930D
:1028E000DF93CDB7DEB7CA1BDB0BCDBFDEBF0994CC
:1028F0002A88398848885F846E847D848C849B8490
:10290000AA84B984C884DF80EE80FD800C811B819D
:10291000AA81B981CE0FD11DCDBFDEBFED010895D3
:04292000F894FFCF59
:102924003237353C3B412800000000010000000222
:102934000000000400000008000000400000000047
:10294400010000000400000000000001000000027B
:102954000000000400000008000000400000000027
:102964000100000004000001000000030000000456
:102974000000000200000003000000080000000442
:102984000000000600000001000000020000000337
:10299400000000010000000100000003000000012D
:1029A4000000000100000000000000000000000022
:1029B40001020203030303040404040404040405DD
:1029C40005050505050505050505050505050506B2
:1029D4000606060606060606060606060606060693
:1029E4000606060606060606060606060606060782
:1029F4000707070707070707070707070707070763
:102A04000707070707070707070707070707070752
:102A14000707070707070707070707070707070742
:102A24000707070707070707070707070707070831
:102A34000808080808080808080808080808080812
:102A44000808080808080808080808080808080802
:102A540008080808080808080808080808080808F2
:102A640008080808080808080808080808080808E2
:102A740008080808080808080808080808080808D2
:102A840008080808080808080808080808080808C2
:102A940008080808080808080808080808080808B2
:102AA40008080808080808080808080808080800AA
:00000001FF
