:100000000C94BC000C94D1000C94D1000C94D10041
:100010000C94D1000C94D1000C94D1000C94D1001C
:100020000C94D1000C94D1000C94D1000C94D1000C
:100030000C94D1000C94D1000C94D1000C94D100FC
:100040000C94D1000C94D1000C94D1000C94D100EC
:100050000C94D1000C94D1000C94D1000C94D100DC
:100060000C94D1000C94D1000C94D1000C94D100CC
:100070000C94D1000C94D1000C94D1000C94D100BC
:100080000C94D1000C94D1000C94D1000C94D100AC
:100090000C94D1000C94D1000C94D1000C94D1009C
:1000A0000C94D1000C94D1000C94D1000C94D1008C
:1000B0000C94D1000C94D1000C94D1000C94D1007C
:1000C0000C94D1000C94D1000C94D1000C94D1006C
:1000D0000C94D1000C94D1000C94D1000C94D1005C
:1000E0000C94D1000C94D1000C94D1000C94D1004C
:1000F0000C94D1000C94D1000C94D1000C94D1003C
:100100000C94D1000C94D1000C94D1000C94D1002B
:100110000C94D1000C94D1000C94D1000C94D1001B
:100120000C94D1000C94D1000C94D1000C94D1000B
:100130000C94D1000C94D1000C94D1000C94D100FB
:100140000C94D1000C94D1000C94D1000C94D100EB
:100150000C94D1000C94D1000C94D1000C94D100DB
:100160000C94D1000C94D1000C94D1000C94D100CB
:100170000C94D1000C94D10011241FBECFEFD7E214
:10018000DEBFCDBF11E2A0E0B0E2EEEEF8E102C0CA
:1001900005900D92A830B107D9F70E94A6050C94DE
:1001A000750C0C940000DF93CF9300D0CDB7DEB771
:1001B000198282E08A8380E490E021E0FC012183BF
:1001C00080E490E024E0FC01238380E590E02BE8CC
:1001D000FC01228380E590E028E0FC012083198265
:1001E00009C080E590E0FC01818186958695869521
:1001F0008170898389818823A1F380E590E02A8139
:100200002054FC01258380E590E028E1FC01208357
:100210001982198208C080E590E0FC0181818295F5
:100220008F708170898389818823A9F384E390E0AA
:1002300028EDFC01208380E490E024E0FC01208391
:1002400080E096E026E0FC01208380E296E0FC015D
:10025000108280E496E028EFFC01208380E696E09F
:100260002FEBFC01208380E896E021E0FC01208355
:10027000F89480EB99E027E2FC01238380EB99E07E
:1002800028E1FC01248380EB99E023E0FC01258335
:1002900080EB99E02FE2FC01268380EB99E0FC01E2
:1002A000178280EA90E020EA30E0F901228127609D
:1002B000FC01228378940F900F90CF91DF910895E5
:1002C000DF93CF93CDB7DEB72897CDBFDEBF80E4F5
:1002D00096E028E0FC01208380EF9FE0A0E0B0E002
:1002E00089839A83AB83BC831D821E821F821886FA
:1002F00001C0000089819A81AB81BC819C01AD0164
:1003000056954795379527958D819E81AF81B88504
:10031000281739074A075B0730F480E496E028E0A5
:10032000FC01258305C080E496E028E0FC012683DB
:100330008D819E81AF81B8850196A11DB11D8D83F0
:100340009E83AF83B8872D813E814F8158858981F7
:100350009A81AB81BC8182179307A407B507F0F49B
:100360001D821E821F82188629813A814B815C8101
:10037000DA01C901880F991FAA1FBB1F820F931FA3
:10038000A41FB51FB695A79597958795B695A79580
:100390009795879589839A83AB83BC8389819A815A
:1003A000AB81BC818F309105A105B10508F0A1CFCB
:1003B00080EF9FE0A0E0B0E089839A83AB83BC83A9
:1003C00099CFDF93CF93CDB7DEB72897CDBFDEBFF0
:1003D00080E496E028E0FC01218380E896E028E0B4
:1003E000FC01228380EF9FEFA0E0B0E089839A8335
:1003F000AB83BC831D821E821F82188680E496E038
:1004000028E0FC01258365C089819A81AB81BC818C
:100410009C01AD0156954795379527958D819E8115
:10042000AF81B885281739074A075B0730F480E4A5
:1004300096E028E0FC01258305C080E496E028E0F2
:10044000FC0126838D819E81AF81B8850196A11D17
:10045000B11D8D839E83AF83B8872D813E814F81EF
:10046000588589819A81AB81BC8182179307A40743
:10047000B507F0F41D821E821F82188629813A81F9
:100480004B815C81DA01C901880F991FAA1FBB1F2C
:10049000820F931FA41FB51FB695A79597958795B3
:1004A000B695A7959795879589839A83AB83BC83E7
:1004B00089819A81AB81BC818F309105A105B105FD
:1004C00040F480EF9FEFA0E0B0E089839A83AB8394
:1004D000BC8380E896E0FC018085882F90E08870DE
:1004E0009070009709F090CF7DCFDF93CF93CDB779
:1004F000DEB72897CDBFDEBF80E496E028E0FC01A0
:10050000218380E896E028E0FC0122831D821E8280
:100510001F82188601C0000080E896E0FC018085FB
:10052000882F90E088709070009749F080EF9EE0EF
:10053000A0E0B0E089839A83AB83BC8308C080E0ED
:1005400099E0A0E0B0E089839A83AB83BC838D817E
:100550009E81AF81B8850196A11DB11D8D839E83BB
:10056000AF83B8872D813E814F81588589819A81DB
:10057000AB81BC8182179307A407B50760F680E4BE
:1005800096E028E0FC0127831D821E821F821886C8
:10059000C3CFDF93CF93CDB7DEB72C97CDBFDEBFF0
:1005A00080E496E028E0FC01218380E896E028E0E2
:1005B000FC01228384E690E0A0E0B0E089879A877E
:1005C000AB87BC8781E090E0A0E0B0E089839A83AC
:1005D000AB83BC831D821E821F82188601C000006F
:1005E00080E896E0FC018085882F90E0887090700C
:1005F000009749F089859A85AB85BC8589839A8364
:10060000AB83BC8308C08AE090E0A0E0B0E08983BF
:100610009A83AB83BC832D813E814F81588589812C
:100620009A81AB81BC8182179307A407B50730F08C
:1006300080E496E028E0FC01268305C080E496E093
:1006400028E0FC0125838D819E81AF81B8850196CC
:10065000A11DB11D8D839E83AF83B8872D813E81FF
:100660004F81588589859A85AB85BC85821793070C
:10067000A407B50708F0B3CF1D821E821F8218861B
:10068000AFCFDF93CF93CDB7DEB76897CDBFDEBFD7
:1006900080E096E026E0FC01218380E096E026E001
:1006A000FC01258380E496E028EFFC01218380E6AD
:1006B00096E02FEBFC01218380E696E028E3FC0125
:1006C000258380E496E020EFFC01258380E696E018
:1006D0002FE3FC01268380E896E028E0FC012283DA
:1006E00019821A821B821C828FE890E0A0E0B0E0A1
:1006F0008D8B9E8BAF8BB88F1D821E821F821886BA
:1007000019861A861B861C861D861E861F86188AD9
:10071000198A1A8A1B8A1C8A07C0000005C00000BB
:1007200003C0000001C0000089899A89AB89BC8997
:100730002AE030E040E050E0BC01CD010E94110C05
:100740009B01AC018D859E85AF85B889280F391F27
:100750004A1F5B1F8D819E81AF81B88582179307E9
:10076000A407B50758F080E496E028E0FC01268352
:1007700080E696E027E0FC0126830AC080E496E04C
:1007800028E0FC01258380E696E027E0FC01258334
:1007900080E696E020E1FC01268380E496E020EFED
:1007A000FC01268380E496E029892295207FFC01C4
:1007B000258380E696E020E1FC01258380E696E033
:1007C00028E0FC01268380E496E020EFFC012683EC
:1007D00080E496E02D852295207FFC01258380E62C
:1007E00096E028E0FC01258380E696E020E2FC010B
:1007F000268380E496E020EFFC01268380E496E0E7
:1008000029852295207FFC01258380E696E020E261
:10081000FC0125838D819E81AF81B8850196A11D44
:10082000B11D8D839E83AF83B8878D819E81AF81FB
:10083000B88584369105A105B10520F01D821E8280
:100840001F82188689819A81AB81BC810196A11D86
:10085000B11D89839A83AB83BC8329813A814B8103
:100860005C818D899E89AF89B88D82179307A40713
:10087000B50708F052CF19821A821B821C82898523
:100880009A85AB85BC850196A11DB11D89879A8784
:10089000AB87BC8789859A85AB85BC858A309105F5
:1008A000A105B10508F43BCF19861A861B861C8664
:1008B0008D859E85AF85B8890196A11DB11D8D8757
:1008C0009E87AF87B88B8D859E85AF85B8898A3026
:1008D0009105A105B10508F424CF1D861E861F864B
:1008E000188A89899A89AB89BC890196A11DB11D95
:1008F000898B9A8BAB8BBC8B89899A89AB89BC8994
:100900008A309105A105B10508F40DCF198A1A8A1C
:100910001B8A1C8A09CFDF93CF93CDB7DEB72C9704
:10092000CDBFDEBF80E096E026E0FC01218380E0C1
:1009300096E029EFFC01228380E096E026E0FC01AE
:10094000258380E496E028EFFC01218380E696E091
:100950002FEBFC01218380E896E028E0FC01228354
:1009600080E696E020EFFC01268380E496E020EF0D
:10097000FC01268380E496E020E7FC01258380E6E5
:1009800096E020EFFC01258319821A828FEF99E00F
:100990008B839C831D821E8280E090E0DC018F832C
:1009A0009887A987BA871B861C8680E092E0FC01A5
:1009B000108280E092E0FC01118280E092E020E26F
:1009C000FC01228380E092E0FC01138280E092E04F
:1009D000FC01148280E092E0FC01168280E092E04B
:1009E00020E032E0F90120812160FC01208380E0D9
:1009F00092E021E0FC0120A380E092E028E3FC01EA
:100A000021A380E092E0FC0112A280E092E020E0CD
:100A100032E0F90123A12160FC0123A380E092E0F0
:100A200020E032E0F90120A12068FC0120A380E44D
:100A300096E028E0FC01258319821A8213C089817F
:100A40009A81019689839A8329813A818B819C813D
:100A50008217930738F419821A8280E496E028E01E
:100A6000FC01278380E092E0FC0183A1882F90E0C5
:100A700081709070009719F380E496E028E0FC0103
:100A8000258380E092E0FC0184A1882F90E08D8393
:100A90009E8380E092E0FC0185A1882F90E0982F52
:100AA00088272D813E81822B932B8D839E838D8180
:100AB0009E81CC01A0E0B0E0BC01CD010E94AF0955
:100AC000DC01CB01BC01CD0120E030E040E151E48C
:100AD0000E948507DC01CB018F839887A987BA879D
:100AE0006F81788589859A8520E030EF4FE755E45E
:100AF0000E947F08DC01CB018F839887A987BA8782
:100B00006F81788589859A850E94B105DC01CB01CA
:100B100029E030E0B9010E94300C8B879C8780E689
:100B200096E020EFFC01268380E496E020EFFC01B4
:100B3000268380E496E02B852295207FFC01258387
:100B400080E696E020EFFC0125835FCFDF93CF9313
:100B5000CDB7DEB70E94410380E090E0CF91DF91F6
:100B60000895EF92FF920F931F937B018C0120E079
:100B700030E040E05FE40E942D0987FD11C0C8010C
:100B8000B70120E030E040E05FE40E9454070E949B
:100B90005D099B01AC01205030404040504806C0E8
:100BA000C801B7010E945D099B01AC01B901CA01EE
:100BB0001F910F91FF90EF900895A0E0B0E0E3EE59
:100BC000F5E00C94480CFC01EA018081823008F4C5
:100BD00038C1DB019C91923008F430C1843059F463
:100BE000943009F02EC1918111968C91119798172C
:100BF00009F021C126C1943009F420C19230B1F42A
:100C0000823009F01EC1CA01AF0128E0DA010D905F
:100C1000AD01DC010D92CD012150C1F7DB01119630
:100C20008C9111979181892389830AC1823009F4BB
:100C300005C1C280D380DB0112966D907C90139722
:100C400024813581468157811496ED90FD900D9158
:100C50001C911797C601861997095C0197FF04C07C
:100C6000AA24BB24A81AB90AB0E2AB16B1040CF04E
:100C700061C0181619066CF5370148010A2C04C02A
:100C800096948794779467940A94D2F781E090E0E1
:100C9000A0E0B0E00A2C04C0880F991FAA1FBB1F58
:100CA0000A94D2F70197A109B1098E219F21A023AF
:100CB000B123EE24FF248701E3940097A105B10539
:100CC00019F4EE24FF248701E628F72808291929BA
:100CD0003CC00097D1F1CA0CDB1C39014A010A2C37
:100CE00004C096948794779467940A94D2F781E02D
:100CF00090E0A0E0B0E00A2C04C0880F991FAA1F62
:100D0000BB1F0A94D2F70197A109B109822393234B
:100D1000A423B52321E030E040E050E00097A10596
:100D2000B10519F420E030E0A90126293729482926
:100D300059290BC06C147D0424F4EE24FF24870190
:100D400004C0630120E030E0A9018181FB019181B1
:100D5000891709F445C0882349F0D801C701821BCF
:100D6000930BA40BB50B9C01AD0104C02E193F09D8
:100D7000400B510B57FD04C01982CA82DB820BC0A5
:100D800081E08983CA82DB82509540953095219518
:100D90003F4F4F4F5F4F2C833D834E835F830DC08A
:100DA000880F991FAA1FBB1F8C839D83AE83BF83AF
:100DB0008A819B8101978A839B838C819D81AE81EF
:100DC000BF819C01AD0121503040404050402F3F39
:100DD000EFEF3E07EFEF4E07EFE35E0708F30BC0C0
:100DE0008983CA82DB822E0D3F1D401F511F2C8339
:100DF0003D834E835F8383E088832C813D814E81D8
:100E00005F8157FF1DC0DA01C90181709070A07029
:100E1000B0705695479537952795822B932BA42B29
:100E2000B52B8C839D83AE83BF838A819B81019682
:100E30008A839B8305C0E0E0F0E203C0FB0101C0B0
:100E4000FE01CF01CDB7DEB7EEE00C94610CA0E25D
:100E5000B0E0EDE2F7E00C94500C69837A838B8369
:100E60009C832D833E834F83588789E0E82EF12CA5
:100E7000EC0EFD1ECE010196B7010E944F0B8E01B4
:100E80000F5E1F4FCE010596B8010E944F0BC701A0
:100E9000B801AE01475E5F4F0E94DD050E94810AE6
:100EA000A096E6E00C94690CA0E2B0E0EAE5F7E079
:100EB0000C94500C69837A838B839C832D833E83AF
:100EC0004F8358878E01075F1F4FCE010196B801EF
:100ED0000E944F0B91E1E92EF12CEC0EFD1ECE018C
:100EE0000596B7010E944F0B8A8991E089278A8B6A
:100EF000C801B701AE01475E5F4F0E94DD050E9449
:100F0000810AA096E6E00C94690CA0E2B0E0EBE860
:100F1000F7E00C94440C69837A838B839C832D8344
:100F20003E834F835887CE010196BE01675F7F4F96
:100F30000E944F0BCE010596BE016F5E7F4F0E944F
:100F40004F0B9985923078F089898230C0F09430C7
:100F500019F4823041F4CBC0843019F4923079F422
:100F6000C6C0923051F481E02A859A89291709F484
:100F700080E08A87CE010996BCC0823051F481E0BE
:100F80002A859A89291709F480E08A8BCE01419637
:100F9000B0C06D847E848F849888ED88FE880F8928
:100FA000188DE0E2F0E080E090E0DC01AA24BB24B0
:100FB000650120E030E0A901B30161707070611536
:100FC0007105D1F02E0D3F1D401F511F1501260147
:100FD000280E391E4A1E5B1E81E090E0A0E0B0E0C2
:100FE0002E153F054007510718F080E090E0DC0126
:100FF000820D931DA41DB51DAA0CBB1CCC1CDD1CB1
:1010000017FF09C061E0262E312C412C512CA2285B
:10101000B328C428D528319749F0EE0CFF1C001FD7
:10102000111F9694879477946794C6CF6B897C89B7
:10103000EB85FC856E0F7F1F6E5F7F4F6B8F7C8F04
:1010400061E0EA857A89E71709F460E06A8F6B8DC1
:101050007C8D10C0FC01E170F070309729F056953E
:101060004795379527955068B695A7959795879595
:101070006F5F7F4FB7FDEECF0CC0880F991FAA1F7F
:10108000BB1F57FD8160220F331F441F551F615046
:1010900070408030E0E09E07E0E0AE07E0E4BE078D
:1010A00060F36B8F7C8F6FE7E62EF12C012D112DF5
:1010B000E822F9220A231B2360E4E616F104010565
:1010C000110561F487FD0AC021153105410551055F
:1010D00029F0805C9F4FAF4FBF4F80788D8F9E8FE0
:1010E000AF8FB8A383E0898FCE01499602C080E01C
:1010F00090E20E94810AA096E2E10C945D0CA8E1C6
:10110000B0E0E5E8F8E00C944C0C69837A838B83BB
:101110009C832D833E834F8358878E01075F1F4F2B
:10112000CE010196B8010E944F0B81E1E82EF12C0F
:10113000EC0EFD1ECE010596B7010E944F0B99855E
:10114000923008F483C08989823008F47BC02A85F4
:101150003A8923272A87943011F0923021F4981786
:1011600009F06CC071C0843039F41D861E861F865C
:10117000188A1B861C866AC0823019F484E089872D
:1011800065C08B859C852B893C89821B930B8B8743
:101190009C872D853E854F855889ED88FE880F896F
:1011A000188D2E153F054007510738F4220F331FC5
:1011B000441F551F01978B879C876FE170E0A12C1E
:1011C000B12CC12CA0E4DA2E80E090E0DC012E15D9
:1011D0003F054007510740F08A299B29AC29BD29CA
:1011E0002E193F09400B510BD694C794B794A7947E
:1011F000220F331F441F551F6150704041F76FE7A6
:10120000E62EF12C012D112DE822F9220A231B23B1
:1012100060E4E616F1040105110561F487FD0AC0DA
:10122000211531054105510529F0805C9F4FAF4FD5
:10123000BF4F80788D879E87AF87B88B8E01075F01
:101240001F4F04C0870102C000E010E2C8010E94E5
:10125000810A6896EAE00C94650CA8E1B0E0E3E34B
:10126000F9E00C94500C69837A838B839C832D83E3
:101270003E834F8358878E01075F1F4FCE01019633
:10128000B8010E944F0B81E1E82EF12CEC0EFD1EFF
:10129000CE010596B7010E944F0B8985823040F040
:1012A0008989823028F0C801B7010E94B80B01C0BB
:1012B0008FEF6896E6E00C94690CACE0B0E0E3E6F2
:1012C000F9E00C94540C69837A838B839C83CE0160
:1012D0000196BE016B5F7F4F0E944F0B8D81823064
:1012E00081F1823070F1843021F48E81882369F19C
:1012F0000AC02F81388537FD24C06E812F3131051A
:101300003CF0662311F120E030E040E050E821C0DD
:101310008EE190E0821B930B29853A854B855C8595
:1013200004C056954795379527958A95D2F7662339
:1013300081F050954095309521953F4F4F4F5F4F2D
:1013400008C020E030E0A90104C02FEF3FEF4FEFCD
:101350005FE7B901CA012C96E2E00C946D0CA8E09D
:10136000B0E0E5EBF9E00C944E0C7B018C011A82A5
:10137000611571058105910519F482E089835FC0CB
:1013800083E089838EE1C82ED12CCB82DC82ED8272
:10139000FE820F831887C801B7010E94270AFC014B
:1013A0003197F7FF3AC0AA27BB27AE1BBF0B21E03E
:1013B00030E040E050E00A2E04C0220F331F441FEB
:1013C000551F0A94D2F721503040404050402E2102
:1013D0003F214023512361E070E080E090E021153F
:1013E00031054105510519F460E070E0CB0104C0FE
:1013F00016950795F794E794AA95D2F7E62AF72A67
:10140000082B192BED82FE820F8318878EE190E066
:101410008E1B9F0B8B839C8312C0309781F00E2E06
:1014200004C0EE0CFF1C001F111F0A94D2F7ED82BE
:10143000FE820F831887CE1ADF0ACB82DC82CE01B0
:1014400001960E94810A2896E8E00C94670CAF92FE
:10145000BF92CF92DF92EF92FF920F931F937B0187
:101460008C0180E0E81680E0F80681E0080780E063
:10147000180758F4EFEFEE16F1040105110509F015
:1014800090F480E090E0DC0117C0F0E0EF16F0E0AF
:10149000FF06F0E00F07F1E01F0750F480E190E055
:1014A000A0E0B0E009C088E090E0A0E0B0E004C0B7
:1014B00088E190E0A0E0B0E020E230E040E050E0E1
:1014C000281B390B4A0B5B0B5701680104C0D694EB
:1014D000C794B794A7948A95D2F7D601C501885FBF
:1014E0009F4DFC018081281B310941095109C90127
:1014F0001F910F91FF90EF90DF90CF90BF90AF9032
:101500000895EF92FF920F931F93CF93DF93FC0107
:10151000248135814681578161818081823020F428
:101520004061EFEFF0E0A3C0843009F49BC082304B
:1015300009F492C0211531054105510509F48FC008
:101540000280F381E02D8FEFE238F8070CF05AC0EB
:10155000C2E8DFEFCE1BDF0BCA31D1056CF5790194
:101560008A010C2E04C016950795F794E7940A9407
:10157000D2F781E090E0A0E0B0E00C2E04C0880F2C
:10158000991FAA1FBB1F0A94D2F70197A109B1099D
:1015900082239323A423B52321E030E040E050E0F0
:1015A0000097A105B10519F420E030E0A9012E292A
:1015B0003F29402B512B03C020E030E0A901DA0184
:1015C000C9018F779070A070B07080349105A1052B
:1015D000B10539F427FF09C0205C3F4F4F4F5F4FE3
:1015E00004C0215C3F4F4F4F5F4FE1E0F0E02030FF
:1015F00080E0380780E0480780E4580728F5E0E0FD
:10160000F0E022C0E038F1056CF5E158FF4FDA0157
:10161000C9018F779070A070B07080349105A105DA
:10162000B10539F427FF09C0205C3F4F4F4F5F4F92
:1016300004C0215C3F4F4F4F5F4F57FF05C0569589
:10164000479537952795319687E056954795379575
:1016500027958A95D1F70BC0E0E0F0E005C0E0E007
:10166000F0E005C0EFEFF0E020E030E0A9018E2FC0
:10167000879588278795942F9F7767956627679525
:10168000E695E22EA92FA82BFE2FF62B622F732FA3
:101690008A2F9F2FCDB7DEB7E6E00C94690CDC01F2
:1016A000FB012C9111963C91119712968C911297F7
:1016B000482F4F7750E0982F991F9927991F13961D
:1016C0006C911397862F880F892B90E0661F6627F1
:1016D000661F6183009739F52115310541055105D4
:1016E00011F482E029C082E89FEF8283938367E050
:1016F000220F331F441F551F6A95D1F783E0808363
:1017000009C0220F331F441F551F82819381019707
:1017100082839383203080E0380780E0480780E4AC
:10172000580778F320C08F3F910579F421153105D2
:101730004105510519F484E08083089544FF03C0F6
:1017400081E0808310C010820EC08F57904082834A
:10175000938383E0808387E0220F331F441F551F4C
:101760008A95D1F75064248335834683578308953F
:10177000FC01DB019081923008F449C08C918230E9
:1017800008F445C0943051F461818430B1F511966C
:101790002C91119730E0261B310941C0843021F093
:1017A000923041F48230B1F111968C9111978823D7
:1017B000A1F12DC06181823001F111968C911197B8
:1017C0006817D9F42281338112968D919C911397D9
:1017D0008217930794F028173907BCF024813581CC
:1017E0004681578114968D919D910D90BC91A02DAD
:1017F00082179307A407B50718F4662341F00DC0BC
:10180000281739074A075B0728F4662331F021E0DF
:1018100030E005C020E030E002C02FEF3FEFC9010B
:101820000895629FD001739FF001829FE00DF11D2A
:10183000649FE00DF11D929FF00D839FF00D749F4A
:10184000F00D659FF00D9927729FB00DE11DF91FF6
:10185000639FB00DE11DF91FBD01CF011124089553
:10186000AA1BBB1B51E107C0AA1FBB1FA617B707C6
:1018700010F0A61BB70B881F991F5A95A9F78095E2
:101880009095BC01CD0108952F923F924F925F92A7
:101890006F927F928F929F92AF92BF92CF92DF9280
:1018A000EF92FF920F931F93CF93DF93CDB7DEB7E5
:1018B000CA1BDB0BCDBFDEBF09942A883988488854
:1018C0005F846E847D848C849B84AA84B984C8845C
:1018D000DF80EE80FD800C811B81AA81B981CE0F53
:0E18E000D11DCDBFDEBFED010895F894FFCFFE
:1018EE0000000000000000000001020203030303D9
:1018FE000404040404040404050505050505050592
:10190E000505050505050505060606060606060671
:10191E000606060606060606060606060606060659
:10192E000606060606060606070707070707070741
:10193E000707070707070707070707070707070729
:10194E000707070707070707070707070707070719
:10195E000707070707070707070707070707070709
:10196E0007070707070707070808080808080808F1
:10197E0008080808080808080808080808080808D9
:10198E0008080808080808080808080808080808C9
:10199E0008080808080808080808080808080808B9
:1019AE0008080808080808080808080808080808A9
:1019BE000808080808080808080808080808080899
:1019CE000808080808080808080808080808080889
:1019DE000808080808080808080808080808080879
:0819EE000808080808080808B1
:00000001FF
