:100000000C94BC000C94D9000C94D9000C94D90029
:100010000C94D9000C94D9000C94D9000C94D900FC
:100020000C94D9000C94D9000C94D9000C94D900EC
:100030000C94D9000C94D9000C94D9000C94D900DC
:100040000C9472030C94D9000C94D9000C94D90030
:100050000C94D9000C94D9000C94D9000C94D900BC
:100060000C94D9000C94D9000C94D9000C94D900AC
:100070000C94D9000C94D9000C94D9000C94D9009C
:100080000C94D9000C94D9000C94D9000C94D9008C
:100090000C94D9000C94D9000C94D9000C94D9007C
:1000A0000C94D9000C94D9000C94D9000C94D9006C
:1000B0000C94D9000C94D9000C94D9000C94D9005C
:1000C0000C94D9000C94D9000C94D9000C94D9004C
:1000D0000C94D9000C94D9000C94D9000C94D9003C
:1000E0000C94D9000C94D9000C94D9000C94D9002C
:1000F0000C94D9000C94D9000C94D9000C94D9001C
:100100000C94D9000C94D9000C94D9000C94D9000B
:100110000C94D9000C94D9000C94D9000C94D900FB
:100120000C94D9000C94D9000C94D9000C94D900EB
:100130000C94D9000C94D9000C94D9000C94D900DB
:100140000C94D9000C94D9000C94D9000C94D900CB
:100150000C94D9000C94D9000C94D9000C94D900BB
:100160000C94D9000C94D9000C94D9000C94A903D8
:100170000C94D9000C94D90011241FBECFEFD7E204
:10018000DEBFCDBF11E2A0E0B0E2E8E2F6E202C0DD
:1001900005900D92A833B107D9F712E2A8E3B1E2B6
:1001A00001C01D92A134B107E1F70E94C9070C9468
:1001B00012130C94000080914E210895CF92DF928B
:1001C000EF92FF920F931F93CF93DF93EB016A019E
:1001D000E82FF0E0EE0FFF1FEC5BFE4D60817181B8
:1001E00080E090E00E94171020E030EF43E755E4F4
:1001F0000E94E70E7B018C01CC1ADD0AB60180E07B
:1002000090E00E9417109B01AC01C801B7010E9449
:10021000ED0D8B01C82EE92EBE0180E090E00E941A
:1002200017109B01AC01602F712F8C2D9E2D0E9409
:100230008F0D0E94190CCB01DF91CF911F910F916F
:10024000FF90EF90DF90CF90089580913C2108952A
:1002500080913D21089580913A21089580913B211C
:100260000895809138210895809139210895CF9380
:10027000DF93E0E4F0E061E084E0C0E5D0E05BE83B
:1002800048E0A0E5B0E032EC28E198ED15C06183CC
:1002900083835A83409350007091510073FFFCCFC9
:1002A00015963C931597209350007091510074FF60
:1002B000FCCF94BF8093400070914000743039F7B8
:1002C000F894A0E6B6E080E815968C93159790E434
:1002D00012969C93129711968C931197E0EBF9E08C
:1002E00088E1848390E2938333E035838FE28683D1
:1002F00017828091A2008768E0EAF0E08283789418
:10030000C0E0D6E089EF8A83E0E0F2E010920002DC
:10031000118292831382148216828091000281607E
:100320008093000281E080A311A212A240E256E075
:100330008CE0FA01828328E080E896E0FC012283C9
:10034000FA01328386E089838D83E0E4F6E088EF6A
:1003500081838FE311968C93119788E315968C9384
:10036000159790EF958316968C93169787E01696BF
:100370008C9316972583DF91CF910895DF92EF92AA
:10038000FF920F931F93CF93DF93809188068695FA
:100390008695869591E009F090E0809128068695F3
:1003A000869580FD02C082E001C080E0E82EE92A47
:1003B0008091280686958695869580FD02C084E00A
:1003C00001C080E0E82AE09243216091422170E080
:1003D000F0904121EEE3F1E280E090E04E2D50E01C
:1003E00021E030E0D82EEA01082E02C0D595C7954D
:1003F0000A94E2F7DB01082E02C0B595A7950A948E
:10040000E2F7CA17DB0721F4A081AF5FA08301C028
:100410001082A081A93060F0D90102C0AA0FBB1FD1
:10042000DA94E2F7BA2FB095FB22AE21FA2A1082B5
:100430000196319683309105A9F6F0924121E09220
:10044000422180913821F0FE0CC0882319F01092CF
:10045000392103C081E08093392181E080933821E4
:100460000AC0882321F082E08093392102C01092D3
:1004700039211092382180913A21F1FE0CC0882355
:1004800019F010923B2103C081E080933B2181E071
:1004900080933A210AC0882321F082E080933B2197
:1004A00002C010923B2110923A2180913C21F2FE31
:1004B00012C0882319F010923D2103C081E080937F
:1004C0003D2181E080933C21E4E4F1E223E030E04F
:1004D000A0E0B2E00BC0882321F082E080933D21B0
:1004E00002C010923D2110923C21EECF8091230258
:1004F000816093968C93939780912102877C91964B
:100500008C93919740912102C90153E0880F991F64
:100510005A95E1F7482B91964C9391978091200240
:10052000806890968C9390978091230280FFFCCFF7
:100530008091240290912502192F00E090E0802BF9
:10054000912B80839183803C910518F41082118255
:1005500004C0805C9040808391832F5F3F4F329630
:100560002830310519F68091280641E080FD40E0F1
:1005700060912806842F90E020914F2151E025279B
:1005800030E082239323009759F0862F869580FDD3
:1005900003C050934E2106C082E080934E2102C0DA
:1005A00010924E2140934F21DF91CF911F910F91D7
:1005B000FF90EF90DF9008952F923F924F925F92BD
:1005C0006F927F928F929F92AF92BF92CF92DF9263
:1005D000EF92FF920F931F93DF93CF9300D00F9270
:1005E000CDB7DEB7B82E69834A832B836E0108949A
:1005F000C11CD11C22E030E04AE0E42EF12C93E053
:10060000492E512C88E0282E312CE0E6F6E0B0E4AB
:100610008B2EB6E09B2EA1E06A2E712CC801B7018B
:100620000E949812A82E0115110521F4223011F014
:100630007AE0A72EC901B2010E94AC12A101082ED6
:1006400002C0440F551F0A94E2F7468340EFD401DD
:1006500016964C931697A29460EFA6221596AC922C
:1006600058E35583D6019D916D01992341F0A30173
:1006700002C0440F551F8A95E2F7458307C0D30196
:1006800002C0AA0FBB1F8A95E2F7A6832F5F3F4FD8
:100690002530310531F0C801B7010E9498128B0155
:1006A000BDCFBB2029F088E0E0E4F6E0868304C0FB
:1006B00088E0E0E4F6E085832396CDBFDEBFCF91EE
:1006C000DF911F910F91FF90EF90DF90CF90BF903F
:1006D000AF909F908F907F906F905F904F903F90E2
:1006E0002F9008951F920F920FB60F9211242F93FF
:1006F0003F934F935F936F937F938F939F93AF93AA
:10070000BF93EF93FF93E0E0F8E010A211A2809175
:100710005021909151210196809350219093512125
:100720000E942B01882321F00E94E7070E944F09B5
:10073000FF91EF91BF91AF919F918F917F916F91B9
:100740005F914F913F912F910F900FBE0F901F908F
:1007500018951F920F920FB60F9211242F933F936B
:100760004F935F936F937F938F939F93AF93BF93B9
:10077000EF93FF930E94E7074091B00961E050E0DA
:100780000E945E0AFF91EF91BF91AF919F918F916F
:100790007F916F915F914F913F912F910F900FBE7D
:1007A0000F901F901895FF920F931F93CF93DF9395
:1007B0000E943701FF24C4E6D0E00E94BE018F2DC5
:1007C00061E070E043E650E00E94DE002F2D30E053
:1007D0002F5F3F4F2C9F80012D9F100D3C9F100DD0
:1007E0001124080F191F0E942801813029F4F39465
:1007F0008F2D853008F0FF2480E060E040E020E0AD
:100800000E94DC02DACF0F931F93DF93CF9300D0C7
:10081000CDB7DEB70E9437010E94BE010E942501BC
:100820008A830E942B0189830E943101282F80E056
:100830006A81498100E010E00E94DC02EDCFFF9266
:100840000F931F93CF93DF930E943701C0E0D0E056
:100850000E94BE010E942501F82E0E942B01082F44
:100860000E943101182F0E94DB00813031F483E0B7
:10087000C73ED80751F021960DC00E94DB008230A0
:1008800049F4209729F0219705C0C0E0D0E002C0CC
:10089000C7EED3E080E06F2D402F212F8E010E9404
:1008A000DC02D6CFAF92BF92DF92EF92FF920F930E
:1008B0001F93CF93DF930E943701C0E0D0E084E61E
:1008C000A82EB12C0E94BE010E942501D82E0E94A4
:1008D0002B01E82E0E943101F82E0E94DB008130AE
:1008E00029F4C430D10551F021960DC00E94DB00DF
:1008F000823049F4209729F0219705C0C0E0D0E06C
:1009000002C0C4E0D0E08C2F60E070E043E650E02D
:100910000E94DE00CA9D8001CB9D100DDA9D100D56
:100920001124080F191F80E06D2D4E2D2F2D0E94D0
:10093000DC02C8CF0F931F93CF93DF930E94370140
:100940000E94EA07C4E6D0E00E94BE010E94DB00DC
:10095000823029F4C134D10558F021970EC00E948D
:10096000DB00813051F4C839D10528F4219605C047
:10097000C8E9D0E002C0C0E4D0E00E942801813084
:1009800041F40E94E70760E04C2F28E70E94D2085C
:100990000BC00E942801823039F40E94E70760E012
:1009A0004C2F28E70E94E4080E942501182F0E947E
:1009B000DB00082F0E94DB0061E0013009F060E0FD
:1009C00041E0823009F040E0812F20E08E010E945A
:1009D000DC02BACF0F931F93CF93DF930E943701AE
:1009E000C4E6D0E00E94BE010E94DB00823029F400
:1009F000C134D10558F021970EC00E94DB00813030
:100A000051F4C839D10528F4219605C0C8E9D0E0D1
:100A100002C0C0E4D0E00E942501182F0E94DB0034
:100A2000082F0E94DB0061E0013009F060E041E046
:100A3000823009F040E0812F20E08E010E94DC022C
:100A4000D1CF0F931F930E9437010E94BE0180E017
:100A500060E040E020E000E010E00E94DC02F5CF22
:100A60000F931F93CF93DF930E943701E0E0F8E0EC
:100A70001092000880E1818312821382168283E043
:100A800087838DE89BE580A791A710A211A287E03C
:100A900080930008C7EED3E00E94BE010E94DB00F5
:100AA000813079F4809152219091532123E0873E47
:100AB000920729F4109252211092532116C00196E8
:100AC00010C00E94DB00823081F48091522190910D
:100AD0005321009729F4C0935221D093532105C08C
:100AE000019780935221909353210E9428018130D5
:100AF00041F410925221109253211092200810922A
:100B00002108009152211091532180E060E040E0E3
:100B100020E00E94DC02C0CF0F931F93DF93CF939E
:100B2000CDB7DEB7AE97CDBFDEBFDE011F96E0E0EA
:100B3000F0E220E201900D922150E1F720910008AF
:100B40002F70298321E02A831B821C821D821E8232
:100B50009C0140E050E060E077E883E993E00E9488
:100B6000BF122F83388749875A876F817885898597
:100B70009A85EA81F0E0EE0FFF1FEE0FFF1F8E0156
:100B80000F5F1F4F11C08A818F5F8A838A818830EF
:100B900008F093C06F81788589859A85EA81F0E0B5
:100BA000EE0FFF1FEE0FFF1FE00FF11F26853785A9
:100BB000408951890E94BF122B873C874D875E87F1
:100BC0008B859C85AD85BE85803020E0920721E035
:100BD000A20720E0B207B8F680910008882309F444
:100BE00061C099818A81981709F45AC0109200084F
:100BF0006091200870912108EA81F0E0EE0FFF1F5C
:100C0000EE0FFF1F8E010F5F1F4FE00FF11F80E0FF
:100C100090E026853785408951890E9479126B833F
:100C20007C838D839E836B817C818D819E81E98114
:100C3000F0E0EE0FFF1FEE0FFF1FE00FF11F268504
:100C40003785408951890E94BF122B833C834D8395
:100C50005E8310C08B819C81AD81BE812B853C85DC
:100C60004D855E85821B930BA40BB50B8B839C83F8
:100C7000AD83BE832B813C814D815E818B859C85BC
:100C8000AD85BE8582179307A407B50718F38B813E
:100C90009C81AD81BE81E0E0F8E080A391A302C019
:100CA000109200088B859C85AD85BE85E0E0F8E05C
:100CB00080A791A78A8180930008AE96CDBFDEBF42
:100CC000CF91DF911F910F910895FF920F931F9382
:100CD000DF93CF93CDB7DEB72B97CDBFDEBF1982A1
:100CE0001A821B821C821886198688E790E08A8700
:100CF0009B871D821E821F820E9437010E94EA0785
:100D0000E0E0F8E01092000880E181831282138213
:100D1000168283E087838A859B850E948C05FF2449
:100D2000F3940E94BE010E94DB00813051F48A8559
:100D30009B8521E08039920790F48A859B850196F6
:100D40000CC00E94DB00823071F48A859B8583335E
:100D5000910548F08A859B8501978A879B878A85BC
:100D60009B850E948C058091502190915121883162
:100D7000910530F10E94E70760E040E324E60E941D
:100D8000D2081F82809150219091512148978093E1
:100D90005021909351218D818F5F8D838D8184307F
:100DA00078F00E94E70760E044E324E60E94D2085E
:100DB0001D828E818F5F8E838E81843608F01E8225
:100DC000809150219091512183309105A8F08F811D
:100DD000882391F4FF820E94E70760E040E324E665
:100DE0000E94E4088D81882339F40E94E70760E0BF
:100DF00044E324E60E94E40819821A82809150217B
:100E0000909151218C30910508F4F9828D818230C6
:100E100008F4FA820E942801813031F41D821E827A
:100E200010925021109251210E943101882349F0E3
:100E30002D818E813AE0839FC0011124820F911D84
:100E400002C08A859B85888799878C8169814A81C0
:100E50002B81088519850E94DC0263CFFF920F93D6
:100E60001F93DF93CF93CDB7DEB72B97CDBFDEBFF8
:100E700019821A821B821C821886198688E790E0E4
:100E80008A879B871D821E821F820E9437010E94D3
:100E9000EA07E0E0F8E01092000880E18183128226
:100EA0001382168283E087838A859B850E948C0546
:100EB000FF24F3940E94BE010E94DB00813051F4B4
:100EC0008A859B8521E08039920790F48A859B85ED
:100ED00001960CC00E94DB00823071F48A859B85EC
:100EE0008F31910548F08A859B8501978A879B877A
:100EF0008A859B850E948C0580915021909151217B
:100F000088319105A0F01F824897809350219093DB
:100F100051218D818F5F8D838D81843040F01D82C2
:100F20008E818F5F8E838E81843608F01E821982B7
:100F30001A8280915021909151218C30910508F4B2
:100F4000F9828D81823008F4FA820E942801813072
:100F500031F41D821E8210925021109251210E9464
:100F60003101882349F02D818E813AE0839FC001B1
:100F70001124820F911D02C08A859B8588879987DD
:100F80008C8169814A812B81088519850E94DC0248
:100F900091CF0E942E0780E090E008950F938091FA
:100FA000B10985FFFCCF4093B009623070F08091A9
:100FB000B10985FFFCCF2093B009633031F48091F3
:100FC000B10985FFFCCF0093B0090F91089584E526
:100FD00091E20895CF93DF93C4E5D1E2CE010E9460
:100FE0002D0ACE016EEC77E00E94850ACE01DF91DA
:100FF000CF910895FC014283638374831182108230
:1010000008950F931F93CF93DF93EC01162F0E9447
:101010007B08082F298130E0C90101966A8170E0C0
:101020000E94AC12488150E08417950729F4802F64
:101030000E947E0880E013C0EB81FC81E20FF31F69
:101040001083298130E02F5F3F4F6A81C90170E032
:101050000E94AC128983802F0E947E0881E0DF917C
:10106000CF911F910F9108951F93CF93DF93EC01C0
:101070000E947B0829819881291710F0122F02C045
:101080001A81120F191B0E947E08812FDF91CF91C8
:101090001F910895FC01808190E0860F911D62816F
:1010A00070E00E94AC120380F481E02DE80FF91F7C
:1010B000808108950F931F93DF93CF930F92CDB745
:1010C000DEB78C0169830E947B08482FF8012081DC
:1010D00030E06981260F311D6281C90170E00E94F4
:1010E000AC128083842F0E947E080F90CF91DF91F5
:1010F0001F910F9108958FB7F89408958FBF0895A9
:10110000881F8827881F089591E0883F08F490E0A1
:10111000892F0895282F30E0207F3070203B310543
:10112000F1F0213B310554F420393105C1F0203A6A
:101130003105A9F020383105E9F411C0203D310511
:10114000D9F0213D310524F4203C310599F414C037
:10115000203E310521F0203F310561F402C083E0DB
:101160000895E82FE15FEF3048F4F0E0E05EFF4DD6
:101170008081089580E0089582E0089580E00895D8
:101180000F93362F542F022F3F70306B5F770F77FE
:10119000DC01ED91FC9163E070E0432F252F099570
:1011A0000F9108950F93362F542F022F3F703069FF
:1011B0005F770F77DC01ED91FC9163E070E0432FE6
:1011C000252F09950F9108950F93362F542F022F35
:1011D0003F7030685F770F77DC01ED91FC9163E041
:1011E00070E0432F252F09950F9108950F93362F07
:1011F000542F022F3F70306A5F770F77DC01ED913B
:10120000FC9163E070E0432F252F09950F9108951D
:101210000F931F938A0120E2403052073CF4A0EE66
:1012200040305A0734F00050104E05C00FEF1FE356
:1012300002C000E010E0462F4F70406E202F2F7745
:10124000000F012F001F110B11950F77DC01ED919D
:10125000FC9163E070E009951F910F9108950F9341
:10126000362F242F3F70306C2F77DC01ED91FC91ED
:1012700062E070E0432F00E009950F9108950F930D
:10128000362F242F3F70306D2F77DC01ED91FC91CC
:1012900062E070E0432F00E009950F9108950F93ED
:1012A000DC01ED91FC9161E070E048EF20E000E0AE
:1012B00009950F9108950F93DC01ED91FC9161E088
:1012C00070E049EF20E000E009950F9108950F9339
:1012D000DC01ED91FC9161E070E04AEF20E000E07C
:1012E00009950F9108950F93DC01ED91FC9161E058
:1012F00070E04BEF20E000E009950F9108950F9307
:10130000DC01ED91FC9161E070E04CEF20E000E049
:1013100009950F9108950F93DC01ED91FC9161E027
:1013200070E04EEF20E000E009950F9108950F93D3
:10133000DC01ED91FC9161E070E04FEF20E000E016
:1013400009950F9108950F93262F2F77DC01ED91CA
:10135000FC9162E070E041EF00E009950F91089583
:101360000F931F93262F2F778B01000F012F001F44
:10137000110B11950F77DC01ED91FC9163E070E0AA
:1013800042EF09951F910F9108950F93262F2F7704
:10139000DC01ED91FC9162E070E043EF00E0099523
:1013A0000F9108950F93DC01ED91FC9161E070E0E5
:1013B00046EF20E000E009950F9108950F93462F26
:1013C000DC01ED91FC9161E070E020E000E0099526
:1013D0000F9108950F93DC01ED91FC9109950F9108
:1013E0000895FC01628373830895FC01648375830F
:1013F0000895FC01668377830895FC0160877187F7
:101400000895FC01628773870895FC0164877587DE
:101410000895FC01668777870895FC01608B718BC6
:101420000895FC01628B738B0895FC01648B758BAE
:101430000895FC01668B778B0895FC01608F718F96
:101440000895FC01628F738F0895FC01648F758F7E
:101450000895FC01668F778F0895CF93DF93EC0199
:101460001DA21EA21FA2BC01685D7F4F88519F4F25
:1014700040EC0E94FA071A821B821C821D821E8287
:101480001F82188619861A861B861C861D861E8654
:101490001F86188A198A1A8A1B8A1C8A1D8A1E8A24
:1014A0001F8A188E198E1A8E1B8E1C8E1D8E1E8EF4
:1014B0001F8E18A219A2DF91CF910895CF92DF92CB
:1014C000FF920F931F93DF93CF930F92CDB7DEB7A9
:1014D000F62EE42FF52F6F018C0108511F4F08C025
:1014E000F60161916F01C80149830E940108498199
:1014F0008C2D841B8F15A0F30F90CF91DF911F913E
:101500000F91FF90DF90CF900895FC01608371836D
:101510000895FC0160A371A30895CF92DF92EF922A
:10152000FF920F931F93CF93DF93EC016B01142F66
:10153000E22EF02E8DA1843031F4EA8DFB8D3097B0
:1015400009F083C095C06230710509F442C0633070
:10155000710529F06130710509F073C060C0842FF6
:1015600090E0807F9070803A9105E1F0813A91059A
:101570003CF48038910599F080399105F9F40CC05C
:10158000803E910591F0803F910591F0803B91055F
:10159000A9F4EA81FB8114C0EC81FD8111C0EE81C8
:1015A000FF810EC0E885F9850BC0EA85FB8508C080
:1015B000423F09F05DC0EC85FD8502C0E0E0F0E04F
:1015C000309709F455C0CE01612F4E2D2F2D09956E
:1015D00042C0842F90E0807F9070803D910549F05B
:1015E000803F910549F0803C910581F4EE85FF85AF
:1015F0000FC0E889F9890CC0433F19F4EA89FB89D7
:1016000007C0413FA9F5EC89FD8902C0E0E0F0E0A8
:10161000309771F1CE01612F4E2D09951CC0842F9A
:101620000E948408882319F0EE89FF8904C0163FC0
:10163000F9F4E88DF98D3097D9F0CE01612F099535
:101640000AC06430710590F413C0CE01B601412F79
:101650002E2D0F2D0995EE8DFF8D309771F0CE0157
:10166000B601412F2E2D0F2D099507C0CC24DD2466
:10167000EC8DFD8D309749F7EECFDF91CF911F9123
:101680000F91FF90EF90DF90CF900895EF92FF922F
:101690000F931F93CF93DF93EC01162F862F0E9499
:1016A0008408882369F0EDA081E08DA3CE0161E07C
:1016B00070E0412F20E000E00E948D0AEDA27EC084
:1016C000812F0E9480084DA1882309F442C0443034
:1016D00029F01AA381E090E08EA39FA3812F0E949E
:1016E0008A08813039F0813078F0823059F08330C7
:1016F00061F508C08DA3CE0161E070E0412F20E0CC
:1017000000E01FC08DA35AC0103F19F0173FE9F445
:1017100004C084E08DA31AA33FC02EA13FA1C9013C
:1017200063E070E00E9498128C0F9D1FFC0112A3D1
:10173000B9016F5F7F4F6EA37FA3CE014AA12BA19A
:101740000CA10E948D0A1DA239C01DA21EA21FA2BB
:1017500035C0442399F12EA13FA1C90163E070E097
:101760000E9498127C01FE01E80FF91F12A3B90133
:101770006F5F7F4F6EA37FA38130910591F082E070
:10178000E816F104D9F4CE014AA12BA10CA10E94C4
:101790008D0A8DA1843091F081E090E08EA39FA30B
:1017A0000DC0423059F4CE014AA12BA100E00E94A5
:1017B0008D0A8DA1843011F0EEA2FFA2DF91CF91AE
:1017C0001F910F91FF90EF900895CF92DF92EF92CB
:1017D000FF920F931F93CF93DF93EC01E8A1F9A140
:1017E000309709F009958E0108511F4FC8010E94DA
:1017F0003408EE24FF24C82EDD240FC0C80160E0A9
:101800000E944A08682FCE010E94460BC80161E081
:101810000E945A080894E11CF11CEC14FD0470F3BA
:10182000DF91CF911F910F91FF90EF90DF90CF90BC
:101830000895EF92FF920F931F937B018C0120E09C
:1018400030E040E05FE40E94950F87FD11C0C801C1
:10185000B70120E030E040E05FE40E94BC0D0E9450
:10186000C50F9B01AC01205030404040504806C09D
:10187000C801B7010E94C50F9B01AC01B901CA01A3
:101880001F910F91FF90EF900895A0E0B0E0EBE47E
:10189000FCE00C94E512FC01EA018081823008F43E
:1018A00038C1DB019C91923008F430C1843059F486
:1018B000943009F02EC1918111968C91119798174F
:1018C00009F021C126C1943009F420C19230B1F44D
:1018D000823009F01EC1CA01AF0128E0DA010D9083
:1018E000AD01DC010D92CD012150C1F7DB01119654
:1018F0008C9111979181892389830AC1823009F4DF
:1019000005C1C280D380DB0112966D907C90139745
:1019100024813581468157811496ED90FD900D917B
:101920001C911797C601861997095C0197FF04C09F
:10193000AA24BB24A81AB90AB0E2AB16B1040CF071
:1019400061C0181619066CF5370148010A2C04C04D
:1019500096948794779467940A94D2F781E090E004
:10196000A0E0B0E00A2C04C0880F991FAA1FBB1F7B
:101970000A94D2F70197A109B1098E219F21A023D2
:10198000B123EE24FF248701E3940097A105B1055C
:1019900019F4EE24FF248701E628F72808291929DD
:1019A0003CC00097D1F1CA0CDB1C39014A010A2C5A
:1019B00004C096948794779467940A94D2F781E050
:1019C00090E0A0E0B0E00A2C04C0880F991FAA1F85
:1019D000BB1F0A94D2F70197A109B109822393236F
:1019E000A423B52321E030E040E050E00097A105BA
:1019F000B10519F420E030E0A9012629372948294A
:101A000059290BC06C147D0424F4EE24FF248701B3
:101A100004C0630120E030E0A9018181FB019181D4
:101A2000891709F445C0882349F0D801C701821BF2
:101A3000930BA40BB50B9C01AD0104C02E193F09FB
:101A4000400B510B57FD04C01982CA82DB820BC0C8
:101A500081E08983CA82DB8250954095309521953B
:101A60003F4F4F4F5F4F2C833D834E835F830DC0AD
:101A7000880F991FAA1FBB1F8C839D83AE83BF83D2
:101A80008A819B8101978A839B838C819D81AE8112
:101A9000BF819C01AD0121503040404050402F3F5C
:101AA000EFEF3E07EFEF4E07EFE35E0708F30BC0E3
:101AB0008983CA82DB822E0D3F1D401F511F2C835C
:101AC0003D834E835F8383E088832C813D814E81FB
:101AD0005F8157FF1DC0DA01C90181709070A0704D
:101AE000B0705695479537952795822B932BA42B4D
:101AF000B52B8C839D83AE83BF838A819B810196A6
:101B00008A839B8305C0EFE2F0E203C0FB0101C0C2
:101B1000FE01CF01CDB7DEB7EEE00C94FE12A0E2DD
:101B2000B0E0E5E9FDE00C94ED1269837A838B83E4
:101B30009C832D833E834F83588789E0E82EF12CC8
:101B4000EC0EFD1ECE010196B7010E94B7118E0169
:101B50000F5E1F4FCE010596B8010E94B711C70155
:101B6000B801AE01475E5F4F0E94450C0E94E9102C
:101B7000A096E6E00C940613A0E2B0E0E2ECFDE0F3
:101B80000C94ED1269837A838B839C832D833E832F
:101B90004F8358878E01075F1F4FCE010196B80112
:101BA0000E94B71191E1E92EF12CEC0EFD1ECE0141
:101BB0000596B7010E94B7118A8991E089278A8B1F
:101BC000C801B701AE01475E5F4F0E94450C0E94FD
:101BD000E910A096E6E00C940613A0E2B0E0E3EF73
:101BE000FDE00C94E11269837A838B839C832D83BF
:101BF0003E834F835887CE010196BE01675F7F4FBA
:101C00000E94B711CE010596BE016F5E7F4F0E9404
:101C1000B7119985923078F089898230C0F094307C
:101C200019F4823041F4CBC0843019F4923079F445
:101C3000C6C0923051F481E02A859A89291709F4A7
:101C400080E08A87CE010996BCC0823051F481E0E1
:101C50002A859A89291709F480E08A8BCE0141965A
:101C6000B0C06D847E848F849888ED88FE880F894B
:101C7000188DE0E2F0E080E090E0DC01AA24BB24D3
:101C8000650120E030E0A901B30161707070611559
:101C90007105D1F02E0D3F1D401F511F150126016A
:101CA000280E391E4A1E5B1E81E090E0A0E0B0E0E5
:101CB0002E153F054007510718F080E090E0DC0149
:101CC000820D931DA41DB51DAA0CBB1CCC1CDD1CD4
:101CD00017FF09C061E0262E312C412C512CA2287F
:101CE000B328C428D528319749F0EE0CFF1C001FFB
:101CF000111F9694879477946794C6CF6B897C89DB
:101D0000EB85FC856E0F7F1F6E5F7F4F6B8F7C8F27
:101D100061E0EA857A89E71709F460E06A8F6B8DE4
:101D20007C8D10C0FC01E170F070309729F0569561
:101D30004795379527955068B695A79597958795B8
:101D40006F5F7F4FB7FDEECF0CC0880F991FAA1FA2
:101D5000BB1F57FD8160220F331F441F551F615069
:101D600070408030E0E09E07E0E0AE07E0E4BE07B0
:101D700060F36B8F7C8F6FE7E62EF12C012D112D18
:101D8000E822F9220A231B2360E4E616F104010588
:101D9000110561F487FD0AC0211531054105510582
:101DA00029F0805C9F4FAF4FBF4F80788D8F9E8F03
:101DB000AF8FB8A383E0898FCE01499602C08FE22E
:101DC00090E20E94E910A096E2E10C94FA12A8E1D8
:101DD000B0E0EDEEFEE00C94E91269837A838B8328
:101DE0009C832D833E834F8358878E01075F1F4F4F
:101DF000CE010196B8010E94B71181E1E82EF12CC5
:101E0000EC0EFD1ECE010596B7010E94B711998513
:101E1000923008F483C08989823008F47BC02A8517
:101E20003A8923272A87943011F0923021F49817A9
:101E300009F06CC071C0843039F41D861E861F867F
:101E4000188A1B861C866AC0823019F484E0898750
:101E500065C08B859C852B893C89821B930B8B8766
:101E60009C872D853E854F855889ED88FE880F8992
:101E7000188D2E153F054007510738F4220F331FE8
:101E8000441F551F01978B879C876FE170E0A12C41
:101E9000B12CC12CA0E4DA2E80E090E0DC012E15FC
:101EA0003F054007510740F08A299B29AC29BD29ED
:101EB0002E193F09400B510BD694C794B794A794A1
:101EC000220F331F441F551F6150704041F76FE7C9
:101ED000E62EF12C012D112DE822F9220A231B23D5
:101EE00060E4E616F1040105110561F487FD0AC0FE
:101EF000211531054105510529F0805C9F4FAF4FF9
:101F0000BF4F80788D879E87AF87B88B8E01075F24
:101F10001F4F04C0870102C00FE210E2C8010E94F7
:101F2000E9106896EAE00C940213A8E1B0E0EBE94E
:101F3000FFE00C94ED1269837A838B839C832D835D
:101F40003E834F8358878E01075F1F4FCE01019656
:101F5000B8010E94B71181E1E82EF12CEC0EFD1EB4
:101F6000CE010596B7010E94B7118985823040F0F5
:101F70008989823028F0C801B7010E94201201C06F
:101F80008FEF6896E6E00C940613ACE0B0E0EBEC63
:101F9000FFE00C94F11269837A838B839C83CE01DA
:101FA0000196BE016B5F7F4F0E94B7118D81823019
:101FB00081F1823070F1843021F48E81882369F1BF
:101FC0000AC02F81388537FD24C06E812F3131053D
:101FD0003CF0662311F120E030E040E050E821C001
:101FE0008EE190E0821B930B29853A854B855C85B9
:101FF00004C056954795379527958A95D2F766235D
:1020000081F050954095309521953F4F4F4F5F4F50
:1020100008C020E030E0A90104C02FEF3FEF4FEFF0
:102020005FE7B901CA012C96E2E00C940A13A8E01C
:10203000B0E0EDE1F0E10C94EB127B018C011A822F
:10204000611571058105910519F482E089835FC0EE
:1020500083E089838EE1C82ED12CCB82DC82ED8295
:10206000FE820F831887C801B7010E948F10FC0100
:102070003197F7FF3AC0AA27BB27AE1BBF0B21E061
:1020800030E040E050E00A2E04C0220F331F441F0E
:10209000551F0A94D2F721503040404050402E2125
:1020A0003F214023512361E070E080E090E0211562
:1020B00031054105510519F460E070E0CB0104C021
:1020C00016950795F794E794AA95D2F7E62AF72A8A
:1020D000082B192BED82FE820F8318878EE190E08A
:1020E0008E1B9F0B8B839C8312C0309781F00E2E2A
:1020F00004C0EE0CFF1C001F111F0A94D2F7ED82E2
:10210000FE820F831887CE1ADF0ACB82DC82CE01D3
:1021100001960E94E9102896E8E00C940413AF920F
:10212000BF92CF92DF92EF92FF920F931F937B01AA
:102130008C0180E0E81680E0F80681E0080780E086
:10214000180758F4EFEFEE16F1040105110509F038
:1021500090F480E090E0DC0117C0F0E0EF16F0E0D2
:10216000FF06F0E00F07F1E01F0750F480E190E078
:10217000A0E0B0E009C088E090E0A0E0B0E004C0DA
:1021800088E190E0A0E0B0E020E230E040E050E004
:10219000281B390B4A0B5B0B5701680104C0D6940E
:1021A000C794B794A7948A95D2F7D601C501895CE4
:1021B0009F4DFC018081281B310941095109C9014A
:1021C0001F910F91FF90EF90DF90CF90BF90AF9055
:1021D0000895EF92FF920F931F93CF93DF93FC012B
:1021E000248135814681578161818081823020F44C
:1021F0004061EFEFF0E0A3C0843009F49BC082306F
:1022000009F492C0211531054105510509F48FC02B
:102210000280F381E02D8FEFE238F8070CF05AC00E
:10222000C2E8DFEFCE1BDF0BCA31D1056CF57901B7
:102230008A010C2E04C016950795F794E7940A942A
:10224000D2F781E090E0A0E0B0E00C2E04C0880F4F
:10225000991FAA1FBB1F0A94D2F70197A109B109C0
:1022600082239323A423B52321E030E040E050E013
:102270000097A105B10519F420E030E0A9012E294D
:102280003F29402B512B03C020E030E0A901DA01A7
:10229000C9018F779070A070B07080349105A1054E
:1022A000B10539F427FF09C0205C3F4F4F4F5F4F06
:1022B00004C0215C3F4F4F4F5F4FE1E0F0E0203022
:1022C00080E0380780E0480780E4580728F5E0E020
:1022D000F0E022C0E038F1056CF5E158FF4FDA017B
:1022E000C9018F779070A070B07080349105A105FE
:1022F000B10539F427FF09C0205C3F4F4F4F5F4FB6
:1023000004C0215C3F4F4F4F5F4F57FF05C05695AC
:10231000479537952795319687E056954795379598
:1023200027958A95D1F70BC0E0E0F0E005C0E0E02A
:10233000F0E005C0EFEFF0E020E030E0A9018E2FE3
:10234000879588278795942F9F7767956627679548
:10235000E695E22EA92FA82BFE2FF62B622F732FC6
:102360008A2F9F2FCDB7DEB7E6E00C940613DC0171
:10237000FB012C9111963C91119712968C9112971A
:10238000482F4F7750E0982F991F9927991F139640
:102390006C911397862F880F892B90E0661F662714
:1023A000661F6183009739F52115310541055105F7
:1023B00011F482E029C082E89FEF8283938367E073
:1023C000220F331F441F551F6A95D1F783E0808386
:1023D00009C0220F331F441F551F8281938101972B
:1023E00082839383203080E0380780E0480780E4D0
:1023F000580778F320C08F3F910579F421153105F6
:102400004105510519F484E08083089544FF03C019
:1024100081E0808310C010820EC08F57904082836D
:10242000938383E0808387E0220F331F441F551F6F
:102430008A95D1F750642483358346835783089562
:10244000FC01DB019081923008F449C08C9182300C
:1024500008F445C0943051F461818430B1F511968F
:102460002C91119730E0261B310941C0843021F0B6
:10247000923041F48230B1F111968C9111978823FA
:10248000A1F12DC06181823001F111968C911197DB
:102490006817D9F42281338112968D919C911397FC
:1024A0008217930794F028173907BCF024813581EF
:1024B0004681578114968D919D910D90BC91A02DD0
:1024C00082179307A407B50718F4662341F00DC0DF
:1024D000281739074A075B0728F4662331F021E003
:1024E00030E005C020E030E002C02FEF3FEFC9012F
:1024F0000895629FD001739FF001829FE00DF11D4E
:10250000649FE00DF11D929FF00D839FF00D749F6D
:10251000F00D659FF00D9927729FB00DE11DF91F19
:10252000639FB00DE11DF91FBD01CF011124089576
:10253000AA1BBB1B51E107C0AA1FBB1FA617B707E9
:1025400010F0A61BB70B881F991F5A95A9F7809505
:102550009095BC01CD01089597FB092E07260AD05E
:1025600077FD04D0E5DF06D000201AF47095619560
:102570007F4F0895F6F7909581959F4F0895A1E2BA
:102580001A2EAA1BBB1BFD010DC0AA1FBB1FEE1FED
:10259000FF1FA217B307E407F50720F0A21BB30B38
:1025A000E40BF50B661F771F881F991F1A9469F7B4
:1025B00060957095809590959B01AC01BD01CF0110
:1025C00008952F923F924F925F926F927F928F92D7
:1025D0009F92AF92BF92CF92DF92EF92FF920F93B2
:1025E0001F93CF93DF93CDB7DEB7CA1BDB0BCDBFF5
:1025F000DEBF09942A88398848885F846E847D8488
:102600008C849B84AA84B984C884DF80EE80FD809A
:102610000C811B81AA81B981CE0FD11DCDBFDEBF38
:08262000ED010895F894FFCFCD
:10262800000000000100000002000000040000009B
:102638000800000040000000000100000004000045
:102648000203020000010001010101010001010073
:10265800000000000000000001020203030303045D
:102668000404040404040405050505050505050519
:1026780005050505050505060606060606060606F9
:1026880006060606060606060606060606060606E2
:1026980006060606060606070707070707070707C9
:1026A80007070707070707070707070707070707B2
:1026B80007070707070707070707070707070707A2
:1026C8000707070707070707070707070707070792
:1026D8000707070707070708080808080808080879
:1026E8000808080808080808080808080808080862
:1026F8000808080808080808080808080808080852
:102708000808080808080808080808080808080841
:102718000808080808080808080808080808080831
:102728000808080808080808080808080808080821
:102738000808080808080808080808080808080811
:102748000808080808080808080808080808080801
:08275800080808080808080041
:00000001FF
