:100000000C94BC000C94D9000C94D9000C94D90029
:100010000C94D9000C94D9000C94D9000C94D900FC
:100020000C94D9000C94D9000C94D9000C94D900EC
:100030000C94D9000C94D9000C94D9000C94D900DC
:100040000C9482030C94D9000C94D9000C94D90020
:100050000C94D9000C94D9000C94D9000C94D900BC
:100060000C94D9000C94D9000C94D9000C94D900AC
:100070000C94D9000C94D9000C94D9000C94D9009C
:100080000C94D9000C94D9000C94D9000C94D9008C
:100090000C94D9000C94D9000C94D9000C94D9007C
:1000A0000C94D9000C94D9000C94D9000C94D9006C
:1000B0000C94D9000C94D9000C94D9000C94D9005C
:1000C0000C94D9000C94D9000C94D9000C94D9004C
:1000D0000C94D9000C94D9000C94D9000C94D9003C
:1000E0000C94D9000C94D9000C94D9000C94D9002C
:1000F0000C94D9000C94D9000C94D9000C94D9001C
:100100000C94D9000C94D9000C94D9000C94D9000B
:100110000C94D9000C94D9000C94D9000C94D900FB
:100120000C94D9000C94D9000C94D9000C94D900EB
:100130000C94D9000C94D9000C94D9000C94D900DB
:100140000C94D9000C94D9000C94D9000C94D900CB
:100150000C94D9000C94D9000C94D9000C94D900BB
:100160000C94D9000C94D9000C94D9000C94A103E0
:100170000C94D9000C94D90011241FBECFEFD7E204
:10018000DEBFCDBF11E2A0E0B0E2E2EAF3E202C0DE
:1001900005900D92A831B107D9F712E2A8E1B1E2BA
:1001A00001C01D92A132B107E1F70E9488060C94AC
:1001B000CF110C94000080912E210895CF92DF92F0
:1001C000EF92FF920F931F93CF93DF93182FEB01C2
:1001D000BA016C1B7D0B80E090E00E94F30E6B0176
:1001E0007C01E12FF0E0EE0FFF1FEC5DFE4D608122
:1001F000718180E090E00E94F30E20E030EF43E751
:1002000055E40E94C30D9B01AC01C701B6010E94D9
:10021000C90C062F172FF82EC92EBE0180E090E0E2
:100220000E94F30E9B01AC01602F712F8F2D9C2D2E
:100230000E946B0C0E94F50A862F972FDF91CF91B9
:100240001F910F91FF90EF90DF90CF9008958091D4
:100250001C21089580911D21089580911A210895EF
:1002600080911B2108958091182108958091192172
:100270000895CF93DF9380914000843001F1A0E492
:10028000B0E071E094E0E0E5F0E06BE858E042ECCB
:1002900038E128ED11967C93119713969C93139750
:1002A00062835083818183FFFDCF458330838181C9
:1002B00084FFFDCF24BF9C938C91843059F7F89430
:1002C000A0E6B6E080E815968C93159790E4129618
:1002D0009C93129711968C931197E0EBF9E088E1CB
:1002E000848380E2838333E035839FE296831782A1
:1002F000E0EAF0E09281976892837894C0E0D6E0DB
:1003000099EF9A83E0E0F2E01082118282831382F7
:100310001482168280818160808381E080A311A293
:1003200012A240E256E08CE0FA01828328E080E8E5
:1003300096E0FC012283FA01328386E089838D8373
:10034000E0E4F6E088EF81838FE311968C931197B8
:1003500088E315968C93159790EF958316968C935A
:10036000169787E016968C9316972583DF91CF9189
:100370000895DF92EF92FF920F931F93CF93DF9335
:10038000E0E8F6E0308536953695369521E009F0BF
:1003900020E0E0E2F6E030853695369530FD04C089
:1003A000DD246894D1F801C0DD24D22AE0E2F6E031
:1003B000208526952695269520FD02C034E001C0B3
:1003C00030E0D32AD092232120912221C22FD0E0E5
:1003D000E0902121EEE1F1E220E030E0AD2DB0E04F
:1003E00001E010E0BD01022E02C0759567950A94E8
:1003F000E2F7AE01022E02C0559547950A94E2F746
:100400006417750731F440814F5F4083493018F419
:100410000FC010820DC0A801022E02C0440F551F4C
:100420000A94E2F7542F5095E5224D21E42A1082D8
:100430002F5F3F4F319623303105A1F6E092212105
:10044000D0922221E0FE0EC020911821222319F023
:100450001092192103C021E02093192121E020935B
:1004600018210CC020911821222321F022E0209392
:10047000192102C0109219211092182120912121D6
:1004800021FF0EC020911A21222319F010921B2166
:1004900003C021E020931B2121E020931A210CC0EE
:1004A00020911A21222321F022E020931B2102C057
:1004B00010921B2110921A212091212122FF14C099
:1004C00020911C21222319F010921D2103C021E04C
:1004D00020931D2121E020931C21A4E2B1E223E01E
:1004E00030E0E0E0F2E00DC020911C21222321F059
:1004F00022E020931D2102C010921D2110921C2188
:10050000ECCF43A1416043A341A1477C41A361A13A
:10051000A901440F551F440F551F440F551F462B6B
:1005200041A340A1406840A343A140FFFDCF44A1A7
:1005300055A1952F80E050E0482B592B4D935C93AB
:100540001197403C510520F41D921C92119705C053
:10055000405C50404D935C9311972F5F3F4F129634
:100560002830310571F6E0E2F6E0808541E080FD5B
:1005700040E0E0E2F6E05085242F30E090912F211A
:1005800081E0892790E082239323009759F05695C4
:1005900050FD04C081E080932E2106C082E080934C
:1005A0002E2102C010922E2140932F21DF91CF9156
:1005B0001F910F91FF90EF90DF9008952F923F923F
:1005C0004F925F926F927F928F929F92AF92BF9263
:1005D000CF92DF92EF92FF920F931F93DF93CF930F
:1005E00000D000D0CDB7DEB78C8369834A832B83DC
:1005F0006E010894C11CD11C22E030E00F2EFAE0FD
:10060000EF2EFF24F02D0F2EF3E06F2E7724F02D28
:1006100044245524689443F8E0E6F6E00F2EF0E415
:10062000AF2EF6E0BF2EF02D0F2EF0EF8F2EF02D17
:10063000222433242394C801B7010E945511982E17
:100640000115110531F4223021F00F2EFAE09F2E12
:10065000F02DC901B3010E946911A201082E02C048
:10066000440F551F0A94E2F74683D50116968C92E3
:100670001697990C990C990C990C15969C92B8E3C5
:10068000B583D6019D916D01992341F0A10102C06E
:10069000440F551F8A95E2F7458307C0D10102C078
:1006A000AA0FBB1F8A95E2F7A6832F5F3F4F253025
:1006B000310531F0C801B7010E9455118B01BBCF44
:1006C000BC81BB2329F088E0E0E4F6E0868304C027
:1006D00088E0E0E4F6E085832496CDBFDEBFCF91CD
:1006E000DF911F910F91FF90EF90DF90CF90BF901F
:1006F000AF909F908F907F906F905F904F903F90C2
:100700002F9008951F920F920FB60F9211248F937E
:100710009F93EF93FF93E0E0F8E010A211A2809185
:100720003021909131210196809330219093312195
:10073000FF91EF919F918F910F900FBE0F901F909F
:1007400018951F920F920FB60F9211242F933F937B
:100750004F935F936F937F938F939F93AF93BF93C9
:10076000EF93FF930E94A9064091B00961E050E029
:100770000E942309FF91EF91BF91AF919F918F91BB
:100780007F916F915F914F913F912F910F900FBE8D
:100790000F901F901895FF920F931F93CF93DF93A5
:1007A0000E943901FF24C4E6D0E00E94B9018F2DD8
:1007B00061E070E043E650E00E94DE002F2D30E063
:1007C0002F5F3F4F2C9F80012D9F100D3C9F100DE0
:1007D0001124080F191F0E942A01813029F4F39473
:1007E0008F2D853008F0FF2480E060E040E020E0BD
:1007F0000E94DE02DACF0F931F930E9439010E94FC
:10080000B9010E942701082F0E942D01182F0E9474
:100810003301282F80E0602F412F00E010E00E947C
:10082000DE02EDCFCF92DF92FF920F931F93CF9313
:10083000DF930E943901C0E0D0E00F2EF7EECF2EFB
:10084000F3E0DF2EF02D0E94B9010E942701082F4E
:100850000E942D01182F0E943301F82E0E94DB0008
:10086000813031F483E0C73ED80751F021960CC0A7
:100870000E94DB00823041F4209729F0219704C0C8
:10088000C0E0D0E001C0E60180E0602F412F2F2DB5
:100890008E010E94DE02D7CFCF92DF92EF92FF92BD
:1008A0000F931F93CF93DF930E943901C0E0D0E0F4
:1008B0000F2EF4E6CF2EDD24F02D0E94B9010E9408
:1008C0002701F82E0E942D01182F0E943301E82ED7
:1008D0000E94DB00813029F4C430D10551F021960B
:1008E0000DC00E94DB00823049F4209729F0219747
:1008F00005C0C0E0D0E002C0C4E0D0E08C2F60E0D2
:1009000070E043E650E00E94DE00CC9DF001CD9DFA
:10091000F00DDC9DF00D1124E80FF91F80E06F2D24
:10092000412F2E2D8F010E94DE02C7CFCF92DF9282
:10093000EF92FF920F931F93CF93DF930E943901A1
:100940000E94AC06C4E6D0E0CC24DD246894C6F84E
:100950000F2EF8E9EF2EFF24F02D0E94B9010E941E
:10096000DB00823029F4C134D10558F021970CC046
:100970000E94DB00813041F4C839D10520F4219672
:1009800003C0E70101C0E6010E942A01813041F461
:100990000E94A90660E04C2F28E70E949C070BC02C
:1009A0000E942A01823039F40E94A90660E04C2F8F
:1009B00028E70E94AD070E942701182F0E94DB0044
:1009C000082F0E94DB0061E0013009F060E041E0A7
:1009D000823009F040E0812F20E08E010E94DE028B
:1009E000BCCFCF92DF92EF92FF920F931F93CF93E2
:1009F000DF930E943901C4E6D0E0CC24DD24689462
:100A0000C6F80F2EF8E9EF2EFF24F02D0E94B90151
:100A10000E94DB00823029F4C134D10558F02197BF
:100A20000CC00E94DB00813041F4C839D10520F4AC
:100A3000219603C0E70101C0E6010E942701182F9B
:100A40000E94DB00082F0E94DB0061E0013009F00A
:100A500060E041E0823009F040E0812F20E08E012B
:100A60000E94DE02D3CF0F931F930E9439010E9490
:100A7000B90180E060E040E020E000E010E00E948A
:100A8000DE02F5CFEF92FF920F931F93CF93DF9388
:100A90000E943901E0E0F8E0108280E18183128257
:100AA0001382168283E087838DE89BE580A791A758
:100AB00010A211A287E080830F2EF7EEEF2EF3E055
:100AC000FF2EF02DC0E2D8E00E94B9010E94DB00A9
:100AD000813099F4809132219091332123E0873E37
:100AE000920729F410923221109233211AC00196F4
:100AF000809332219093332114C00E94DB00823016
:100B000081F48091322190913321009729F4E09271
:100B10003221F092332105C00197809332219093C6
:100B200033210E942A01813031F410923221109237
:100B3000332118821982009132211091332180E0F3
:100B400060E040E020E00E94DE02BECFAF92BF92A4
:100B5000CF92DF92FF920F931F93DF93CF93CDB786
:100B6000DEB76097CDBFDEBFDE011196E0E0F0E2B8
:100B700020E101900D922150E1F79C0140E050E00E
:100B800060E873EC89EC91E00E947C1159016A01E4
:100B90002B813C8140E050E0C601B5010E947C11F0
:100BA000203080E0380781E0480780E05807F0F007
:100BB0008E010B5F1F4FFF246894F1F804C0F3947B
:100BC000EF2DE830E9F0F801219131918F0140E0FB
:100BD00050E0C601B5010E947C112030F0E03F07D3
:100BE000F1E04F07F0E05F0750F702C0FF24F394F5
:100BF000E0E0F8E0108220A731A78F2D8F7080836E
:100C00006096CDBFDEBFCF91DF911F910F91FF9016
:100C1000DF90CF90BF90AF900895DF92EF92FF9258
:100C20000F931F93CF93DF930E943901E0E0F8E028
:100C3000108280E1818312821382168283E087838F
:100C400088E790E00E94A605DD24FF24C8E7D0E0F5
:100C50000E94B9010E94DB00813049F481E0C03973
:100C6000D80708F42196CE010E94A6050BC00E9469
:100C7000DB00823039F4C333D10520F02197CE0157
:100C80000E94A605809130219091312188319105F3
:100C900088F048978093302190933121F3949F2DD1
:100CA000943040F0D3948D2D843610F4FF2402C08C
:100CB000DD24FF24EE24E3948091302190913121B2
:100CC0008C30910508F0EE2411E09F2D923008F051
:100CD00010E00E942A01813031F4109230211092EC
:100CE0003121DD24FF240E943301882341F08D2D22
:100CF0009AE0899FF0011124EF0DF11D01C0FE0162
:100D000080E06E2D412F20E08F010E94DE02A0CFF7
:100D10000E940D0680E090E008950F93E0EBF9E06B
:100D2000818185FFFDCF4093B009623038F0E0EB60
:100D3000F9E0818185FFFDCF2093B009633039F45C
:100D4000E0EBF9E0818185FFFDCF0093B0090F91C1
:100D5000089584E391E20895CF93DF93C4E3D1E251
:100D6000CE010E94F208CE016DE876E00E944809AB
:100D70000E94A906DF91CF910895FC01428363830D
:100D800074831182108208951F93CF93DF93EC0137
:100D9000162F0E943407E82FF9812F2F30E02F5FA4
:100DA0003F4F6A81C90170E00E946911288130E0DB
:100DB0008217930729F48E2F0E94370780E011C015
:100DC000AB81BC81AF0FB11D1C93898190E001966E
:100DD0006A8170E00E94691189838E2F0E94370713
:100DE00081E0DF91CF911F9108951F93CF93DF93FF
:100DF000EC010E94340719819881191710F0191B12
:100E000003C02A81120F191B0E943707812FDF911F
:100E1000CF911F910895FC01808190E0860F911D74
:100E2000628170E00E9469110380F481E02DE80F77
:100E3000F91F808108951F93CF93DF93EC01162F44
:100E40000E943407482F288130E0210F311D6A812C
:100E5000C90170E00E9469118883842F0E943707BE
:100E6000DF91CF911F9108958FB7F89408958FBFA8
:100E70000895881F8827881F089591E0883F08F407
:100E800090E0892F0895282F30E0207F3070203C9B
:100E90003105E9F1213C31058CF420393105E1F0CF
:100EA0002139310524F42038310579F515C0203A6F
:100EB000310591F0203B310541F50EC0203E310552
:100EC00059F0213E310524F4203D3105F1F41FC0D5
:100ED000203F3105D1F402C083E00895863F79F0C8
:100EE000873F38F4823FA9F0833F59F0813F59F49E
:100EF00008C0883F40F08D3F10F08E3F20F081E029
:100F0000089582E0089580E0089580E0089582E0E9
:100F1000089583E008950F93342F022F462F4F70CA
:100F2000406B232F2F770F77DC01ED91FC9163E06D
:100F300070E009950F9108950F93342F022F462FDB
:100F40004F704069232F2F770F77DC01ED91FC91D3
:100F500063E070E009950F9108950F93342F022FED
:100F6000462F4F704068232F2F770F77DC01ED91CC
:100F7000FC9163E070E009950F9108950F93342F71
:100F8000022F462F4F70406A232F2F770F77DC01F7
:100F9000ED91FC9163E070E009950F9108950F9336
:100FA0001F9320E24030520744F4A0EE40305A072D
:100FB0003CF08A010050104E05C00FEF1FE302C045
:100FC00000E010E0462F4F70406E202F2F77000F6B
:100FD000012F001F110B11950F77DC01ED91FC9192
:100FE00063E070E009951F910F9108950F93242FEE
:100FF000462F4F70406C2F77DC01ED91FC9162E041
:1010000070E000E009950F9108950F93242F462F6B
:101010004F70406D2F77DC01ED91FC9162E070E044
:1010200000E009950F9108950F93DC01ED91FC917B
:1010300061E070E048EF20E000E009950F9108952D
:101040000F93DC01ED91FC9161E070E049EF20E04D
:1010500000E009950F9108950F93DC01ED91FC914B
:1010600061E070E04AEF20E000E009950F910895FB
:101070000F93DC01ED91FC9161E070E04BEF20E01B
:1010800000E009950F9108950F93DC01ED91FC911B
:1010900061E070E04CEF20E000E009950F910895C9
:1010A0000F93DC01ED91FC9161E070E04EEF20E0E8
:1010B00000E009950F9108950F93DC01ED91FC91EB
:1010C00061E070E04FEF20E000E009950F91089596
:1010D0000F93262F2F77DC01ED91FC9162E070E0F9
:1010E00041EF00E009950F9108950F931F93262F6C
:1010F0002F778B01000F012F001F110B11950F7718
:10110000DC01ED91FC9163E070E042EF09951F91E5
:101110000F9108950F93262F2F77DC01ED91FC910D
:1011200062E070E043EF00E009950F9108950F939E
:10113000DC01ED91FC9161E070E046EF20E000E021
:1011400009950F9108950F93462FDC01ED91FC91C5
:1011500061E070E020E000E009950F9108950F93A1
:10116000DC01ED91FC9109950F910895FC016283DA
:1011700073830895FC01648375830895FC0166837D
:1011800077830895FC01608771870895FC01628769
:1011900073870895FC01648775870895FC0166874D
:1011A00077870895FC01608B718B0895FC01628B39
:1011B000738B0895FC01648B758B0895FC01668B1D
:1011C000778B0895FC01608F718F0895FC01628F09
:1011D000738F0895FC01648F758F0895FC01668FED
:1011E000778F0895CF93DF93EC011DA21EA21FA25B
:1011F000BC01685D7F4F88519F4F40EC0E94BD0647
:101200001A821B821C821D821E821F8218861986EA
:101210001A861B861C861D861E861F86188A198ABA
:101220001A8A1B8A1C8A1D8A1E8A1F8A188E198E8A
:101230001A8E1B8E1C8E1D8E1E8E1F8E18A219A23A
:10124000DF91CF910895EF92FF920F931F93CF9369
:10125000DF93162F6623A9F0042FE42EE7017E0109
:10126000F52EE7010F2EF8EEEF2EFF24F02DE80EFD
:10127000F91E6991C7010E94C406AE01401B4117C7
:10128000C0F3DF91CF911F910F91FF90EF900895E0
:10129000FC01608371830895FC0160A371A308952C
:1012A000CF92DF92EF92FF920F931F93CF93DF9332
:1012B000EC016B01F42EE22E102F8DA1843041F44D
:1012C000EA8DFB8D309709F499C0CE01099589C04C
:1012D0006230710509F442C06330710529F0613054
:1012E000710509F074C060C0842F90E0807F907019
:1012F000803A9105E1F0813A91053CF480389105FE
:1013000099F080399105F9F40CC0803E910591F077
:10131000803F910591F0803B9105A9F4EA81FB8122
:1013200014C0EC81FD8111C0EE81FF810EC0E88503
:10133000F9850BC0EA85FB8508C0423F09F05EC015
:10134000EC85FD8502C0E0E0F0E0309709F456C07E
:10135000CE016F2D4E2D212F099543C0842F90E093
:10136000807F9070803D910549F0803F910549F064
:10137000803C910581F4EE85FF850FC0E889F989ED
:101380000CC0433F19F4EA89FB8907C0413FB1F51E
:10139000EC89FD8902C0E0E0F0E0309779F1CE0100
:1013A0006F2D4E2D09951DC0842F0E943D07882367
:1013B00019F0EE89FF8905C08F2D863FF9F4E88D7D
:1013C000F98D3097D9F0CE016F2D09950AC06430A0
:1013D000710590F413C0CE01B6014F2D2E2D012FB3
:1013E0000995EE8DFF8D309771F0CE01B6014F2D2E
:1013F0002E2D012F099507C0CC24DD24EC8DFD8D09
:10140000309749F7EECFDF91CF911F910F91FF9069
:10141000EF90DF90CF9008950F931F93CF93DF93BA
:10142000EC01062F862F0E943D07882369F01DA13D
:1014300081E08DA3CE0161E070E0402F20E000E06C
:101440000E9450091DA395C0802F0E943907882350
:1014500009F455C08DA1843029F00AA381E090E001
:101460008EA39FA3802F0E944307813039F08130E3
:10147000B8F0823079F08330F1F50FC081E08DA3B0
:10148000CE0161E070E0402F20E000E00E945009B2
:101490001DA26FC082E08DA36CC083E08DA369C0E4
:1014A000003F19F0073F19F509C084E08DA380EFD4
:1014B0008AA381E090E08EA39FA35BC02EA13FA1F1
:1014C000C90163E070E00E945511FE01E80FF91FA9
:1014D00087EF82A3B9016F5F7F4F6EA37FA3CE0119
:1014E0004AA12BA10CA10E9450091DA242C01DA21D
:1014F0001EA21FA23EC01DA21EA21FA23AC0EDA1A5
:10150000EE23B9F12EA13FA1C90163E070E00E9472
:101510005511AC018C0F9D1FDC0192960C93929794
:101520002F5F3F4F2EA33FA34130510591F0423032
:101530005105F9F4CE01B9014AA12BA10CA10E94D9
:1015400050098DA18430A9F081E090E08EA39FA383
:1015500010C0E23071F4CE01B9014AA12BA100E024
:101560000E9450098DA1843021F081E090E08EA38B
:101570009FA3DF91CF911F910F910895CF92DF929A
:10158000EF92FF920F931F93CF93DF937C01DC01C7
:101590009096ED91FC919197309709F0099587010C
:1015A00008511F4FC8010E94F506C82EDD24C11442
:1015B000D10491F0C0E0D0E0C80160E00E940B07C8
:1015C000682FC7010E940C0AC80161E00E941B0736
:1015D0002196CC15DD0580F3DF91CF911F910F91FE
:1015E000FF90EF90DF90CF900895EF92FF920F93CE
:1015F0001F937B018C0120E030E040E05FE40E941B
:10160000710E87FD11C0C801B70120E030E040E055
:101610005FE40E94980C0E94A10E9B01AC01205037
:1016200030404040504806C0C801B7010E94A10E9A
:101630009B01AC01B901CA011F910F91FF90EF907E
:101640000895A0E0B0E0E7E2FBE00C94A211FC01F9
:10165000EA018081823008F438C1DB019C9192302C
:1016600008F430C1843059F4943009F02EC19181CE
:1016700011968C911197981709F021C126C19430C9
:1016800009F420C19230B1F4823009F01EC1CA01C0
:10169000AF0128E0DA010D90AD01DC010D92CD0122
:1016A0002150C1F7DB0111968C911197918189230B
:1016B00089830AC1823009F405C1C280D380DB016D
:1016C00012966D907C9013972481358146815781C5
:1016D0001496ED90FD900D911C911797C6018619F7
:1016E00097095C0197FF04C0AA24BB24A81AB90A71
:1016F000B0E2AB16B1040CF061C0181619066CF517
:10170000370148010A2C04C0969487947794679413
:101710000A94D2F781E090E0A0E0B0E00A2C04C087
:10172000880F991FAA1FBB1F0A94D2F70197A1091E
:10173000B1098E219F21A023B123EE24FF2487012C
:10174000E3940097A105B10519F4EE24FF24870165
:10175000E628F728082919293CC00097D1F1CA0CBE
:10176000DB1C39014A010A2C04C0969487947794B3
:1017700067940A94D2F781E090E0A0E0B0E00A2CF0
:1017800004C0880F991FAA1FBB1F0A94D2F70197A4
:10179000A109B10982239323A423B52321E030E0DA
:1017A00040E050E00097A105B10519F420E030E0D9
:1017B000A90126293729482959290BC06C147D0411
:1017C00024F4EE24FF24870104C0630120E030E00C
:1017D000A9018181FB019181891709F445C0882302
:1017E00049F0D801C701821B930BA40BB50B9C01D8
:1017F000AD0104C02E193F09400B510B57FD04C029
:101800001982CA82DB820BC081E08983CA82DB82B3
:1018100050954095309521953F4F4F4F5F4F2C830A
:101820003D834E835F830DC0880F991FAA1FBB1F86
:101830008C839D83AE83BF838A819B8101978A833A
:101840009B838C819D81AE81BF819C01AD01215024
:101850003040404050402F3FEFEF3E07EFEF4E0744
:10186000EFE35E0708F30BC08983CA82DB822E0D8B
:101870003F1D401F511F2C833D834E835F8383E0B8
:1018800088832C813D814E815F8157FF1DC0DA0125
:10189000C90181709070A070B070569547953795CA
:1018A0002795822B932BA42BB52B8C839D83AE8302
:1018B000BF838A819B8101968A839B8305C0E0E177
:1018C000F0E203C0FB0101C0FE01CF01CDB7DEB7DE
:1018D000EEE00C94BB11A0E2B0E0E1E7FCE00C9478
:1018E000AA1169837A838B839C832D833E834F83E4
:1018F000588789E0E82EF12CEC0EFD1ECE010196F2
:10190000B7010E9493108E010F5E1F4FCE01059606
:10191000B8010E949310C701B801AE01475E5F4F46
:101920000E94210B0E94C50FA096E6E00C94C31103
:10193000A0E2B0E0EEE9FCE00C94AA1169837A839E
:101940008B839C832D833E834F8358878E01075F53
:101950001F4FCE010196B8010E94931091E1E92E2C
:10196000F12CEC0EFD1ECE010596B7010E949310DE
:101970008A8991E089278A8BC801B701AE01475E49
:101980005F4F0E94210B0E94C50FA096E6E00C94C9
:10199000C311A0E2B0E0EFECFCE00C949E1169836F
:1019A0007A838B839C832D833E834F835887CE011C
:1019B0000196BE01675F7F4F0E949310CE0105968E
:1019C000BE016F5E7F4F0E9493109985923078F030
:1019D00089898230C0F0943019F4823041F4CBC050
:1019E000843019F4923079F4C6C0923051F481E019
:1019F0002A859A89291709F480E08A87CE010996F9
:101A0000BCC0823051F481E02A859A89291709F4F3
:101A100080E08A8BCE014196B0C06D847E848F8435
:101A20009888ED88FE880F89188DE0E2F0E080E06C
:101A300090E0DC01AA24BB24650120E030E0A9018C
:101A4000B3016170707061157105D1F02E0D3F1DED
:101A5000401F511F15012601280E391E4A1E5B1E0C
:101A600081E090E0A0E0B0E02E153F05400751076F
:101A700018F080E090E0DC01820D931DA41DB51DDF
:101A8000AA0CBB1CCC1CDD1C17FF09C061E0262E74
:101A9000312C412C512CA228B328C428D5283197A9
:101AA00049F0EE0CFF1C001F111F96948794779449
:101AB0006794C6CF6B897C89EB85FC856E0F7F1F91
:101AC0006E5F7F4F6B8F7C8F61E0EA857A89E717C5
:101AD00009F460E06A8F6B8D7C8D10C0FC01E170B1
:101AE000F070309729F056954795379527955068AF
:101AF000B695A795979587956F5F7F4FB7FDEECF0A
:101B00000CC0880F991FAA1FBB1F57FD8160220FB1
:101B1000331F441F551F615070408030E0E09E0726
:101B2000E0E0AE07E0E4BE0760F36B8F7C8F6FE709
:101B3000E62EF12C012D112DE822F9220A231B2378
:101B400060E4E616F1040105110561F487FD0AC0A1
:101B5000211531054105510529F0805C9F4FAF4F9C
:101B6000BF4F80788D8F9E8FAF8FB8A383E0898F12
:101B7000CE01499602C080E190E20E94C50FA09676
:101B8000E2E10C94B711A8E1B0E0E9ECFDE00C94BF
:101B9000A61169837A838B839C832D833E834F8335
:101BA00058878E01075F1F4FCE010196B8010E9432
:101BB000931081E1E82EF12CEC0EFD1ECE0105966E
:101BC000B7010E9493109985923008F483C08989E7
:101BD000823008F47BC02A853A8923272A879430EB
:101BE00011F0923021F4981709F06CC071C0843064
:101BF00039F41D861E861F86188A1B861C866AC0BD
:101C0000823019F484E0898765C08B859C852B8997
:101C10003C89821B930B8B879C872D853E854F8546
:101C20005889ED88FE880F89188D2E153F054007CD
:101C3000510738F4220F331F441F551F01978B871C
:101C40009C876FE170E0A12CB12CC12CA0E4DA2EAE
:101C500080E090E0DC012E153F054007510740F081
:101C60008A299B29AC29BD292E193F09400B510B0C
:101C7000D694C794B794A794220F331F441F551FBF
:101C80006150704041F76FE7E62EF12C012D112DC8
:101C9000E822F9220A231B2360E4E616F104010579
:101CA000110561F487FD0AC0211531054105510573
:101CB00029F0805C9F4FAF4FBF4F80788D879E8704
:101CC000AF87B88B8E01075F1F4F04C0870102C02A
:101CD00000E110E2C8010E94C50F6896EAE00C948A
:101CE000BF11A8E1B0E0E7E7FEE00C94AA11698318
:101CF0007A838B839C832D833E834F8358878E0109
:101D0000075F1F4FCE010196B8010E94931081E139
:101D1000E82EF12CEC0EFD1ECE010596B7010E94B7
:101D200093108985823040F08989823028F0C8017B
:101D3000B7010E94FC1001C08FEF6896E6E00C949A
:101D4000C311ACE0B0E0E7EAFEE00C94AE116983A9
:101D50007A838B839C83CE010196BE016B5F7F4F9C
:101D60000E9493108D81823081F1823070F1843035
:101D700021F48E81882369F10AC02F81388537FDCF
:101D800024C06E812F3131053CF0662311F120E033
:101D900030E040E050E821C08EE190E0821B930BE0
:101DA00029853A854B855C8504C0569547953795BE
:101DB00027958A95D2F7662381F050954095309506
:101DC00021953F4F4F4F5F4F08C020E030E0A90101
:101DD00004C02FEF3FEF4FEF5FE7B901CA012C9628
:101DE000E2E00C94C711A8E0B0E0E9EFFEE00C944B
:101DF000A8117B018C011A8261157105810591057D
:101E000019F482E089835FC083E089838EE1C82E64
:101E1000D12CCB82DC82ED82FE820F831887C80131
:101E2000B7010E946B0FFC013197F7FF3AC0AA2758
:101E3000BB27AE1BBF0B21E030E040E050E00A2E94
:101E400004C0220F331F441F551F0A94D2F721509C
:101E50003040404050402E213F214023512361E03B
:101E600070E080E090E0211531054105510519F43D
:101E700060E070E0CB0104C016950795F794E794F5
:101E8000AA95D2F7E62AF72A082B192BED82FE82B3
:101E90000F8318878EE190E08E1B9F0B8B839C83B2
:101EA00012C0309781F00E2E04C0EE0CFF1C001FF4
:101EB000111F0A94D2F7ED82FE820F831887CE1A83
:101EC000DF0ACB82DC82CE0101960E94C50F2896E4
:101ED000E8E00C94C111AF92BF92CF92DF92EF92E3
:101EE000FF920F931F937B018C0180E0E81680E046
:101EF000F80681E0080780E0180758F4EFEFEE16C7
:101F0000F1040105110509F090F480E090E0DC0196
:101F100017C0F0E0EF16F0E0FF06F0E00F07F1E089
:101F20001F0750F480E190E0A0E0B0E009C088E035
:101F300090E0A0E0B0E004C088E190E0A0E0B0E074
:101F400020E230E040E050E0281B390B4A0B5B0BED
:101F50005701680104C0D694C794B794A7948A9592
:101F6000D2F7D601C501885E9F4DFC018081281BF8
:101F7000310941095109C9011F910F91FF90EF905B
:101F8000DF90CF90BF90AF900895EF92FF920F93A4
:101F90001F93CF93DF93FC012481358146815781C4
:101FA00061818081823020F44061EFEFF0E0A3C0D6
:101FB000843009F49BC0823009F492C021153105A8
:101FC0004105510509F48FC00280F381E02D8FEFA8
:101FD000E238F8070CF05AC0C2E8DFEFCE1BDF0B87
:101FE000CA31D1056CF579018A010C2E04C0169511
:101FF0000795F794E7940A94D2F781E090E0A0E087
:10200000B0E00C2E04C0880F991FAA1FBB1F0A94B2
:10201000D2F70197A109B10982239323A423B52301
:1020200021E030E040E050E00097A105B10519F44F
:1020300020E030E0A9012E293F29402B512B03C07D
:1020400020E030E0A901DA01C9018F779070A0701B
:10205000B07080349105A105B10539F427FF09C09E
:10206000205C3F4F4F4F5F4F04C0215C3F4F4F4FAD
:102070005F4FE1E0F0E0203080E0380780E0480783
:1020800080E4580728F5E0E0F0E022C0E038F105F0
:102090006CF5E158FF4FDA01C9018F779070A0709D
:1020A000B07080349105A105B10539F427FF09C04E
:1020B000205C3F4F4F4F5F4F04C0215C3F4F4F4F5D
:1020C0005F4F57FF05C05695479537952795319631
:1020D00087E056954795379527958A95D1F70BC098
:1020E000E0E0F0E005C0E0E0F0E005C0EFEFF0E098
:1020F00020E030E0A9018E2F879588278795942FBF
:102100009F77679566276795E695E22EA92FA82BFE
:10211000FE2FF62B622F732F8A2F9F2FCDB7DEB79E
:10212000E6E00C94C311DC01FB012C9111963C916B
:10213000119712968C911297482F4F7750E0982F55
:10214000991F9927991F13966C911397862F880FC3
:10215000892B90E0661F6627661F6183009739F51B
:10216000211531054105510511F482E029C082E8AD
:102170009FEF8283938367E0220F331F441F551F15
:102180006A95D1F783E0808309C0220F331F441F73
:10219000551F82819381019782839383203080E051
:1021A000380780E0480780E4580778F320C08F3F65
:1021B000910579F4211531054105510519F484E0A3
:1021C0008083089544FF03C081E0808310C01082A3
:1021D0000EC08F5790408283938383E0808387E093
:1021E000220F331F441F551F8A95D1F75064248353
:1021F0003583468357830895FC01DB01908192303B
:1022000008F449C08C91823008F445C0943051F4F0
:1022100061818430B1F511962C91119730E0261B25
:10222000310941C0843021F0923041F48230B1F163
:1022300011968C9111978823A1F12DC06181823074
:1022400001F111968C9111976817D9F4228133818D
:1022500012968D919C9113978217930794F02817EB
:102260003907BCF0248135814681578114968D91C0
:102270009D910D90BC91A02D82179307A407B507DF
:1022800018F4662341F00DC0281739074A075B0789
:1022900028F4662331F021E030E005C020E030E092
:1022A00002C02FEF3FEFC9010895AA1BBB1B51E1EC
:1022B00007C0AA1FBB1FA617B70710F0A61BB70BB6
:1022C000881F991F5A95A9F780959095BC01CD015B
:1022D000089597FB092E07260AD077FD04D0E5DF85
:1022E00006D000201AF4709561957F4F0895F6F797
:1022F000909581959F4F0895A1E21A2EAA1BBB1BB2
:10230000FD010DC0AA1FBB1FEE1FFF1FA217B307C1
:10231000E407F50720F0A21BB30BE40BF50B661FD7
:10232000771F881F991F1A9469F76095709580959B
:1023300090959B01AC01BD01CF0108952F923F9272
:102340004F925F926F927F928F929F92AF92BF92C5
:10235000CF92DF92EF92FF920F931F93CF93DF9371
:10236000CDB7DEB7CA1BDB0BCDBFDEBF09942A8811
:10237000398848885F846E847D848C849B84AA8499
:10238000B984C884DF80EE80FD800C811B81AA8126
:10239000B981CE0FD11DCDBFDEBFED010895F894F8
:0223A000FFCF6D
:1023A20000000100020004000800400000010004D7
:1023B200000000000000000000010202030303030A
:1023C20004040404040404040505050505050505C3
:1023D20005050505050505050606060606060606A3
:1023E200060606060606060606060606060606068B
:1023F2000606060606060606070707070707070773
:10240200070707070707070707070707070707075A
:10241200070707070707070707070707070707074A
:10242200070707070707070707070707070707073A
:102432000707070707070707080808080808080822
:10244200080808080808080808080808080808080A
:1024520008080808080808080808080808080808FA
:1024620008080808080808080808080808080808EA
:1024720008080808080808080808080808080808DA
:1024820008080808080808080808080808080808CA
:1024920008080808080808080808080808080808BA
:1024A20008080808080808080808080808080808AA
:0824B2000808080808080808E2
:00000001FF
