:100000000C94BC000C94D9000C94D9000C94D90029
:100010000C94D9000C94D9000C94D9000C94D900FC
:100020000C94D9000C94D9000C94D9000C94D900EC
:100030000C94D9000C94D9000C94D9000C94D900DC
:100040000C94DB000C9407050C942E050C94ED0029
:100050000C94D9000C94D9000C94D9000C94D900BC
:100060000C94D9000C94D9000C94D9000C94D900AC
:100070000C94D9000C94D9000C94D9000C94D9009C
:100080000C94D9000C94D9000C94D9000C94D9008C
:100090000C94D9000C94D9000C94D9000C94D9007C
:1000A0000C94D9000C94D9000C94D9000C94D9006C
:1000B0000C94D9000C94D9000C94D9000C94D9005C
:1000C0000C94D9000C94D9000C94D9000C94D9004C
:1000D0000C94D9000C94D9000C94D9000C94D9003C
:1000E0000C94D9000C94D9000C94D9000C94D9002C
:1000F0000C94D9000C94D9000C94D9000C94D9001C
:100100000C94D9000C94D9000C94D9000C94D9000B
:100110000C94D9000C94D9000C94D9000C94D900FB
:100120000C94D9000C94D9000C94D9000C94D900EB
:100130000C94D9000C94D9000C94D9000C94D900DB
:100140000C94D9000C94D9000C94D9000C94D900CB
:100150000C94D9000C94D9000C94D9000C94D900BB
:100160000C94D9000C94D9000C94D9000C94D604AA
:100170000C94D9000C94D90011241FBECFEFD7E204
:10018000DEBFCDBF11E2A0E0B0E2E0E0F1E302C0EB
:1001900005900D92AC33B107D9F713E2ACE3B1E2AD
:1001A00001C01D92A037B107E1F70E94AF050C9482
:1001B0007E180C9400001F920F920FB60F9211241C
:1001C000EF93FF93E0E0F8E010A211A2FF91EF910E
:1001D0000F900FBE0F901F9018951F920F920FB6A1
:1001E0000F9211240F900FBE0F901F9018950F9330
:1001F0001F93DF93CF93CDB7DEB7AE97CDBFDEBFF2
:10020000DE011F96E0E0F0E280E201900D92815065
:10021000E1F7809100088F70898381E08A831B82D7
:100220001C821D821E8220913C2130913D2140E0A4
:1002300050E060E078EA84ED95E50E94BC172F83DA
:10024000388749875A876F81788589859A85EA81B9
:10025000F0E0EE0FFF1FEE0FFF1F8E010F5F1F4F2D
:1002600011C08A818F5F8A838A81883008F043C0F9
:100270006F81788589859A85EA81F0E0EE0FFF1F0E
:10028000EE0FFF1FE00FF11F26853785408951894A
:100290000E94BC172B873C874D875E878B859C858A
:1002A000AD85BE85803020E0920721E0A20720E0E6
:1002B000B207B8F6E0E0F8E01092000810A211A230
:1002C0008B859C85AD85BE8580A791A78B859C85F8
:1002D000AD85BE8568E170E00E94951766A777A797
:1002E0008091010880618183809101088068818309
:1002F0008A8180930008AE96CDBFDEBFCF91DF919B
:100300001F910F91089580933C2190933D210E946D
:10031000F700E0E0F8E087818F738783878180684A
:10032000878387818C7F87838781826087838181B0
:1003300080688183818180618183089580913C21DF
:1003400090913D21089580913C2190913D2101960D
:1003500080933C2190933D210E94F7000895809165
:100360003C2190913D21019780933C2190933D2128
:100370000E94F70008958091542108952F923F9292
:100380004F925F926F927F928F929F92AF92BF92A5
:10039000CF92DF92EF92FF920F931F93DF93CF9351
:1003A00000D0CDB7DEB76B012A01E82FF0E0EE0FE9
:1003B000FF1FE65BFE4D6081718180E090E00E944E
:1003C000141520E030E042E755E40E9484137B01DD
:1003D0008C01B2016C197D096F5F7F4F80E090E066
:1003E0000E9414159B01AC01C801B7010E948A123A
:1003F0007B018C01B60180E090E00E941415D62E9E
:10040000C72EB82EA92E160189839A836E2D7F2DB3
:10041000802F912FD601F5012B2F3A2F4F2F5E2FD2
:100420000E942C12962E872E782E692EB20180E023
:1004300090E00E941415F62E072F182FE92EA40124
:100440009301652F742F832F922F2F2D302F412F43
:100450005E2D0E943214181624F0F92C082D172D49
:10046000E62C6F2D702F812F9E2DD601F5012B2F9D
:100470003C2D4F2F5A2D0E94921487FD04C03F2C13
:10048000202E1983EA82A10139812A81652F722DDC
:10049000832F922F0E94B610CB010F900F90CF9117
:1004A000DF911F910F91FF90EF90DF90CF90BF9061
:1004B000AF909F908F907F906F905F904F903F9004
:1004C0002F9008958F929F92AF92BF92CF92DF921A
:1004D000EF92FF920F931F93CF93DF93FC0122E0E3
:1004E00030E0CAE0D0E073E0C72ED12C68E0A62E41
:1004F000B12C00E616E050E4E52E56E0F52E40EF74
:10050000942E98E3892ECF01BE010E949517482FA3
:10051000309719F4223009F04AE0C901B6010E946F
:10052000A917B50102C0660F771F8A95E2F7D801B7
:1005300016966C93D70116969C9216974295407F1B
:1005400015964C93D80115968C9215972F5F3F4FB7
:100550002530310531F0CF01BE010E949517FB0116
:10056000D2CFDF91CF911F910F91FF90EF90DF904D
:10057000CF90BF90AF909F908F900895882321F0E7
:1005800088E0E0E4F6E08683662321F084E0E0E69C
:10059000F6E08583442321F081E0E0E6F6E0858300
:1005A000222321F082E0E0E6F6E0858308958823A7
:1005B00021F088E0E0E4F6E08583662321F084E022
:1005C000E0E6F6E08683442321F081E0E0E6F6E011
:1005D0008683222321F082E0E0E6F6E08683089518
:1005E0008091422108958091432108958091402176
:1005F000089580914121089580913E210895809130
:100600003F210895CF93DF93E0E4F0E061E084E0E0
:10061000C0E5D0E05BE848E0A0E5B0E032EC28E1DE
:1006200098ED15C0618383835A8340935000709185
:10063000510073FFFCCF15963C9315972093500003
:100640007091510074FFFCCF94BF80934000709173
:100650004000743039F7F894A0E6B6E080E81596CB
:100660008C93159790E412969C93129711968C9305
:100670001197E0EBF9E088E1848390E2938333E023
:1006800035838FE2868317828091A2008768E0EA33
:10069000F0E082837894C0E0D6E089EF8A83E0E0DE
:1006A000F2E01092000211829283138291E094830F
:1006B00016828091000281608093000290A311A2B3
:1006C00012A240E256E08CE0FA01828328E080E842
:1006D00096E0FC012283FA01328386E089838D83D0
:1006E000E0E4F6E088EF81838FE311968C93119715
:1006F00088E315968C93159790EF958316968C93B7
:10070000169787E016968C9316972583DF91CF91E5
:100710000895BF92CF92DF92EF92FF920F931F93B3
:10072000DF93CF930F92CDB7DEB780918806869581
:100730008695869591E009F090E08091280686954F
:10074000869580FD02C082E001C080E0C82EC92AE3
:100750008091280686958695869580FD02C084E066
:1007600001C080E0C82AC09249216091482170E010
:10077000D0904721E4E4F1E280E090E04C2D50E09D
:1007800021E030E0B82E8A01082E02C015950795A9
:100790000A94E2F7DB01082E02C0B595A7950A94EA
:1007A000E2F70A171B0721F4A081AF5FA08301C005
:1007B0001082A081A93060F0D90102C0AA0FBB1F2E
:1007C000BA94E2F7BA2FB095DB22AC21DA2A108274
:1007D0000196319683309105A9F6D0924721C092B7
:1007E000482180913E21D0FE0CC0882319F0109240
:1007F0003F2103C081E080933F2181E080933E212F
:100800000AC0882321F082E080933F2102C0109229
:100810003F2110923E2180914021D1FE0CC08823BF
:1008200019F01092412103C081E08093412181E0C1
:10083000809340210AC0882321F082E080934121E7
:1008400002C0109241211092402180914221D2FE9B
:100850000CC0882319F01092432103C081E08093DB
:10086000432181E0809342210AC0882321F082E065
:100870008093432102C01092432110924221198299
:1008800080E092E062C0209123022160FC0123A35A
:1008900020912102277C21A340912102298130E06F
:1008A0002D5F3F4F63E0220F331F6A95E1F7422B24
:1008B00041A320912002206820A32091230220FF41
:1008C000FCCFE98120912402F0E0EE0FFF1FE65BF0
:1008D000FE4D20831182E981F0E020912502EE0F88
:1008E000FF1FE65BFE4DF22EEE24208131812E2982
:1008F0003F2920833183E981F0E0EE0FFF1FE65BA3
:10090000FE4D20813181203E310548F4E981F0E03F
:10091000EE0FFF1FE65BFE4D1082118213C0E981CE
:10092000A981F0E0EE0FFF1FE65BFE4DB0E0AA0FDD
:10093000BB1FA65BBE4D2D913C911197205E3040B0
:100940002083318329812F5F29832981253008F471
:100950009ACF8091280641E080FD40E06091280612
:10096000842F90E02091552151E0252730E082230B
:100970009323009759F0862F869580FD03C05093EE
:10098000542106C082E08093542102C01092542169
:10099000409355210F90CF91DF911F910F91FF90C0
:1009A000EF90DF90CF90BF90089508951F920F921F
:1009B0000FB60F9211242F933F934F935F936F9332
:1009C0007F938F939F93AF93BF93CF93DF93EF93D7
:1009D000FF93CFE7D2E2CE0161E040EB59E00E9405
:1009E000FB0ECE010E948210FF91EF91DF91CF911B
:1009F000BF91AF919F918F917F916F915F914F9137
:100A00003F912F910F900FBE0F901F9018951F923E
:100A10000F920FB60F9211242F933F934F935F9332
:100A20006F937F938F939F93AF93BF93EF93FF93B6
:100A300086E591E260E00E94BD09FF91EF91BF91D0
:100A4000AF919F918F917F916F915F914F913F9166
:100A50002F910F900FBE0F901F9018951F920F921D
:100A60000FB60F9211242F933F934F935F936F9381
:100A70007F938F939F93AF93BF93EF93FF9386E5FD
:100A800091E260E00E94990BFF91EF91BF91AF91CD
:100A90009F918F917F916F915F914F913F912F9196
:100AA0000F900FBE0F901F9018950F931F93DF9319
:100AB000CF9300D00F92CDB7DEB78C016A834B8302
:100AC00080E98983C80161E0AE014F5F5F4F0E94FA
:100AD000FB0EC80161E0AE014E5F5F4F0E94FB0E4E
:100AE000C80161E0AE014D5F5F4F0E94FB0EC8017F
:100AF0000E9482102396CDBFDEBFCF91DF911F9160
:100B00000F9108950F931F93DF93CF9300D00F920F
:100B1000CDB7DEB78C016A834B8380E88983C80137
:100B200061E0AE014F5F5F4F0E94FB0EC80161E0C4
:100B3000AE014E5F5F4F0E94FB0EC80161E0AE0147
:100B40004D5F5F4F0E94FB0EC8010E9482102396EA
:100B5000CDBFDEBFCF91DF911F910F9108950E940D
:100B6000020386E591E20E944B098FE792E266E577
:100B700071E20E946C0C8CE390E00E9483010E9461
:100B80009E010E9462020E9489030E94BB01813083
:100B900019F40E94A30106C00E94BB01823011F427
:100BA0000E94AF010E949E010E9462020E94F9020F
:100BB000813029F486E591E261E00E94BD090E943E
:100BC000FF02823031F486E591E261E00E94990BE8
:100BD000DACF0E94F3028130B1F686E591E261E05E
:100BE0000E94BD09D0CFFC011082118212821382B3
:100BF0001482158216821782108680E1128613866F
:100C000011861486158616861786108A118A128A0E
:100C1000138A81503B96882389F70895CF93DF93F9
:100C2000FC01A181B28109C011968C9111978617A0
:100C300038F413960D90BC91A02D1097A9F75DC0C4
:100C4000861709F05AC0808181508083882321F45F
:100C5000CF010E94F3054FC015962D913C91169738
:100C600013968D919C9114972115310521F0E9017E
:100C70008B839C8302C08183928313968D919C9178
:100C80001497009721F0EC012D833E8302C023834B
:100C900034831996CD91DC911A9717968D919C917A
:100CA0001897209719F08F83988702C085839683C1
:100CB00017968D919C911897009721F0FC01C187A0
:100CC000D28702C0C783D08711961C9211971296C3
:100CD0001C9212971C9213961D921C9214971596B3
:100CE0001D921C92169717961D921C921897199692
:100CF0001D921C921A9781E001C080E0DF91CF9194
:100D00000895CF92DF92EF92FF920F931F93CF93AC
:100D1000DF93FC01A181B28109C011968C911197DA
:100D2000861730F413960D90BC91A02D1097A9F75B
:100D300011968C911197861709F048C012964C9322
:100D40001297878190858A179B0709F4E7C08581F0
:100D500096818A179B0749F41796CD91DC911897D5
:100D6000C583D68319861A8612C019962D913C9197
:100D70001A9717968D919C911897E9018F83988700
:100D800017968D919C911897EC0129873A8780815D
:100D9000813069F4A783B087A583B68317961D9227
:100DA0001C92189719961D921C921A97BAC0179602
:100DB0001D921C921897C781D0851996CD93DC930C
:100DC0001A97AF83B887A783B087A8C0EF0180E0E8
:100DD00090E0282F39853323E9F43BE0E32EF12C12
:100DE0008E9DE0018F9DD00D9E9DD00D1124CE0FC4
:100DF000DF1F81E0898730E02E9DE0012F9DD00D1F
:100E00003E9DD00D1124CE0109968E0F9F1F009795
:100E100039F486C001962B9680319105D1F680C0B9
:100E200050815F5F50836E01CE0EDF1EE6016A8740
:100E300089010F5F1F4F0E9DB0010F9D700D1E9D0C
:100E4000700D11246E0F7F1FEB014883513061F448
:100E5000D6011C961D921C921D971E961D921C92E7
:100E60001F97818392830DC0109771F4A381B48181
:100E7000E601AE87BF871C861D8613968D939C93D3
:100E800014978383948356C0E601AC87BD8715967B
:100E90004D915C9116974E875F8715968D939C9325
:100EA0001697AE85BF85109719F48183928342C04F
:100EB00013968D939C9314973DC087839087858369
:100EC00096838BE090E0289FD001299FB00D389F3A
:100ED000B00D1124AE0FBF1F50961D921C9251975A
:100EE00052961D921C92539719C04BE050E0249FDC
:100EF000D001259FB00D349FB00D1124AE0FBF1F40
:100F000050961D921C925197C781D0855296CD93D1
:100F1000DC9353978F8398878783908781E001C004
:100F200080E0DF91CF911F910F91FF90EF90DF90C4
:100F3000CF90089540814130C1F6BFCF0F931F93EA
:100F4000DF93CF9300D000D0CDB7DEB78C01809176
:100F5000280890912908A0E0B0E089839A83AB83A8
:100F6000BC83F8018785833089F1843030F4813087
:100F700069F0823009F06FC01CC0853009F44DC0A3
:100F8000853068F1863009F066C056C029813A8103
:100F90004B815C81DA01C901880F991FAA1FBB1F11
:100FA000820F931FA41FB51F89839A83AB83BC83D1
:100FB00043C089819A81AB81BC81880F991FAA1F88
:100FC000BB1F89839A83AB83BC8327C089819A81A5
:100FD000AB81BC81B695A7959795879538C0298137
:100FE0003A814B815C81DA01C901880F991FAA1FE0
:100FF000BB1F820F931FA41FB51F89839A83AB83E6
:10100000BC8389819A81AB81BC8133E0B695A79579
:10101000979587953A95D1F71AC069817A818B8126
:101020009C8123E030E040E050E00E94BC1729831F
:101030003A834B835C830FC089819A81AB81BC81E9
:1010400022E0B695A795979587952A95D1F789833C
:101050009A83AB83BC8369817A818B819C81F801FF
:10106000278130E02F5F3F4F442737FD4095542FB5
:101070000E94BC1729833A834B835C8389819A81C0
:10108000AB81BC81F801818792872496CDBFDEBFFA
:10109000CF91DF911F910F9108952F923F925F9210
:1010A0006F927F928F929F92AF92BF92CF92DF9278
:1010B000EF92FF920F931F93DF93CF93CDB7DEB7DD
:1010C0008C012DB63EB6DC011D968C911D97F80162
:1010D000E059FF4F9080692C7724EDB7FEB7E619F1
:1010E000F709EDBFFEBFEDB6FEB60894E11CF11C9A
:1010F000823009F442C0833030F4882371F08130AB
:1011000009F0ACC022C0833009F44FC0843009F02C
:10111000A5C05701F70180E062C0F801EF58FF4F0A
:10112000A081B18180E00EC0E82FF0E03896EE0F8C
:10113000FF1FE00FF11FA083B1838F5F13960D9007
:10114000BC91A02D109781F78AC0F801ED58FF4F90
:10115000A081B18180E00EC0E82FF0E03896EE0F5C
:10116000FF1FE00FF11FA083B1838F5F15960D90D5
:10117000BC91A02D109781F772C0F801EB58FF4F7A
:10118000A081B18180E00EC0E82FF0E03896EE0F2C
:10119000FF1FE00FF11FA083B1838F5F17960D90A3
:1011A000BC91A02D109781F75AC0F801E958FF4F64
:1011B000A081B18180E00EC0E82FF0E03896EE0FFC
:1011C000FF1FE00FF11FA083B1838F5F19960D9071
:1011D000BC91A02D109781F742C081938F5F891534
:1011E000E0F36701892C552410C00E945318D601E2
:1011F0002C91682D752D0E94A917F701E80FF11D9C
:101200008081D6018D936D0120838C2D8E198915D7
:1012100060F3B801605F7F4FC301880F991F40964C
:10122000800F911F98012F583F4F13C0F901A081E3
:10123000B181F50151915F0140E005C013960D9019
:10124000BC91A02D4F5F4517C8F3FB01A193B1934B
:10125000BF016817790751F7892D01C080E08150DF
:10126000D80116968C93169712961C9212972DBE43
:101270003EBECF91DF911F910F91FF90EF90DF90D5
:10128000CF90BF90AF909F908F907F906F905F9026
:101290003F902F9008950F931F93DF93CF9300D02B
:1012A00000D0CDB7DEB78C01E0E0F8E08091010816
:1012B0008F7D8183809101088F7B818380910708D6
:1012C0008F7C8783809107088062878380910708DD
:1012D000837F87838091070888608783C80180594E
:1012E0009F4F0E94F305F801709680E311921192CE
:1012F0008150E1F7F8011382158214821682178259
:101300001086118612861386148615861686178611
:10131000118281E08283C8010E949E07F8016685E0
:1013200070E080E090E02185328540E050E00E944E
:10133000761769837A838B839C8369817A818B8119
:101340009C812FEF30E040E050E00E94BC172983E1
:101350003A834B835C8389819A81AB81BC81F8019C
:10136000838794872496CDBFDEBFCF91DF911F91F5
:101370000F910895FC0162830895AF92BF92CF92BE
:10138000DF92EF92FF920F931F93DF93CF93CDB72E
:10139000DEB76097CDBFDEBF8C01F62EE0E0F8E04F
:1013A000809101088F7D8183809101088F7B8183EB
:1013B00080910C088062848780910C088064848707
:1013C000F801E059FF4F8081882309F4A4C180917E
:1013D000200890912108A0E0B0E089839A83AB8334
:1013E000BC83D80111968C911197882361F10E94DA
:1013F000670CD8011396EC911397F0E03896EE0F36
:10140000FF1FE00FF11F0190F081E02D15964C9128
:1014100015972CE0429FA00111242181420F511DFC
:1014200002C04C5050404F3F510509F0D0F760E0EA
:1014300022810E94810D80E060E040E021E00E9476
:10144000D702F801118280E060E070E043E050E0F4
:101450000E94BE01B82E81E060E070E044E050E000
:101460000E94BE01C82E82E060E070E046E050E0DD
:101470000E94BE01D82E83E06BE070E04FEF50E099
:101480000E94BE01E82E84E060E070E044E050E09D
:101490000E94BE01D80117962C9117971F969C9118
:1014A0001F979D1529F491E02C1519F490E001C0C7
:1014B00091E0F80126852E1511F4A92E02C0AA2468
:1014C000A394D8011D962C911D97281721F021E097
:1014D00012962C931297F801B086C782D786E686BB
:1014E0008587992319F0C8010E949E07AA2041F11F
:1014F000D8011E966C911E9770E080E090E01996DE
:101500002D913C911A9740E050E00E9476176D872C
:101510007E878F87988B6D857E858F8598892FEF45
:1015200030E040E050E00E94BC172D873E874F8797
:10153000588B8D859E85AF85B889F8018387948700
:1015400029813A814B815C81D80119968D919C91BA
:101550001A97A0E0B0E0820F931FA41FB51F8D83E0
:101560009E83AF83B88729813A814B815C81F801E2
:1015700083859485A0E0B0E0820F931FA41FB51F60
:1015800089879A87AB87BC872D813E814F8158859B
:101590008091280890912908A0E0B0E08217930775
:1015A000A407B50790F48D819E81AF81B885209105
:1015B00028083091290840E050E0821B930BA40BCF
:1015C000B50B8D839E83AF83B88729853A854B857C
:1015D0005C858091280890912908A0E0B0E08217EE
:1015E0009307A407B50790F489859A85AB85BC85D8
:1015F000209128083091290840E050E0821B930B8D
:10160000A40BB50B89879A87AB87BC878D819E8198
:10161000AF81B885E0E0F8E082A793A789859A8535
:10162000AB85BC8584A795A7D80112968C9112979B
:10163000882319F0C8010E944D08FF2059F5F801D0
:1016400084818F5F84839781981720F4148283812B
:101650008F5F8383D80113969C91139716968C9174
:101660001697891750F413961C92139715968C9120
:1016700015978F5F15968C931597F8019581808546
:10168000891788F415828585843069F4C8010E9421
:101690004D0809C0D80115961C92159713961C92F7
:1016A000139714961C920E94670CD8011396EC9124
:1016B0001397F0E03896EE0FFF1FE00FF11F019037
:1016C000F081E02D15964C9115972CE0429FA001DA
:1016D00011242181420F511D02C04C5050404F3FF8
:1016E000510509F0D0F760E022810E946F0D80E083
:1016F00060E040E021E00E94BE0281E0F8018183C9
:101700008083E0E0F8E0809101088062818380912D
:101710000108806481836096CDBFDEBFCF91DF91E9
:101720001F910F91FF90EF90DF90CF90BF90AF90FF
:1017300008951F93CF93DF93EC01162FE0E0F8E0BC
:10174000809101088F7D8183809101088F7B818347
:1017500080910C08806484878981882331F10E94FC
:10176000670CEB81F0E03896EE0FFF1FEC0FFD1FCA
:101770000190F081E02D4D812CE0429FA0011124C9
:101780002181420F511D02C04C5050404F3F510526
:1017900009F0D0F760E022810E94810D80E060E0D6
:1017A00040E021E00E94D7021982112311F0188233
:1017B00006C0809101088062E0E0F8E08183DF915B
:1017C000CF911F9108950F931F93CF93DF93EC0157
:1017D0008C0100591F4FC8010E948106882351F0D7
:1017E00081E08A83F8018081813021F4CE0161E0BB
:1017F0000E94BD09DF91CF911F910F910895FF9233
:101800000F931F93CF93DF93EC01F62EEB81F0E063
:101810003896EE0FFF1FE80FF91F0190F081E02DC1
:101820008181861721F4CE0160E00E94990B8E0120
:1018300000591F4FC8016F2D0E940E06882351F0DA
:1018400081E08A83F8018081882321F4CE0161E060
:101850000E94990BDF91CF911F910F91FF900895F6
:10186000FC012081222319F061E00E94BD09089546
:101870000F938091B10985FFFCCF4093B00962308E
:1018800070F08091B10985FFFCCF2093B0096330DF
:1018900031F48091B10985FFFCCF0093B0090F911D
:1018A000089580916C2390916D23642F0E94FF0B0B
:1018B0000895642F80916C2390916D23222319F455
:1018C0000E94FF0B0895422F0E94E30B0895809120
:1018D0006E2390916F230895EF92FF920F931F93C1
:1018E000CF93DF93EC017B010E94CA0E08E31CE05A
:1018F000CE01B8010E94220FCE0169E57CE00E9472
:10190000920ECE0161E57CE00E94960ECE01B801F8
:101910000E94C20EE0926C23F0926D23C0936E235E
:10192000D0936F23DF91CF911F910F91FF90EF9094
:101930000895FC01428363837483118210820895A9
:101940000F931F93CF93DF93EC01162F0E941A0D74
:10195000082F298130E0C90101966A8170E00E9458
:10196000A917488150E08417950729F4802F0E9419
:101970001C0D80E013C0EB81FC81E20FF31F10838C
:10198000298130E02F5F3F4F6A81C90170E00E94DA
:10199000A9178983802F0E941C0D81E0DF91CF91D0
:1019A0001F910F9108951F93CF93DF93EC010E9435
:1019B0001A0D29819881291710F0122F02C01A815F
:1019C000120F191B0E941C0D812FDF91CF911F91C7
:1019D0000895FC01808190E0860F911D628170E086
:1019E0000E94A9170380F481E02DE80FF91F808180
:1019F00008950F931F93DF93CF930F92CDB7DEB768
:101A00008C0169830E941A0D482FF801208130E073
:101A10006981260F311D6281C90170E00E94A917FA
:101A20008083842F0E941C0D0F90CF91DF911F9116
:101A30000F91089580E008950895881F8827881FD2
:101A4000089591E0883F08F490E0892F0895282FA9
:101A500030E0207F3070203B3105F1F0213B310533
:101A600054F420393105C1F0203A3105A9F020386D
:101A70003105E9F411C0203D3105D9F0213D310592
:101A800024F4203C310599F414C0203E310521F0A6
:101A9000203F310561F402C083E00895E82FE15F43
:101AA000EF3048F4F0E0E05EFF4D8081089580E083
:101AB000089582E0089580E008950F93362F542F03
:101AC000022F3F70306B5F770F77DC01ED91FC9157
:101AD00063E070E0432F252F09950F9108950F9330
:101AE000362F542F022F3F7030695F770F77DC015C
:101AF000ED91FC9163E070E0432F252F09950F9144
:101B000008950F93362F542F022F3F7030685F7760
:101B10000F77DC01ED91FC9163E070E0432F252FFE
:101B200009950F9108950F93362F542F022F3F7070
:101B3000306A5F770F77DC01ED91FC9163E070E034
:101B4000432F252F09950F9108950F931F938A0115
:101B500020E2403052073CF4A0EE40305A0734F007
:101B60000050104E05C00FEF1FE302C000E010E070
:101B7000462F4F70406E202F2F77000F012F001F30
:101B8000110B11950F77DC01ED91FC9163E070E092
:101B900009951F910F9108950F93362F242F3F70B1
:101BA000306C2F77DC01ED91FC9162E070E0432F07
:101BB00000E009950F9108950F93362F242F3F7061
:101BC000306D2F77DC01ED91FC9162E070E0432FE6
:101BD00000E009950F9108950F93DC01ED91FC91C0
:101BE00061E070E048EF20E000E009950F91089572
:101BF0000F93DC01ED91FC9161E070E049EF20E092
:101C000000E009950F9108950F93DC01ED91FC918F
:101C100061E070E04AEF20E000E009950F9108953F
:101C20000F93DC01ED91FC9161E070E04BEF20E05F
:101C300000E009950F9108950F93DC01ED91FC915F
:101C400061E070E04CEF20E000E009950F9108950D
:101C50000F93DC01ED91FC9161E070E04EEF20E02C
:101C600000E009950F9108950F93DC01ED91FC912F
:101C700061E070E04FEF20E000E009950F910895DA
:101C80000F93262F2F77DC01ED91FC9162E070E03D
:101C900041EF00E009950F9108950F931F93262FB0
:101CA0002F778B01000F012F001F110B11950F775C
:101CB000DC01ED91FC9163E070E042EF09951F912A
:101CC0000F9108950F93262F2F77DC01ED91FC9152
:101CD00062E070E043EF00E009950F9108950F93E3
:101CE000DC01ED91FC9161E070E046EF20E000E066
:101CF00009950F9108950F93462FDC01ED91FC910A
:101D000061E070E020E000E009950F9108950F93E5
:101D1000DC01ED91FC9109950F910895FC0162831E
:101D200073830895FC01648375830895FC016683C1
:101D300077830895FC01608771870895FC016287AD
:101D400073870895FC01648775870895FC01668791
:101D500077870895FC01608B718B0895FC01628B7D
:101D6000738B0895FC01648B758B0895FC01668B61
:101D7000778B0895FC01608F718F0895FC01628F4D
:101D8000738F0895FC01648F758F0895FC01668F31
:101D9000778F0895CF93DF93EC011DA21EA21FA29F
:101DA000BC01685D7F4F88519F4F40EC0E94990CA9
:101DB0001A821B821C821D821E821F82188619862F
:101DC0001A861B861C861D861E861F86188A198AFF
:101DD0001A8A1B8A1C8A1D8A1E8A1F8A188E198ECF
:101DE0001A8E1B8E1C8E1D8E1E8E1F8E18A219A27F
:101DF000DF91CF910895CF92DF92FF920F931F93BF
:101E0000DF93CF930F92CDB7DEB7F62EE42FF52FE9
:101E10006F018C0108511F4F08C0F60161916F01DD
:101E2000C80149830E94A00C49818C2D841B8F1509
:101E3000A0F30F90CF91DF911F910F91FF90DF9052
:101E4000CF900895FC01608371830895FC0160A325
:101E500071A30895CF92DF92EF92FF920F931F9399
:101E6000CF93DF93EC016B01142FE22EF02E8DA1A6
:101E7000843031F4EA8DFB8D309709F083C095C032
:101E80006230710509F442C06330710529F0613098
:101E9000710509F073C060C0842F90E0807F90705E
:101EA000803A9105E1F0813A91053CF48038910542
:101EB00099F080399105F9F40CC0803E910591F0BC
:101EC000803F910591F0803B9105A9F4EA81FB8167
:101ED00014C0EC81FD8111C0EE81FF810EC0E88548
:101EE000F9850BC0EA85FB8508C0423F09F05DC05B
:101EF000EC85FD8502C0E0E0F0E0309709F455C0C4
:101F0000CE01612F4E2D2F2D099542C0842F90E0D8
:101F1000807F9070803D910549F0803F910549F0A8
:101F2000803C910581F4EE85FF850FC0E889F98931
:101F30000CC0433F19F4EA89FB8907C0413FA9F56A
:101F4000EC89FD8902C0E0E0F0E0309771F1CE014C
:101F5000612F4E2D09951CC0842F0E94210D8823CE
:101F600019F0EE89FF8904C0163FF9F4E88DF98D68
:101F70003097D9F0CE01612F09950AC06430710500
:101F800090F413C0CE01B601412F2E2D0F2D0995CF
:101F9000EE8DFF8D309771F0CE01B601412F2E2DC1
:101FA0000F2D099507C0CC24DD24EC8DFD8D3097D5
:101FB00049F7EECFDF91CF911F910F91FF90EF90F6
:101FC000DF90CF900895EF92FF920F931F93CF93DE
:101FD000DF93EC01162F862F0E94210D882369F0D4
:101FE000EDA081E08DA3CE0161E070E0412F20E003
:101FF00000E00E942A0FEDA27EC0812F0E941D0DDD
:102000004DA1882309F442C0443029F01AA381E08D
:1020100090E08EA39FA3812F0E94270D813039F07D
:10202000813078F0823059F0833061F508C08DA39B
:10203000CE0161E070E0412F20E000E01FC08DA3E1
:102040005AC0103F19F0173FE9F404C084E08DA393
:102050001AA33FC02EA13FA1C90163E070E00E9416
:1020600095178C0F9D1FFC0112A3B9016F5F7F4F65
:102070006EA37FA3CE014AA12BA10CA10E942A0F1F
:102080001DA239C01DA21EA21FA235C0442399F172
:102090002EA13FA1C90163E070E00E9495177C0169
:1020A000FE01E80FF91F12A3B9016F5F7F4F6EA306
:1020B0007FA38130910591F082E0E816F104D9F414
:1020C000CE014AA12BA10CA10E942A0F8DA1843020
:1020D00091F081E090E08EA39FA30DC0423059F4AF
:1020E000CE014AA12BA100E00E942A0F8DA18430CD
:1020F00011F0EEA2FFA2DF91CF911F910F91FF90FF
:10210000EF900895CF92DF92EF92FF920F931F937B
:10211000CF93DF93EC01E8A1F9A1309709F009957D
:102120008E0108511F4FC8010E94D30CEE24FF24DA
:10213000C82EDD240FC0C80160E00E94E90C682FA2
:10214000CE010E94E30FC80161E00E94F90C0894DF
:10215000E11CF11CEC14FD0470F3DF91CF911F9191
:102160000F91FF90EF90DF90CF900895EF92FF9244
:102170000F931F937B018C0120E030E040E05FE48F
:102180000E94621487FD11C0C801B70120E030E051
:1021900040E05FE40E9459120E94C2149B01AC010E
:1021A000205030404040504806C0C801B7010E944E
:1021B000C2149B01AC01B901CA011F910F91FF909C
:1021C000EF900895A0E0B0E0E8EEF0E10C94E217A3
:1021D000FC01EA018081823008F438C1DB019C9166
:1021E000923008F430C1843059F4943009F02EC193
:1021F000918111968C911197981709F021C126C1F0
:10220000943009F420C19230B1F4823009F01EC13B
:10221000CA01AF0128E0DA010D90AD01DC010D9299
:10222000CD012150C1F7DB0111968C91119791815D
:10223000892389830AC1823009F405C1C280D38011
:10224000DB0112966D907C90139724813581468135
:1022500057811496ED90FD900D911C911797C60132
:10226000861997095C0197FF04C0AA24BB24A81A09
:10227000B90AB0E2AB16B1040CF061C01816190629
:102280006CF5370148010A2C04C096948794779422
:1022900067940A94D2F781E090E0A0E0B0E00A2CC5
:1022A00004C0880F991FAA1FBB1F0A94D2F7019779
:1022B000A109B1098E219F21A023B123EE24FF247F
:1022C0008701E3940097A105B10519F4EE24FF24DA
:1022D0008701E628F728082919293CC00097D1F181
:1022E000CA0CDB1C39014A010A2C04C0969487945D
:1022F000779467940A94D2F781E090E0A0E0B0E090
:102300000A2C04C0880F991FAA1FBB1F0A94D2F77A
:102310000197A109B10982239323A423B52321E0C6
:1023200030E040E050E00097A105B10519F420E04D
:1023300030E0A90126293729482959290BC06C14F6
:102340007D0424F4EE24FF24870104C0630120E00F
:1023500030E0A9018181FB019181891709F445C011
:10236000882349F0D801C701821B930BA40BB50B3E
:102370009C01AD0104C02E193F09400B510B57FDC4
:1023800004C01982CA82DB820BC081E08983CA82C1
:10239000DB8250954095309521953F4F4F4F5F4FD1
:1023A0002C833D834E835F830DC0880F991FAA1F26
:1023B000BB1F8C839D83AE83BF838A819B810197E2
:1023C0008A839B838C819D81AE81BF819C01AD01FD
:1023D00021503040404050402F3FEFEF3E07EFEF9D
:1023E0004E07EFE35E0708F30BC08983CA82DB82E6
:1023F0002E0D3F1D401F511F2C833D834E835F8355
:1024000083E088832C813D814E815F8157FF1DC011
:10241000DA01C90181709070A070B070569547952F
:1024200037952795822B932BA42BB52B8C839D83DB
:10243000AE83BF838A819B8101968A839B8305C07B
:10244000EFE2F0E203C0FB0101C0FE01CF01CDB716
:10245000DEB7EEE00C94FB17A0E2B0E0E2E3F2E1BD
:102460000C94EA1769837A838B839C832D833E8344
:102470004F83588789E0E82EF12CEC0EFD1ECE012B
:102480000196B7010E94B4168E010F5E1F4FCE0158
:102490000596B8010E94B416C701B801AE01475EA7
:1024A0005F4F0E94E2100E94E615A096E6E00C94B1
:1024B0000318A0E2B0E0EFE5F2E10C94EA176983BB
:1024C0007A838B839C832D833E834F8358878E0131
:1024D000075F1F4FCE010196B8010E94B41691E12B
:1024E000E92EF12CEC0EFD1ECE010596B7010E94DF
:1024F000B4168A8991E089278A8BC801B701AE0199
:10250000475E5F4F0E94E2100E94E615A096E6E04B
:102510000C940318A0E2B0E0E0E9F2E10C94DE17BD
:1025200069837A838B839C832D833E834F83588773
:10253000CE010196BE01675F7F4F0E94B416CE01A7
:102540000596BE016F5E7F4F0E94B416998592304A
:1025500078F089898230C0F0943019F4823041F4E7
:10256000CBC0843019F4923079F4C6C0923051F463
:1025700081E02A859A89291709F480E08A87CE01AB
:102580000996BCC0823051F481E02A859A892917C6
:1025900009F480E08A8BCE014196B0C06D847E84C0
:1025A0008F849888ED88FE880F89188DE0E2F0E02E
:1025B00080E090E0DC01AA24BB24650120E030E04B
:1025C000A901B3016170707061157105D1F02E0D14
:1025D0003F1D401F511F15012601280E391E4A1E9E
:1025E0005B1E81E090E0A0E0B0E02E153F054007C3
:1025F000510718F080E090E0DC01820D931DA41DCE
:10260000B51DAA0CBB1CCC1CDD1C17FF09C061E06A
:10261000262E312C412C512CA228B328C428D52891
:10262000319749F0EE0CFF1C001F111F9694879400
:1026300077946794C6CF6B897C89EB85FC856E0F98
:102640007F1F6E5F7F4F6B8F7C8F61E0EA857A8999
:10265000E71709F460E06A8F6B8D7C8D10C0FC0178
:10266000E170F070309729F056954795379527958A
:102670005068B695A795979587956F5F7F4FB7FD83
:10268000EECF0CC0880F991FAA1FBB1F57FD81609A
:10269000220F331F441F551F615070408030E0E00F
:1026A0009E07E0E0AE07E0E4BE0760F36B8F7C8F2F
:1026B0006FE7E62EF12C012D112DE822F9220A23D5
:1026C0001B2360E4E616F1040105110561F487FDA2
:1026D0000AC0211531054105510529F0805C9F4F45
:1026E000AF4FBF4F80788D8F9E8FAF8FB8A383E0A1
:1026F000898FCE01499602C08FE290E20E94E615D2
:10270000A096E2E10C94F717A8E1B0E0EAE8F3E163
:102710000C94E61769837A838B839C832D833E8395
:102720004F8358878E01075F1F4FCE010196B80176
:102730000E94B41681E1E82EF12CEC0EFD1ECE01B4
:102740000596B7010E94B4169985923008F483C0AB
:102750008989823008F47BC02A853A8923272A8711
:10276000943011F0923021F4981709F06CC071C0C8
:10277000843039F41D861E861F86188A1B861C86A7
:102780006AC0823019F484E0898765C08B859C8596
:102790002B893C89821B930B8B879C872D853E85DB
:1027A0004F855889ED88FE880F89188D2E153F05B5
:1027B0004007510738F4220F331F441F551F01975C
:1027C0008B879C876FE170E0A12CB12CC12CA0E419
:1027D000DA2E80E090E0DC012E153F05400751071E
:1027E00040F08A299B29AC29BD292E193F09400BAD
:1027F000510BD694C794B794A794220F331F441F4C
:10280000551F6150704041F76FE7E62EF12C012D06
:10281000112DE822F9220A231B2360E4E616F104B5
:102820000105110561F487FD0AC021153105410537
:10283000510529F0805C9F4FAF4FBF4F80788D8747
:102840009E87AF87B88B8E01075F1F4F04C087013B
:1028500002C00FE210E2C8010E94E6156896EAE0A5
:102860000C94FF17A8E1B0E0E8E3F4E10C94EA1758
:1028700069837A838B839C832D833E834F83588720
:102880008E01075F1F4FCE010196B8010E94B4165A
:1028900081E1E82EF12CEC0EFD1ECE010596B7016C
:1028A0000E94B4168985823040F08989823028F0F0
:1028B000C801B7010E941D1701C08FEF6896E6E0BE
:1028C0000C940318A8E1B0E0E8E6F4E10C94EA17F0
:1028D00069837A838B839C832D833E834F835887C0
:1028E0008E01075F1F4FCE010196B8010E94B416FA
:1028F00081E1E82EF12CEC0EFD1ECE010596B7010C
:102900000E94B4168985823040F08989823028F08F
:10291000C801B7010E941D1701C08FEF6896E6E05D
:102920000C940318A8E1B0E0E8E9F4E10C94EA178C
:1029300069837A838B839C832D833E834F8358875F
:102940008E01075F1F4FCE010196B8010E94B41699
:1029500081E1E82EF12CEC0EFD1ECE010596B701AB
:102960000E94B4168985823040F08989823028F02F
:10297000C801B7010E941D1701C081E06896E6E01A
:102980000C940318ACE0B0E0E8ECF4E10C94EE1722
:1029900069837A838B839C83CE010196BE016B5F32
:1029A0007F4F0E94B4168D81823081F1823070F1A8
:1029B000843021F48E81882369F10AC02F81388503
:1029C00037FD24C06E812F3131053CF0662311F1B3
:1029D00020E030E040E050E821C08EE190E0821B32
:1029E000930B29853A854B855C8504C056954795A0
:1029F000379527958A95D2F7662381F050954095B3
:102A0000309521953F4F4F4F5F4F08C020E030E099
:102A1000A90104C02FEF3FEF4FEF5FE7B901CA01F3
:102A20002C96E2E00C940718A8E0B0E0EAE1F5E1AA
:102A30000C94E8177B018C011A82611571058105E0
:102A4000910519F482E089835FC083E089838EE178
:102A5000C82ED12CCB82DC82ED82FE820F831887B8
:102A6000C801B7010E948C15FC013197F7FF3AC0ED
:102A7000AA27BB27AE1BBF0B21E030E040E050E0AF
:102A80000A2E04C0220F331F441F551F0A94D2F789
:102A900021503040404050402E213F2140235123BF
:102AA00061E070E080E090E02115310541055105BD
:102AB00019F460E070E0CB0104C016950795F79417
:102AC000E794AA95D2F7E62AF72A082B192BED826C
:102AD000FE820F8318878EE190E08E1B9F0B8B8305
:102AE0009C8312C0309781F00E2E04C0EE0CFF1CA8
:102AF000001F111F0A94D2F7ED82FE820F83188700
:102B0000CE1ADF0ACB82DC82CE0101960E94E61546
:102B10002896E8E00C940118AF92BF92CF92DF9212
:102B2000EF92FF920F931F937B018C0180E0E816D8
:102B300080E0F80681E0080780E0180758F4EFEF1E
:102B4000EE16F1040105110509F090F480E090E023
:102B5000DC0117C0F0E0EF16F0E0FF06F0E00F0731
:102B6000F1E01F0750F480E190E0A0E0B0E009C080
:102B700088E090E0A0E0B0E004C088E190E0A0E050
:102B8000B0E020E230E040E050E0281B390B4A0B77
:102B90005B0B5701680104C0D694C794B794A794FF
:102BA0008A95D2F7D601C501895C9F4DFC018081D1
:102BB000281B310941095109C9011F910F91FF904B
:102BC000EF90DF90CF90BF90AF900895EF92FF927B
:102BD0000F931F93CF93DF93FC01248135814681AE
:102BE000578161818081823020F44061EFEFF0E015
:102BF000A3C0843009F49BC0823009F492C021152F
:102C000031054105510509F48FC00280F381E02DA3
:102C10008FEFE238F8070CF05AC0C2E8DFEFCE1BA6
:102C2000DF0BCA31D1056CF579018A010C2E04C085
:102C300016950795F794E7940A94D2F781E090E00F
:102C4000A0E0B0E00C2E04C0880F991FAA1FBB1F84
:102C50000A94D2F70197A109B10982239323A423EF
:102C6000B52321E030E040E050E00097A105B10538
:102C700019F420E030E0A9012E293F29402B512BE7
:102C800003C020E030E0A901DA01C9018F7790701C
:102C9000A070B07080349105A105B10539F427FF0B
:102CA00009C0205C3F4F4F4F5F4F04C0215C3F4F36
:102CB0004F4F5F4FE1E0F0E0203080E0380780E0E8
:102CC000480780E4580728F5E0E0F0E022C0E0384B
:102CD000F1056CF5E158FF4FDA01C9018F7790706B
:102CE000A070B07080349105A105B10539F427FFBB
:102CF00009C0205C3F4F4F4F5F4F04C0215C3F4FE6
:102D00004F4F5F4F57FF05C056954795379527950D
:102D1000319687E056954795379527958A95D1F74F
:102D20000BC0E0E0F0E005C0E0E0F0E005C0EFEF50
:102D3000F0E020E030E0A9018E2F87958827879565
:102D4000942F9F77679566276795E695E22EA92FC2
:102D5000A82BFE2FF62B622F732F8A2F9F2FCDB714
:102D6000DEB7E6E00C940318DC01FB012C91119610
:102D70003C91119712968C911297482F4F7750E003
:102D8000982F991F9927991F13966C911397862F47
:102D9000880F892B90E0661F6627661F6183009766
:102DA00039F5211531054105510511F482E029C09D
:102DB00082E89FEF8283938367E0220F331F441FD3
:102DC000551F6A95D1F783E0808309C0220F331F16
:102DD000441F551F82819381019782839383203002
:102DE00080E0380780E0480780E4580778F320C087
:102DF0008F3F910579F4211531054105510519F4ED
:102E000084E08083089544FF03C081E0808310C084
:102E100010820EC08F5790408283938383E080831B
:102E200087E0220F331F441F551F8A95D1F7506446
:102E300024833583468357830895FC01DB01908109
:102E4000923008F449C08C91823008F445C0943027
:102E500051F461818430B1F511962C91119730E0D5
:102E6000261B310941C0843021F0923041F4823078
:102E7000B1F111968C9111978823A1F12DC0618138
:102E8000823001F111968C9111976817D9F4228143
:102E9000338112968D919C9113978217930794F02A
:102EA00028173907BCF02481358146815781149653
:102EB0008D919D910D90BC91A02D82179307A40731
:102EC000B50718F4662341F00DC0281739074A07E3
:102ED0005B0728F4662331F021E030E005C020E0F4
:102EE00030E002C02FEF3FEFC9010895629FD0018B
:102EF000739FF001829FE00DF11D649FE00DF11DB5
:102F0000929FF00D839FF00D749FF00D659FF00D63
:102F10009927729FB00DE11DF91F639FB00DE11D50
:102F2000F91FBD01CF0111240895AA1BBB1B51E15C
:102F300007C0AA1FBB1FA617B70710F0A61BB70B29
:102F4000881F991F5A95A9F780959095BC01CD01CE
:102F5000089597FB092E07260AD077FD04D0E5DFF8
:102F600006D000201AF4709561957F4F0895F6F70A
:102F7000909581959F4F0895A1E21A2EAA1BBB1B25
:102F8000FD010DC0AA1FBB1FEE1FFF1FA217B30735
:102F9000E407F50720F0A21BB30BE40BF50B661F4B
:102FA000771F881F991F1A9469F76095709580950F
:102FB00090959B01AC01BD01CF0108952F923F92E6
:102FC0004F925F926F927F928F929F92AF92BF9239
:102FD000CF92DF92EF92FF920F931F93CF93DF93E5
:102FE000CDB7DEB7CA1BDB0BCDBFDEBF09942A8885
:102FF000398848885F846E847D848C849B84AA840D
:10300000B984C884DF80EE80FD800C811B81AA8199
:10301000B981CE0FD11DCDBFDEBFED010895A0E077
:10302000B0E0E5E1F8E10C94E617EC016881798104
:103030008A819B81611571058105910521F464E206
:1030400079ED8BE597E02DE133EF41E050E00E9410
:10305000631879018A0127EA31E440E050E00E94D8
:1030600076175B016C01C801B7012CEE34EF4FEF0E
:103070005FEF0E9476176A0D7B1D8C1D9D1D97FFCB
:1030800004C06150704080409048688379838A838F
:103090009B837F77CB01CDB7DEB7EAE00C94FF17B7
:1030A0000E940F18089587E391E20E940F18089577
:1030B000A0E0B0E08093372190933821A09339218C
:1030C000B0933A21089597FB092E05260ED057FD9F
:1030D00004D052DF0AD0001C38F45095409530954A
:1030E00021953F4F4F4F5F4F0895F6F7909580958C
:1030F000709561957F4F8F4F9F4F0895F894FFCF44
:1031000000000000010000000200000004000000B8
:103110000800000040000000000100000004000062
:103120000203020000010001010101010001010090
:10313000000000000000000001020203030303047A
:103140000404040404040405050505050505050536
:103150000505050505050506060606060606060616
:1031600006060606060606060606060606060606FF
:1031700006060606060606070707070707070707E6
:1031800007070707070707070707070707070707CF
:1031900007070707070707070707070707070707BF
:1031A00007070707070707070707070707070707AF
:1031B0000707070707070708080808080808080896
:1031C000080808080808080808080808080808087F
:1031D000080808080808080808080808080808086F
:1031E000080808080808080808080808080808085F
:1031F000080808080808080808080808080808084F
:10320000080808080808080808080808080808083E
:10321000080808080808080808080808080808082E
:10322000080808080808080808080808080808081E
:0C32300008080808080808010000000059
:00000001FF
