:100000000C94BC000C94D9000C94D9000C94D90029
:100010000C94D9000C94D9000C94D9000C94D900FC
:100020000C94D9000C94D9000C94D9000C94D900EC
:100030000C94D9000C94D9000C94D9000C94D900DC
:100040000C94DB000C9477050C949E050C94ED0049
:100050000C94D9000C94D9000C94D9000C94D900BC
:100060000C94D9000C94D9000C94D9000C94D900AC
:100070000C94D9000C94D9000C94D9000C94D9009C
:100080000C94D9000C94D9000C94D9000C94D9008C
:100090000C94D9000C94D9000C94D9000C94D9007C
:1000A0000C94D9000C94D9000C94D9000C94D9006C
:1000B0000C94D9000C94D9000C94D9000C94D9005C
:1000C0000C94D9000C94D9000C94D9000C94D9004C
:1000D0000C94D9000C94D9000C94D9000C94D9003C
:1000E0000C94D9000C94D9000C94D9000C94D9002C
:1000F0000C94D9000C94D9000C94D9000C94D9001C
:100100000C94D9000C94D9000C94D9000C94D9000B
:100110000C94D9000C94D9000C94D9000C94D900FB
:100120000C94D9000C94D9000C94D9000C94D900EB
:100130000C94D9000C94D9000C94D9000C94D900DB
:100140000C94D9000C94D9000C94D9000C94D900CB
:100150000C94D9000C94D9000C94D9000C94D900BB
:100160000C94D9000C94D9000C94D9000C94460539
:100170000C94D9000C94D90011241FBECFEFD7E204
:10018000DEBFCDBF11E2A0E0B0E2E2E4F5E302C0E1
:1001900005900D92AC34B107D9F713E2ACE4B1E2AB
:1001A00001C01D92A338B107E1F70E941F060C940D
:1001B0009F1A0C9400001F920F920FB60F921124F9
:1001C000EF93FF93E0E0F8E010A211A2FF91EF910E
:1001D0000F900FBE0F901F9018951F920F920FB6A1
:1001E0000F9211240F900FBE0F901F9018950F9330
:1001F0001F93DF93CF93CDB7DEB7AE97CDBFDEBFF2
:10020000DE011F96E0E0F0E280E201900D92815065
:10021000E1F7809100088F70898381E08A831B82D7
:100220001C821D821E8220914C2130914D2140E084
:1002300050E060E078EA84ED95E50E94DD192F83B7
:10024000388749875A876F81788589859A85EA81B9
:10025000F0E0EE0FFF1FEE0FFF1F8E010F5F1F4F2D
:1002600011C08A818F5F8A838A81883008F043C0F9
:100270006F81788589859A85EA81F0E0EE0FFF1F0E
:10028000EE0FFF1FE00FF11F26853785408951894A
:100290000E94DD192B873C874D875E878B859C8567
:1002A000AD85BE85803020E0920721E0A20720E0E6
:1002B000B207B8F6E0E0F8E01092000810A211A230
:1002C0008B859C85AD85BE8580A791A78B859C85F8
:1002D000AD85BE8568E170E00E94B61966A777A774
:1002E0008091010880618183809101088068818309
:1002F0008A8180930008AE96CDBFDEBFCF91DF919B
:100300001F910F91089580934C2190934D210E944D
:10031000F700E0E0F8E087818F738783878180684A
:10032000878387818C7F87838781826087838181B0
:1003300080688183818180618183089580914C21CF
:1003400090914D21089520914C2130914D2141E013
:1003500020393407A1F0820F931F80934C21909392
:100360004D2121E08139920730F080E991E08093BE
:100370004C2190934D210E94F70081E0089580E088
:1003800008959C0180914C2190914D2184319105DB
:1003900099F0821B930B80934C2190934D218431D3
:1003A000910530F484E190E080934C2190934D21AD
:1003B0000E94F70081E0089580E0089510924E2198
:1003C00010924F21109250211092512110925221DF
:1003D00010925321109254211092552110925621BF
:1003E00010925721109258211092592110925A219F
:1003F00010925B2110925C2110925D2110925E217F
:10040000089580914E2108956F927F928F929F92CE
:10041000AF92BF92CF92DF92EF92FF920F931F9312
:10042000DF93CF9300D000D0CDB7DEB74B013A01B8
:10043000E82FF0E0EE0FFF1FE25BFE4D6781708555
:1004400080E090E00E94351720E030E040E05AE381
:100450000E944B149B01AC0129833A834B835C833C
:100460005401CC24DD2488E06816710448F4E98046
:10047000FA800B811C8168E070E06819790909C075
:10048000E980FA800B811C81B301681979096F5FDB
:100490007F4F80E090E00E9435179B01AC01C801BE
:1004A000B7010E944B147B018C01C601B5010E946B
:1004B00035179B01AC01C801B7010E94ED139B01E8
:1004C000AC0129833A834B835C83A980BA80CB80BB
:1004D000DC80B30180E090E00E9435177B018C0145
:1004E000C601B501A80197010E94F315181624F45E
:1004F000E982FA820B831C83A980BA80CB80DC80DE
:10050000B40180E090E00E9435177B018C01C601A8
:10051000B501A80197010E94531687FF04C0E98224
:10052000FA820B831C8369817A818B819C810E9472
:100530007712CB012496CDBFDEBFCF91DF911F9103
:100540000F91FF90EF90DF90CF90BF90AF909F9072
:100550008F907F906F9008958F929F92AF92BF92ED
:10056000CF92DF92EF92FF920F931F93CF93DF937F
:10057000FC0122E030E0CAE0D0E073E0C72ED12CCD
:1005800068E0A62EB12C00E616E050E4E52E56E019
:10059000F52E40EF942E98E3892ECF01BE010E94E4
:1005A000B619482F309719F4223009F04AE0C901F2
:1005B000B6010E94CA19B50102C0660F771F8A955D
:1005C000E2F7D80116966C93D70116969C9216976F
:1005D0004295407F15964C93D80115968C921597AD
:1005E0002F5F3F4F2530310531F0CF01BE010E9412
:1005F000B619FB01D2CFDF91CF911F910F91FF90E0
:10060000EF90DF90CF90BF90AF909F908F90089524
:10061000882321F088E0E0E4F6E08683662321F079
:1006200084E0E0E6F6E08583442321F081E0E0E623
:10063000F6E08583222321F082E0E0E6F6E0858380
:100640000895882321F088E0E0E4F6E085836623BE
:1006500021F084E0E0E6F6E08683442321F081E0A7
:10066000E0E6F6E08683222321F082E0E0E6F6E091
:100670008683089580915421089580915121089591
:1006800080915221089580914F21089580915321A6
:100690000895809150210895CF93DF930E94DE0149
:1006A000E0E4F0E061E084E0C0E5D0E05BE848E051
:1006B000A0E5B0E032EC28E198ED15C061838383BA
:1006C0005A83409350007091510073FFFCCF1596F0
:1006D0003C931597209350007091510074FFFCCF0C
:1006E00094BF8093400070914000743039F7F894C3
:1006F000A0E6B6E080E815968C93159790E41296E4
:100700009C93129711968C931197E0EBF9E088E196
:10071000848390E2938333E035838FE2868317826C
:100720008091A2008768E0EAF0E082837894C0E0DC
:10073000D6E089EF8A83E0E0F2E01092000280E1E7
:1007400081839283138291E09483168280910002C8
:1007500081608093000290A311A212A240E256E0B1
:100760008CE0FA01828328E080E896E0FC01228395
:10077000FA01328386E089838D83E0E4F6E088EF36
:1007800081838FE311968C93119788E315968C9350
:10079000159790EF958316968C93169787E016968B
:1007A0008C93169725838EE491E2DF91CF91089583
:1007B0004F925F927F928F929F92AF92BF92CF9211
:1007C000DF92EF92FF920F931F93DF93CF9300D0AE
:1007D0000F92CDB7DEB7809188068695869586956F
:1007E00091E009F090E0809128068695869580FD3D
:1007F00002C082E001C080E0C82EC92A809128068C
:1008000086958695869580FD02C084E001C080E0D3
:10081000C82AC09264216091632170E0E090622157
:10082000EFE5F1E280E090E04C2D50E021E030E097
:10083000882E8A01082E02C0159507950A94E2F7C2
:10084000DB01082E02C0B595A7950A94E2F70A17B6
:100850001B0721F4A081AF5FA08301C01082A0819B
:10086000A93060F0D90102C0AA0FBB1F8A94E2F739
:10087000BA2FB095EB22AC21EA2A1082019631966C
:1008800083309105A9F6E0926221C09263218091A4
:100890005321E0FE0CC0882319F01092502103C0B0
:1008A00081E08093502181E0809353210AC0882306
:1008B00021F082E08093502102C0109250211092CA
:1008C000532180915221E1FE0CC0882319F010922F
:1008D0004F2103C081E080934F2181E0809352211A
:1008E0000AC0882321F082E080934F2102C0109239
:1008F0004F211092522180915421E2FE0CC0882396
:1009000019F01092512103C081E08093512181E0C0
:10091000809354210AC0882321F082E080935121E2
:1009200002C010925121109254211982E12C42E010
:10093000F42E73C0809123028160F70183A380911C
:100940002102877C81A320912102898190E0039676
:1009500033E0880F991F3A95E1F7282B21A3809166
:100960002002806880A38091230280FFFCCF8091C9
:10097000240290E08A839B838A819B8120912502B7
:10098000522E4424842995298A839B838A819B81C2
:1009900097FF03C01A821B8204C08A819B818A83CD
:1009A0009B830981E981CA80DB80798010E0000F98
:1009B000111F025B1E4DF0E0EE0FFF1FE25BFE4DCC
:1009C0006781708580E090E00E9435174B015C01E3
:1009D000E72DF0E0EE0FFF1FE25BFE4D8781908573
:1009E000C81AD90AB601882777FD8095982F0E94EA
:1009F000831620E030E040EA51E40E9445159B0157
:100A0000AC01C501B4010E94ED130E947712F801F8
:100A10006783708789818F5F89838981853008F436
:100A200089CF8091280641E080FD40E06091280652
:100A3000842F90E02091652151E0252730E082232A
:100A40009323009759F0862F869580FD03C050931D
:100A50004E2106C082E080934E2102C010924E21AA
:100A6000409365212396CDBFDEBFCF91DF911F91CB
:100A70000F91FF90EF90DF90CF90BF90AF909F903D
:100A80008F907F905F904F90089508951F920F92DE
:100A90000FB60F9211242F933F934F935F936F9351
:100AA0007F938F939F93AF93BF93CF93DF93EF93F6
:100AB000FF93C2E9D2E2CE0161E040EB59E00E942F
:100AC000BC10CE010E944312FF91EF91DF91CF91B4
:100AD000BF91AF919F918F917F916F915F914F9156
:100AE0003F912F910F900FBE0F901F9018951F925E
:100AF0000F920FB60F9211242F933F934F935F9352
:100B00006F937F938F939F93AF93BF93EF93FF93D5
:100B100088E691E260E00E94890AFF91EF91BF911F
:100B2000AF919F918F917F916F915F914F913F9185
:100B30002F910F900FBE0F901F9018951F920F923C
:100B40000FB60F9211242F933F934F935F936F93A0
:100B50007F938F939F93AF93BF93EF93FF9388E619
:100B600091E260E00E94470CFF91EF91BF91AF913D
:100B70009F918F917F916F915F914F913F912F91B5
:100B80000F900FBE0F901F9018950F931F93DF9338
:100B9000CF9300D00F92CDB7DEB78C016A834B8321
:100BA00080E98983C80161E0AE014F5F5F4F0E9419
:100BB000BC10C80161E0AE014E5F5F4F0E94BC10E7
:100BC000C80161E0AE014D5F5F4F0E94BC10C801DB
:100BD0000E9443122396CDBFDEBFCF91DF911F91BC
:100BE0000F9108950F931F93DF93CF9300D00F922F
:100BF000CDB7DEB78C016A834B8380E88983C80157
:100C000061E0AE014F5F5F4F0E94BC10C80161E020
:100C1000AE014E5F5F4F0E94BC10C80161E0AE01A3
:100C20004D5F5F4F0E94BC10C8010E944312239683
:100C3000CDBFDEBFCF91DF911F910F910895CF936C
:100C4000DF930E944C03809366219093672188E68E
:100C500091E20E94430A82E992E268E671E20E9410
:100C6000180E88E790E00E9483010E949E010E9476
:100C7000AC020E94D8030E944603882321F088E634
:100C800091E20E94BD0D0E94D8030E943A0388237E
:100C900019F0C5E0D0E002C0C1E0D0E00E9401023E
:100CA000813021F4CE010E94A30107C00E940102FD
:100CB000823069F4CE010E94C101009741F088E6BC
:100CC00091E20E94E00C0E949E010E94AC020E94F0
:100CD0004303813029F488E691E261E00E94890AA9
:100CE0000E944903823021F488E691E20E949D0D22
:100CF0000E944903813039F6C2CFFC011082DC0129
:100D0000AF54BF4F1D921C92DC01AD54BF4F1D92DA
:100D10001C92DC01AB54BF4F1D921C92DC01A95404
:100D2000BF4F1D921C92119780E112821382118293
:100D300014821582168217821086118612861386F7
:100D400081503B96882389F70895CF93DF93FC0168
:100D5000EF54FF4F0190F081E02D06C0218126174E
:100D600030F40380F481E02D3097C1F751C026178D
:100D700009F04EC0DC012C9121502C93222319F450
:100D80000E947D0643C0A581B681238134811097DE
:100D900029F013962D933C93149705C0EC01CF5482
:100DA000DF4F28833983C381D481209719F0AD8325
:100DB000BE8305C0EC01CD54DF4FA883B983A18564
:100DC000B28527813085109729F017962D933C9393
:100DD000189705C0EC01CB54DF4F28833983C781B6
:100DE000D085209719F0A987BA8705C089549F4FED
:100DF000EC01A883B98311821282108213821482BB
:100E000015821682178210861186128681E001C033
:100E100080E0DF91CF9108950F931F93CF93DF93DD
:100E2000FC01DC01AF54BF4F0D90BC91A02D09C057
:100E300011968C911197861730F413960D90BC91F2
:100E4000A02D1097A9F711968C911197861709F08C
:100E500055C012964C931297EF01C954DF4F888109
:100E600099818A179B0709F4EDC0CF018B549F4FDE
:100E7000EC01288139812A173B0751F417962D91EF
:100E80003C91189728833983E90119861A8612C084
:100E900019962D913C911A9717968D919C911897C0
:100EA000E9018F83988717968D919C911897EC0193
:100EB00029873A878081EF01C954DF4F813079F467
:100EC000A883B983EB54FF4FA083B18317961D927B
:100ED0001C92189719961D921C921A97B6C01796D5
:100EE0001D921C921897E881F9811996ED93FC9355
:100EF0001A97A783B087A883B983A4C0EF0180E0C5
:100F000090E0282F39813323E1F40BE010E0809F3B
:100F1000E001819FD00D909FD00D1124CE0FDF1FD7
:100F200081E0898330E0209FE001219FD00D309F38
:100F3000D00D1124CE0101968E0F9F1F009739F41A
:100F400083C001962B9680319105D9F67DC05081E2
:100F50005F5F5083CE0FDF1F6A834B83513069F48C
:100F60001C821D821E821F82DF01AF54BF4F8D93F2
:100F70009C93DF01AD54BF4F23C0109771F4DF0184
:100F8000AD54BF4F4D915C9111974E835F831C828E
:100F90001D82EA018B839C8313C0AC83BD831596AD
:100FA0004D915C9116974E835F8315968D939C931C
:100FB0001697AE81BF81109739F4DF01AF54BF4F50
:100FC0008D939C93119746C013968D939C93149781
:100FD00041C0DF01A954BF4F8D939C93DF01AB54F7
:100FE000BF4F8D939C938BE090E0289FD001299F69
:100FF000B00D389FB00D1124AE0FBF1F18961D9273
:101000001C9219971A961D921C921B971BC04BE0BD
:1010100050E0249FD001259FB00D349FB00D1124C6
:10102000AE0FBF1F18961D921C921997E954FF4FDF
:10103000C081D1811A96CD93DC931B978F839887BB
:101040008083918381E001C080E0DF91CF911F9187
:101050000F91089540814130D1F6BBCF0F931F937C
:10106000DF93CF9300D000D0CDB7DEB78C01809155
:10107000280890912908A0E0B0E089839A83AB8387
:10108000BC83F8018089833081F0843030F4813072
:1010900061F1823009F06EC05EC08530C9F08530E4
:1010A00068F1863009F066C047C029813A814B81DA
:1010B0005C81DA01C901880F991FAA1FBB1F820F2B
:1010C000931FA41FB51F89839A83AB83BC8343C03E
:1010D00089819A81AB81BC81880F991FAA1FBB1F90
:1010E00089839A83AB83BC8327C089819A81AB8132
:1010F000BC81B695A7959795879538C029813A8187
:101100004B815C81DA01C901880F991FAA1FBB1F9F
:10111000820F931FA41FB51F89839A83AB83BC835F
:1011200089819A81AB81BC8133E0B695A79597956B
:1011300087953A95D1F71AC069817A818B819C8114
:1011400023E030E040E050E00E94DD1929833A833B
:101150004B835C830FC089819A81AB81BC8122E083
:10116000B695A795979587952A95D1F789839A8300
:10117000AB83BC8369817A818B819C81F801208556
:1011800030E02F5F3F4F442737FD4095542F0E949A
:10119000DD1929833A834B835C8389819A81AB81F2
:1011A000BC81F801828793872496CDBFDEBFCF91A3
:1011B000DF911F910F9108950F931F93DF93CF93AA
:1011C00000D000D0CDB7DEB78C01FC01678570E0A0
:1011D00080E090E02285338540E050E00E9497193E
:1011E00069837A838B839C8369817A818B819C81DB
:1011F0002FEF30E040E050E00E94DD1929833A8370
:101200004B835C8389819A81AB81BC81F80184879F
:1012100095872496CDBFDEBFCF91DF911F910F91AF
:1012200008952F923F924F925F926F927F928F928A
:101230009F92AF92BF92CF92DF92EF92FF920F9365
:101240001F93DF93CF93CDB7DEB78C012DB63EB69B
:10125000FC01EF58FF4F9080692C77248DB79EB723
:10126000861997098DBF9EBFEDB6FEB60894E11CA6
:10127000F11CD8011E968C911E978830F0F490E0F6
:10128000FC01E05EFF4D8080885D9F4DFC01808108
:10129000823009F441C0833030F4882379F0813002
:1012A00009F0A9C022C0833009F44DC0843009F090
:1012B000A2C05701F70180E05FC08824F801EE5D0D
:1012C000FE4FA081B18180E00DC0E82FF0E0EE0F6D
:1012D000FF1FE00FF11FA18BB28B8F5F13960D9054
:1012E000BC91A02D109789F787C0F801EC5DFE4FE7
:1012F000A081B18180E00DC0E82FF0E0EE0FFF1F6C
:10130000E00FF11FA18BB28B8F5F15960D90BC91F2
:10131000A02D109789F770C0F801EA5DFE4FA081FB
:10132000B18180E00DC0E82FF0E0EE0FFF1FE00F6D
:10133000F11FA18BB28B8F5F17960D90BC91A02DE2
:10134000109789F759C0F801E85DFE4FA081B1817F
:1013500080E00DC0E82FF0E0EE0FFF1FE00FF11F5F
:10136000A18BB28B8F5F19960D90BC91A02D109719
:1013700089F742C081938F5F8915E0F36701592C8B
:10138000442410C00E94741AD6012C91652D742D2E
:101390000E94CA19F701E80FF11D8081D6018D93D3
:1013A0006D0120838C2D8E19891560F3B8016F5E55
:1013B0007F4FC301880F991F4196800F911F98019D
:1013C0002E5D3E4F13C0F901A081B181F50151910D
:1013D0005F0140E005C013960D90BC91A02D4F5FBA
:1013E0004517C8F3FB01A193B193BF0168177907B3
:1013F00051F7892D01C080E0882041F1E82EEE0CE4
:1014000029F18150CC24C39490E04E2D50E09C01F2
:101410002F5F3F4F12C0AA0FBB1FA00FB11FF901D2
:10142000E61BF70BEE0FFF1FE00FF11F61897289BA
:1014300051966D937C935297C3946C2D70E0DB01B1
:10144000A80FB91FA417B50734F38E2D8150D8010A
:1014500017968C93179713961C9213972DBE3EBE2A
:10146000CF91DF911F910F91FF90EF90DF90CF9080
:10147000BF90AF909F908F907F906F905F904F90B4
:101480003F902F900895CF93DF93EC01E0E0F8E0D8
:10149000809101088F7D8183809101088F7B8183FA
:1014A000809107088F7C87838091070880628783FB
:1014B00080910708837F87838091070888608783EE
:1014C000CE018F589F4F0E947D06FE01719680E3EA
:1014D000119211928150E1F71C821E821D821F829F
:1014E000188619861A861B861C861D861E861F86F0
:1014F000188A1A82188281E08B83CE010E942E08FE
:10150000CE010E94DC08DF91CF910895FC01638336
:101510000895EF92FF920F931F93DF93CF93CDB770
:10152000DEB76197CDBFDEBF8C01F62EDC018C915A
:10153000882309F4A2C1E0E0F8E0809101088F7DE2
:101540008183809101088F7B818380910C08806268
:10155000848780910C0880648487F801EF58FF4FDE
:101560008081882309F489C1809120089091210805
:10157000A0E0B0E08E839F83A887B987F8018281BD
:10158000882359F10E94130ED8011496EC911497F8
:10159000F0E0EE0FFF1FE00FF11F0188F289E02D50
:1015A00016964C9116972CE0429FA00111242181A0
:1015B000420F511D02C04C5050404F3F510509F0A1
:1015C000D0F760E022810E94420F80E060E040E0BE
:1015D00021E00E942103F801128283E060E070E0C4
:1015E00047E050E00E940402898384E060E070E0FC
:1015F00047E050E00E9404028A8382E060E070E0ED
:1016000046E050E00E9404028B8380E06BE070E0D3
:101610004FEF50E00E9404028C8381E060E070E0B4
:1016200044E050E00E9404028D83D80118962C916A
:1016300018979A818B8150963C915097381729F4CE
:1016400081E0291719F480E001C081E09C81F80154
:101650002785291711F4E82E02C0EE24E3949D811A
:10166000D8011E962C911E97291721F091E0139610
:101670009C9313979981F80191879A8190879B8118
:10168000908B9C8197879D819687882311F4FF20FA
:1016900019F0C8010E942E08EE2011F4FF2019F065
:1016A000C8010E94DC082E813F8148855985D801F8
:1016B0001A968D919C911B97A0E0B0E0820F931F2A
:1016C000A41FB51F8A879B87AC87BD872E813F816A
:1016D00048855985F80184859585A0E0B0E0820FA2
:1016E000931FA41FB51F8E879F87A88BB98B2A8550
:1016F0003B854C855D858091280890912908A0E064
:10170000B0E082179307A407B50790F48A859B85FC
:10171000AC85BD85209128083091290840E050E033
:10172000821B930BA40BB50B8A879B87AC87BD8765
:101730002E853F85488959898091280890912908EC
:10174000A0E0B0E082179307A407B50790F48E8558
:101750009F85A889B989209128083091290840E0FF
:1017600050E0821B930BA40BB50B8E879F87A88B31
:10177000B98B8A859B85AC85BD85E0E0F8E082A7C2
:1017800093A78E859F85A889B98984A795A7D80135
:1017900013968C911397882319F0C8010E941109A0
:1017A000FF2059F5F80185818F5F85839085981713
:1017B00020F4158284818F5F8483D80114969C91D4
:1017C000149717968C911797891750F414961C92BA
:1017D000149716968C9116978F5F16968C93169782
:1017E000F80196818185891788F416828685843070
:1017F00069F4C8010E94110909C0D80116961C920B
:10180000169714961C92149715961C920E94130E0C
:10181000D8011496EC911497F0E0EE0FFF1FE00F43
:10182000F11F0188F289E02D16964C9116972CE055
:10183000429FA00111242181420F511D02C04C5032
:1018400050404F3F510509F0D0F760E022810E94DF
:10185000300F81E060E040E020E00E94080381E07A
:10186000F80182838183E0E0F8E0809101088062E2
:10187000818380910108806481836196CDBFDEBF42
:10188000CF91DF911F910F91FF90EF9008951F93DB
:10189000CF93DF93EC01162F8881882309F440C091
:1018A000E0E0F8E0809101088F7D8183809101085C
:1018B0008F7B818380910C08806484878A81882350
:1018C00029F10E94130EEC81F0E0EE0FFF1FEC0FE8
:1018D000FD1F0188F289E02D4E812CE0429FA0017E
:1018E00011242181420F511D02C04C5050404F3FE6
:1018F000510509F0D0F760E022810E94420F81E09B
:1019000060E040E020E00E9421031A82112311F0E0
:10191000198206C0809101088062E0E0F8E08183CE
:10192000DF91CF911F9108950F931F93CF93DF9372
:10193000EC018C010F581F4FC8010E940C0788232F
:1019400051F081E08B83F8018081813021F4CE0158
:1019500061E00E94890ADF91CF911F910F91089554
:10196000FF920F931F93CF93DF93EC01F62EEC8140
:10197000F0E0EE0FFF1FE80FF91F0188F289E02D5C
:101980008181861721F4CE0160E00E94470C8E0110
:101990000F581F4FC8016F2D0E94A506882351F0D4
:1019A00081E08B83F8018081882321F4CE0161E0FE
:1019B0000E94470CDF91CF911F910F91FF900895E6
:1019C0000F931F93DF93CF93CDB7DEB72C97CDBF87
:1019D000DEBF8C01FC018081882309F4A6C08181CF
:1019E000882309F4A2C0E0E0F8E0809101088F7D2F
:1019F0008183809101088F7B818380910C088062B4
:101A0000848780910C0880648487F801EF58FF4F29
:101A10008081882309F489C0809120089091210851
:101A2000A0E0B0E089839A83AB83BC83C8010E94A5
:101A30002E08C8010E94DC0829813A814B815C8113
:101A4000F80182859385A0E0B0E0820F931FA41F68
:101A5000B51F8D839E83AF83B88729813A814B81DF
:101A60005C8184859585A0E0B0E0820F931FA41F60
:101A7000B51F89879A87AB87BC872D813E814F81AF
:101A800058858091280890912908A0E0B0E082173D
:101A90009307A407B50790F48D819E81AF81B88527
:101AA000209128083091290840E050E0821B930BD8
:101AB000A40BB50B8D839E83AF83B88729853A85A8
:101AC0004B855C858091280890912908A0E0B0E0C2
:101AD00082179307A407B50790F489859A85AB858B
:101AE000BC85209128083091290840E050E0821BF5
:101AF000930BA40BB50B89879A87AB87BC878D8125
:101B00009E81AF81B885E0E0F8E082A793A7898540
:101B10009A85AB85BC8584A795A7809101088062D2
:101B2000818380910108806481832C96CDBFDEBFC4
:101B3000CF91DF911F910F910895CF93DF93EC0127
:101B400061E00E94470C1882CA5DDE4F0990D8817F
:101B5000C02D0AC00E94130E60E049812A810E94B4
:101B6000300F0F80D885C02D2097A1F70E94130E4B
:101B70000E944B0EDF91CF9108950F931F93CF9347
:101B8000DF938C010E94130E0E943C0EF801EA5D67
:101B9000FE4FC081D1810AC00E94130E60E04981CE
:101BA0002A810E94420F0F80D885C02D2097A1F76F
:101BB00081E0F8018083C80161E00E94890ADF9119
:101BC000CF911F910F9108950F938091B10985FFD7
:101BD000FCCF4093B009623070F08091B10985FF6D
:101BE000FCCF2093B009633031F48091B10985FFB7
:101BF000FCCF0093B0090F91089580917F239091BD
:101C00008023642F0E94B00C0895642F80917F235D
:101C100090918023222319F40E94B00C0895422F42
:101C20000E94940C089580918123909182230895BD
:101C30000F931F93CF93DF93EC018B010E948B10C6
:101C4000CE0164EE7DE00E94E310CE0165E07EE00F
:101C50000E945310CE016DEF7DE00E94571000935B
:101C60007F2310938023C0938123D0938223DF911D
:101C7000CF911F910F910895CF93DF93EC0160E016
:101C800070E00E948710CE0164EE7DE00E94831018
:101C9000DF91CF910895CF93DF93EC0164EE7DE067
:101CA0000E948710CE0160E070E00E948310DF91F7
:101CB000CF910895FC014283638374831182108263
:101CC00008950F931F93CF93DF93EC01162F0E947B
:101CD000DB0E082F298130E0C90101966A8170E08E
:101CE0000E94CA19488150E08417950729F4802F73
:101CF0000E94DD0E80E013C0EB81FC81E20FF31F38
:101D00001083298130E02F5F3F4F6A81C90170E065
:101D10000E94CA198983802F0E94DD0E81E0DF9125
:101D2000CF911F910F9108951F93CF93DF93EC01F3
:101D30000E94DB0E29819881291710F0122F02C012
:101D40001A81120F191B0E94DD0E812FDF91CF9196
:101D50001F910895FC01808190E0860F911D6281A2
:101D600070E00E94CA190380F481E02DE80FF91F8A
:101D7000808108950F931F93DF93CF930F92CDB778
:101D8000DEB78C0169830E94DB0E482FF8012081A9
:101D900030E06981260F311D6281C90170E00E9427
:101DA000CA198083842F0E94DD0E0F90CF91DF919E
:101DB0001F910F91089580E008950895881F882746
:101DC000881F089591E0883F08F490E0892F0895D6
:101DD000282F30E0207F3070203B3105F1F0213B8F
:101DE000310554F420393105C1F0203A3105A9F00C
:101DF00020383105E9F411C0203D3105D9F0213DED
:101E0000310524F4203C310599F414C0203E3105FD
:101E100021F0203F310561F402C083E00895E82FEE
:101E2000E15FEF3048F4F0E0E05DFF4D8081089520
:101E300080E0089582E0089580E008950F93362FA2
:101E4000542F022F3F70306B5F770F77DC01ED91DD
:101E5000FC9163E070E0432F252F09950F910895C1
:101E60000F93362F542F022F3F7030695F770F7713
:101E7000DC01ED91FC9163E070E0432F252F099583
:101E80000F9108950F93362F542F022F3F70306813
:101E90005F770F77DC01ED91FC9163E070E0432FF9
:101EA000252F09950F9108950F93362F542F022F48
:101EB0003F70306A5F770F77DC01ED91FC9163E052
:101EC00070E0432F252F09950F9108950F931F93CD
:101ED0008A0120E2403052073CF4A0EE40305A071D
:101EE00034F00050104E05C00FEF1FE302C000E0B9
:101EF00010E0462F4F70406E202F2F77000F012FDC
:101F0000001F110B11950F77DC01ED91FC9163E03F
:101F100070E009951F910F9108950F93362F242F8C
:101F20003F70306C2F77DC01ED91FC9162E070E046
:101F3000432F00E009950F9108950F93362F242F1A
:101F40003F70306D2F77DC01ED91FC9162E070E025
:101F5000432F00E009950F9108950F93DC01ED9157
:101F6000FC9161E070E048EF20E000E009950F91FE
:101F700008950F93DC01ED91FC9161E070E049EF71
:101F800020E000E009950F9108950F93DC01ED9199
:101F9000FC9161E070E04AEF20E000E009950F91CC
:101FA00008950F93DC01ED91FC9161E070E04BEF3F
:101FB00020E000E009950F9108950F93DC01ED9169
:101FC000FC9161E070E04CEF20E000E009950F919A
:101FD00008950F93DC01ED91FC9161E070E04EEF0C
:101FE00020E000E009950F9108950F93DC01ED9139
:101FF000FC9161E070E04FEF20E000E009950F9167
:1020000008950F93262F2F77DC01ED91FC9162E06C
:1020100070E041EF00E009950F9108950F931F9331
:10202000262F2F778B01000F012F001F110B119509
:102030000F77DC01ED91FC9163E070E042EF0995D0
:102040001F910F9108950F93262F2F77DC01ED91AB
:10205000FC9162E070E043EF00E009950F91089574
:102060000F93DC01ED91FC9161E070E046EF20E020
:1020700000E009950F9108950F93462FDC01ED9133
:10208000FC9161E070E020E000E009950F91089577
:102090000F93DC01ED91FC9109950F910895FC01DE
:1020A000628373830895FC01648375830895FC0142
:1020B000668377830895FC01608771870895FC012A
:1020C000628773870895FC01648775870895FC0112
:1020D000668777870895FC01608B718B0895FC01FA
:1020E000628B738B0895FC01648B758B0895FC01E2
:1020F000668B778B0895FC01608F718F0895FC01CA
:10210000628F738F0895FC01648F758F0895FC01B1
:10211000668F778F0895CF93DF93EC011DA21EA2E7
:102120001FA2BC01685D7F4F88519F4F40EC0E9409
:102130005A0E1A821B821C821D821E821F821886E2
:1021400019861A861B861C861D861E861F86188A7F
:10215000198A1A8A1B8A1C8A1D8A1E8A1F8A188E4F
:10216000198E1A8E1B8E1C8E1D8E1E8E1F8E18A20F
:1021700019A2DF91CF910895CF92DF92FF920F9332
:102180001F93DF93CF930F92CDB7DEB7F62EE42FD8
:10219000F52F6F018C0108511F4F08C0F6016191A6
:1021A0006F01C80149830E94610E49818C2D841BF7
:1021B0008F15A0F30F90CF91DF911F910F91FF909A
:1021C000DF90CF900895FC01608371830895FC0136
:1021D00060A371A30895CF92DF92EF92FF920F93C5
:1021E0001F93CF93DF93EC016B01142FE22EF02E9F
:1021F0008DA1843031F4EA8DFB8D309709F083C0D6
:1022000095C06230710509F442C06330710529F050
:102210006130710509F073C060C0842F90E0807F49
:102220009070803A9105E1F0813A91053CF4803854
:10223000910599F080399105F9F40CC0803E910523
:1022400091F0803F910591F0803B9105A9F4EA81DE
:10225000FB8114C0EC81FD8111C0EE81FF810EC0B5
:10226000E885F9850BC0EA85FB8508C0423F09F087
:102270005DC0EC85FD8502C0E0E0F0E0309709F438
:1022800055C0CE01612F4E2D2F2D099542C0842FB0
:1022900090E0807F9070803D910549F0803F9105EE
:1022A00049F0803C910581F4EE85FF850FC0E889F7
:1022B000F9890CC0433F19F4EA89FB8907C0413F03
:1022C000A9F5EC89FD8902C0E0E0F0E0309771F1FA
:1022D000CE01612F4E2D09951CC0842F0E94E20E65
:1022E000882319F0EE89FF8904C0163FF9F4E88DC0
:1022F000F98D3097D9F0CE01612F09950AC064306D
:10230000710590F413C0CE01B601412F2E2D0F2D73
:102310000995EE8DFF8D309771F0CE01B601412FFA
:102320002E2D0F2D099507C0CC24DD24EC8DFD8DBD
:10233000309749F7EECFDF91CF911F910F91FF902A
:10234000EF90DF90CF900895EF92FF920F931F933D
:10235000CF93DF93EC01162F862F0E94E20E882385
:1023600069F0EDA081E08DA3CE0161E070E0412F26
:1023700020E000E00E94EB10EDA27EC0812F0E94C1
:10238000DE0E4DA1882309F442C0443029F01AA37F
:1023900081E090E08EA39FA3812F0E94E80E813000
:1023A00039F0813078F0823059F0833061F508C01F
:1023B0008DA3CE0161E070E0412F20E000E01FC05E
:1023C0008DA35AC0103F19F0173FE9F404C084E010
:1023D0008DA31AA33FC02EA13FA1C90163E070E005
:1023E0000E94B6198C0F9D1FFC0112A3B9016F5FEB
:1023F0007F4F6EA37FA3CE014AA12BA10CA10E9407
:10240000EB101DA239C01DA21EA21FA235C044237D
:1024100099F12EA13FA1C90163E070E00E94B619B5
:102420007C01FE01E80FF91F12A3B9016F5F7F4F16
:102430006EA37FA38130910591F082E0E816F1044C
:10244000D9F4CE014AA12BA10CA10E94EB108DA1C1
:10245000843091F081E090E08EA39FA30DC04230C4
:1024600059F4CE014AA12BA100E00E94EB108DA1EE
:10247000843011F0EEA2FFA2DF91CF911F910F9156
:10248000FF90EF900895CF92DF92EF92FF920F931B
:102490001F93CF93DF93EC01E8A1F9A1309709F0E6
:1024A00009958E0108511F4FC8010E94940EEE2419
:1024B000FF24C82EDD240FC0C80160E00E94AA0ED0
:1024C000682FCE010E94A411C80161E00E94BA0EDB
:1024D0000894E11CF11CEC14FD0470F3DF91CF9122
:1024E0001F910F91FF90EF90DF90CF900895EF92A2
:1024F000FF920F931F937B018C0120E030E040E0BE
:102500005FE40E94231687FD11C0C801B70120E0D7
:1025100030E040E05FE40E941A140E94E3169B0141
:10252000AC01205030404040504806C0C801B701BF
:102530000E94E3169B01AC01B901CA011F910F91E2
:10254000FF90EF900895A0E0B0E0E9EAF2E10C948A
:10255000031AFC01EA018081823008F438C1DB01F2
:102560009C91923008F430C1843059F4943009F0D1
:102570002EC1918111968C911197981709F021C164
:1025800026C1943009F420C19230B1F4823009F0B0
:102590001EC1CA01AF0128E0DA010D90AD01DC01D6
:1025A0000D92CD012150C1F7DB0111968C9111974D
:1025B0009181892389830AC1823009F405C1C280CF
:1025C000D380DB0112966D907C9013972481358126
:1025D000468157811496ED90FD900D911C911797AF
:1025E000C601861997095C0197FF04C0AA24BB2481
:1025F000A81AB90AB0E2AB16B1040CF061C0181603
:1026000019066CF5370148010A2C04C0969487948A
:10261000779467940A94D2F781E090E0A0E0B0E06C
:102620000A2C04C0880F991FAA1FBB1F0A94D2F757
:102630000197A109B1098E219F21A023B123EE2486
:10264000FF248701E3940097A105B10519F4EE2456
:10265000FF248701E628F728082919293CC000979C
:10266000D1F1CA0CDB1C39014A010A2C04C0969432
:102670008794779467940A94D2F781E090E0A0E081
:10268000B0E00A2C04C0880F991FAA1FBB1F0A9430
:10269000D2F70197A109B10982239323A423B5237B
:1026A00021E030E040E050E00097A105B10519F4C9
:1026B00020E030E0A90126293729482959290BC0F3
:1026C0006C147D0424F4EE24FF24870104C063010C
:1026D00020E030E0A9018181FB019181891709F493
:1026E00045C0882349F0D801C701821B930BA40B76
:1026F000B50B9C01AD0104C02E193F09400B510BD5
:1027000057FD04C01982CA82DB820BC081E0898335
:10271000CA82DB8250954095309521953F4F4F4FAF
:102720005F4F2C833D834E835F830DC0880F991FBD
:10273000AA1FBB1F8C839D83AE83BF838A819B812D
:1027400001978A839B838C819D81AE81BF819C018F
:10275000AD0121503040404050402F3FEFEF3E0749
:10276000EFEF4E07EFE35E0708F30BC08983CA82E1
:10277000DB822E0D3F1D401F511F2C833D834E8356
:102780005F8383E088832C813D814E815F8157FF89
:102790001DC0DA01C90181709070A070B0705695AB
:1027A000479537952795822B932BA42BB52B8C839C
:1027B0009D83AE83BF838A819B8101968A839B839D
:1027C00005C0EFE3F0E203C0FB0101C0FE01CF0151
:1027D000CDB7DEB7EEE00C941C1AA0E2B0E0E3EF58
:1027E000F3E10C940B1A69837A838B839C832D838A
:1027F0003E834F83588789E0E82EF12CEC0EFD1EB6
:10280000CE010196B7010E94D5188E010F5E1F4FB1
:10281000CE010596B8010E94D518C701B801AE01D6
:10282000475E5F4F0E94A3120E940718A096E6E041
:102830000C94241AA0E2B0E0E0E2F4E10C940B1A4C
:1028400069837A838B839C832D833E834F83588750
:102850008E01075F1F4FCE010196B8010E94D51867
:1028600091E1E92EF12CEC0EFD1ECE010596B7018B
:102870000E94D5188A8991E089278A8BC801B701FF
:10288000AE01475E5F4F0E94A3120E940718A096F8
:10289000E6E00C94241AA0E2B0E0E1E5F4E10C9447
:1028A000FF1969837A838B839C832D833E834F83B7
:1028B0005887CE010196BE01675F7F4F0E94D518F1
:1028C000CE010596BE016F5E7F4F0E94D518998597
:1028D000923078F089898230C0F0943019F48230D7
:1028E00041F4CBC0843019F4923079F4C6C09230F0
:1028F00051F481E02A859A89291709F480E08A87B2
:10290000CE010996BCC0823051F481E02A859A89B3
:10291000291709F480E08A8BCE014196B0C06D84FE
:102920007E848F849888ED88FE880F89188DE0E278
:10293000F0E080E090E0DC01AA24BB24650120E007
:1029400030E0A901B3016170707061157105D1F0BB
:102950002E0D3F1D401F511F15012601280E391E47
:102960004A1E5B1E81E090E0A0E0B0E02E153F051E
:102970004007510718F080E090E0DC01820D931DC4
:10298000A41DB51DAA0CBB1CCC1CDD1C17FF09C067
:1029900061E0262E312C412C512CA228B328C428CA
:1029A000D528319749F0EE0CFF1C001F111F96949B
:1029B000879477946794C6CF6B897C89EB85FC8577
:1029C0006E0F7F1F6E5F7F4F6B8F7C8F61E0EA859C
:1029D0007A89E71709F460E06A8F6B8D7C8D10C0EF
:1029E000FC01E170F070309729F0569547953795C6
:1029F00027955068B695A795979587956F5F7F4FF8
:102A0000B7FDEECF0CC0880F991FAA1FBB1F57FD43
:102A10008160220F331F441F551F6150704080306A
:102A2000E0E09E07E0E0AE07E0E4BE0760F36B8FF6
:102A30007C8F6FE7E62EF12C012D112DE822F92273
:102A40000A231B2360E4E616F1040105110561F475
:102A500087FD0AC0211531054105510529F0805C2B
:102A60009F4FAF4FBF4F80788D8F9E8FAF8FB8A392
:102A700083E0898FCE01499602C08FE390E20E94E5
:102A80000718A096E2E10C94181AA8E1B0E0EBE474
:102A9000F5E10C94071A69837A838B839C832D83D9
:102AA0003E834F8358878E01075F1F4FCE010196EB
:102AB000B8010E94D51881E1E82EF12CEC0EFD1E24
:102AC000CE010596B7010E94D5189985923008F479
:102AD00083C08989823008F47BC02A853A892327FC
:102AE0002A87943011F0923021F4981709F06CC0C5
:102AF00071C0843039F41D861E861F86188A1B8695
:102B00001C866AC0823019F484E0898765C08B8591
:102B10009C852B893C89821B930B8B879C872D85F9
:102B20003E854F855889ED88FE880F89188D2E15B2
:102B30003F054007510738F4220F331F441F551F2C
:102B400001978B879C876FE170E0A12CB12CC12C81
:102B5000A0E4DA2E80E090E0DC012E153F0540076E
:102B6000510740F08A299B29AC29BD292E193F091C
:102B7000400B510BD694C794B794A794220F331FE0
:102B8000441F551F6150704041F76FE7E62EF12C4E
:102B9000012D112DE822F9220A231B2360E4E616F9
:102BA000F1040105110561F487FD0AC02115310505
:102BB0004105510529F0805C9F4FAF4FBF4F807892
:102BC0008D879E87AF87B88B8E01075F1F4F04C02C
:102BD000870102C00FE310E2C8010E94071868963F
:102BE000EAE00C94201AA8E1B0E0E9EFF5E10C94DA
:102BF0000B1A69837A838B839C832D833E834F8357
:102C000058878E01075F1F4FCE010196B8010E94C1
:102C1000D51881E1E82EF12CEC0EFD1ECE010596B3
:102C2000B7010E94D5188985823040F089898230A9
:102C300028F0C801B7010E943E1901C08FEF6896C5
:102C4000E6E00C94241AA8E1B0E0E9E2F6E10C9485
:102C50000B1A69837A838B839C832D833E834F83F6
:102C600058878E01075F1F4FCE010196B8010E9461
:102C7000D51881E1E82EF12CEC0EFD1ECE01059653
:102C8000B7010E94D5188985823040F08989823049
:102C900028F0C801B7010E943E1901C08FEF689665
:102CA000E6E00C94241AA8E1B0E0E9E5F6E10C9422
:102CB0000B1A69837A838B839C832D833E834F8396
:102CC00058878E01075F1F4FCE010196B8010E9401
:102CD000D51881E1E82EF12CEC0EFD1ECE010596F3
:102CE000B7010E94D5188985823040F089898230E9
:102CF00028F0C801B7010E943E1901C081E0689622
:102D0000E6E00C94241AA8E0B0E0E9E8F6E10C94BF
:102D10000B1A7B018C0183E08983D801C7018827C6
:102D2000B7FD83959927AA27BB27282F8A83E1140B
:102D3000F1040105110519F482E0898337C08EE1A1
:102D400090E08B839C83222389F080E0E81680E06A
:102D5000F80680E0080780E8180769F110950095EB
:102D6000F094E094E11CF11C011D111DED82FE8226
:102D70000F831887C801B7010E94AD179C0121502D
:102D800030401216130694F4022E04C0EE0CFF1C01
:102D9000001F111F0A94D2F7ED82FE820F8318875D
:102DA0008EE190E0821B930B8B839C83CE01019676
:102DB0000E94071804C060E070E080E09FEC289655
:102DC000E6E00C94241AACE0B0E0E9EEF6E10C94F5
:102DD0000F1A69837A838B839C83CE010196BE018F
:102DE0006B5F7F4F0E94D5188D81823081F18230D8
:102DF00070F1843021F48E81882369F10AC02F811B
:102E0000388537FD24C06E812F3131053CF06623B3
:102E100011F120E030E040E050E821C08EE190E088
:102E2000821B930B29853A854B855C8504C056959A
:102E30004795379527958A95D2F7662381F0509567
:102E40004095309521953F4F4F4F5F4F08C020E090
:102E500030E0A90104C02FEF3FEF4FEF5FE7B9016A
:102E6000CA012C96E2E00C94281AA8E0B0E0EBE34B
:102E7000F7E10C94091A7B018C011A826115710526
:102E80008105910519F482E089835FC083E089831D
:102E90008EE1C82ED12CCB82DC82ED82FE820F83A4
:102EA0001887C801B7010E94AD17FC013197F7FFE1
:102EB0003AC0AA27BB27AE1BBF0B21E030E040E0A1
:102EC00050E00A2E04C0220F331F441F551F0A94DE
:102ED000D2F721503040404050402E213F21402326
:102EE000512361E070E080E090E02115310541055B
:102EF000510519F460E070E0CB0104C01695079508
:102F0000F794E794AA95D2F7E62AF72A082B192B0B
:102F1000ED82FE820F8318878EE190E08E1B9F0B5F
:102F20008B839C8312C0309781F00E2E04C0EE0C70
:102F3000FF1C001F111F0A94D2F7ED82FE820F833F
:102F40001887CE1ADF0ACB82DC82CE0101960E945E
:102F500007182896E8E00C94221AAF92BF92CF92FD
:102F6000DF92EF92FF920F931F937B018C0180E021
:102F7000E81680E0F80681E0080780E0180758F4BA
:102F8000EFEFEE16F1040105110509F090F480E071
:102F900090E0DC0117C0F0E0EF16F0E0FF06F0E093
:102FA0000F07F1E01F0750F480E190E0A0E0B0E0EF
:102FB00009C088E090E0A0E0B0E004C088E190E0C3
:102FC000A0E0B0E020E230E040E050E0281B390B08
:102FD0004A0B5B0B5701680104C0D694C794B794A1
:102FE000A7948A95D2F7D601C501895B9F4DFC0154
:102FF0008081281B310941095109C9011F910F9195
:10300000FF90EF90DF90CF90BF90AF900895EF9238
:10301000FF920F931F93CF93DF93FC01248135819F
:103020004681578161818081823020F44061EFEFD9
:10303000F0E0A3C0843009F49BC0823009F492C050
:10304000211531054105510509F48FC00280F38136
:10305000E02D8FEFE238F8070CF05AC0C2E8DFEF3E
:10306000CE1BDF0BCA31D1056CF579018A010C2E1C
:1030700004C016950795F794E7940A94D2F781E077
:1030800090E0A0E0B0E00C2E04C0880F991FAA1FAA
:10309000BB1F0A94D2F70197A109B1098223932398
:1030A000A423B52321E030E040E050E00097A105E3
:1030B000B10519F420E030E0A9012E293F29402B69
:1030C000512B03C020E030E0A901DA01C9018F775C
:1030D0009070A070B07080349105A105B10539F4ED
:1030E00027FF09C0205C3F4F4F4F5F4F04C0215C5A
:1030F0003F4F4F4F5F4FE1E0F0E0203080E0380776
:1031000080E0480780E4580728F5E0E0F0E022C0BE
:10311000E038F1056CF5E158FF4FDA01C9018F770E
:103120009070A070B07080349105A105B10539F49C
:1031300027FF09C0205C3F4F4F4F5F4F04C0215C09
:103140003F4F4F4F5F4F57FF05C0569547953795F7
:103150002795319687E056954795379527958A9517
:10316000D1F70BC0E0E0F0E005C0E0E0F0E005C022
:10317000EFEFF0E020E030E0A9018E2F879588275F
:103180008795942F9F77679566276795E695E22E3A
:10319000A92FA82BFE2FF62B622F732F8A2F9F2F7C
:1031A000CDB7DEB7E6E00C94241ADC01FB012C91CC
:1031B00011963C91119712968C911297482F4F7748
:1031C00050E0982F991F9927991F13966C91139788
:1031D000862F880F892B90E0661F6627661F618304
:1031E000009739F5211531054105510511F482E0AB
:1031F00029C082E89FEF8283938367E0220F331F09
:10320000441F551F6A95D1F783E0808309C0220FC0
:10321000331F441F551F82819381019782839383BB
:10322000203080E0380780E0480780E4580778F3D2
:1032300020C08F3F910579F42115310541055105D5
:1032400019F484E08083089544FF03C081E0808303
:1032500010C010820EC08F5790408283938383E00A
:10326000808387E0220F331F441F551F8A95D1F7B3
:10327000506424833583468357830895FC01DB0122
:103280009081923008F449C08C91823008F445C096
:10329000943051F461818430B1F511962C911197DD
:1032A00030E0261B310941C0843021F0923041F4D6
:1032B0008230B1F111968C9111978823A1F12DC024
:1032C0006181823001F111968C9111976817D9F4C0
:1032D0002281338112968D919C91139782179307C7
:1032E00094F028173907BCF0248135814681578135
:1032F00014968D919D910D90BC91A02D82179307EE
:10330000A407B50718F4662341F00DC02817390744
:103310004A075B0728F4662331F021E030E005C05E
:1033200020E030E002C02FEF3FEFC9010895629F17
:10333000D001739FF001829FE00DF11D649FE00DAD
:10334000F11D929FF00D839FF00D749FF00D659F0E
:10335000F00D9927729FB00DE11DF91F639FB00D0D
:10336000E11DF91FBD01CF0111240895AA1BBB1B4C
:1033700051E107C0AA1FBB1FA617B70710F0A61B75
:10338000B70B881F991F5A95A9F780959095BC0196
:10339000CD01089597FB092E07260AD077FD04D0AA
:1033A000E5DF06D000201AF4709561957F4F0895EF
:1033B000F6F7909581959F4F0895A1E21A2EAA1BCA
:1033C000BB1BFD010DC0AA1FBB1FEE1FFF1FA217D5
:1033D000B307E407F50720F0A21BB30BE40BF50BD2
:1033E000661F771F881F991F1A9469F7609570955B
:1033F000809590959B01AC01BD01CF0108952F925E
:103400003F924F925F926F927F928F929F92AF9274
:10341000BF92CF92DF92EF92FF920F931F93CF93C1
:10342000DF93CDB7DEB7CA1BDB0BCDBFDEBF099480
:103430002A88398848885F846E847D848C849B8444
:10344000AA84B984C884DF80EE80FD800C811B8152
:10345000AA81B981CE0FD11DCDBFDEBFED01089588
:10346000A0E0B0E0E6E3FAE10C94071AEC01688111
:1034700079818A819B81611571058105910521F40E
:1034800064E279ED8BE597E02DE133EF41E050E028
:103490000E94841A79018A0127EA31E440E050E071
:1034A0000E9497195B016C01C801B7012CEE34EF43
:1034B0004FEF5FEF0E9497196A0D7B1D8C1D9D1DBC
:1034C00097FF04C0615070408040904868837983C2
:1034D0008A839B837F77CB01CDB7DEB7EAE00C947C
:1034E000201A0E94301A089587E491E20E94301A4F
:1034F0000895A0E0B0E08093472190934821A093E5
:103500004921B0934A21089597FB092E05260ED034
:1035100057FD04D052DF0AD0001C38F45095409576
:10352000309521953F4F4F4F5F4F0895F6F7909597
:103530008095709561957F4F8F4F9F4F0895F894B8
:02354000FFCFBB
:103542000000000001000000020000000400000072
:10355200080000004000000000010000000400001C
:103562000000010000010000000100020302040546
:10357200020302000001000101010101000101003A
:103582000000000000000000010202030303030424
:1035920004040404040404050505050505050505E0
:1035A20005050505050505060606060606060606C0
:1035B20006060606060606060606060606060606A9
:1035C2000606060606060607070707070707070790
:1035D2000707070707070707070707070707070779
:1035E2000707070707070707070707070707070769
:1035F2000707070707070707070707070707070759
:10360200070707070707070808080808080808083F
:103612000808080808080808080808080808080828
:103622000808080808080808080808080808080818
:103632000808080808080808080808080808080808
:1036420008080808080808080808080808080808F8
:1036520008080808080808080808080808080808E8
:1036620008080808080808080808080808080808D8
:1036720008080808080808080808080808080808C8
:0C36820008080808080808010000000003
:00000001FF
